{
  "_format": "hh-sol-artifact-1",
  "contractName": "GreenDAO",
  "sourceName": "contracts/GreenDAO.sol",
  "abi": [
    {
      "inputs": [
        {
          "internalType": "address",
          "name": "_token",
          "type": "address"
        },
        {
          "internalType": "uint256",
          "name": "_pricePerVote",
          "type": "uint256"
        }
      ],
      "stateMutability": "nonpayable",
      "type": "constructor"
    },
    {
      "inputs": [
        {
          "internalType": "address",
          "name": "",
          "type": "address"
        }
      ],
      "name": "DAOMembers",
      "outputs": [
        {
          "internalType": "bool",
          "name": "",
          "type": "bool"
        }
      ],
      "stateMutability": "view",
      "type": "function"
    },
    {
      "inputs": [],
      "name": "PROPOSAL_DURATION",
      "outputs": [
        {
          "internalType": "uint256",
          "name": "",
          "type": "uint256"
        }
      ],
      "stateMutability": "view",
      "type": "function"
    },
    {
      "inputs": [],
      "name": "ROUND_DURATION",
      "outputs": [
        {
          "internalType": "uint256",
          "name": "",
          "type": "uint256"
        }
      ],
      "stateMutability": "view",
      "type": "function"
    },
    {
      "inputs": [
        {
          "internalType": "string",
          "name": "_data",
          "type": "string"
        },
        {
          "internalType": "address",
          "name": "_proposedRecipient",
          "type": "address"
        },
        {
          "internalType": "address",
          "name": "_proposedBy",
          "type": "address"
        }
      ],
      "name": "addProject",
      "outputs": [],
      "stateMutability": "nonpayable",
      "type": "function"
    },
    {
      "inputs": [],
      "name": "anonymousDonations",
      "outputs": [
        {
          "internalType": "uint256",
          "name": "",
          "type": "uint256"
        }
      ],
      "stateMutability": "view",
      "type": "function"
    },
    {
      "inputs": [
        {
          "internalType": "uint256",
          "name": "roundId",
          "type": "uint256"
        }
      ],
      "name": "distributeToProjects",
      "outputs": [],
      "stateMutability": "nonpayable",
      "type": "function"
    },
    {
      "inputs": [],
      "name": "distributeToProjects",
      "outputs": [],
      "stateMutability": "nonpayable",
      "type": "function"
    },
    {
      "inputs": [
        {
          "internalType": "uint256",
          "name": "amount",
          "type": "uint256"
        }
      ],
      "name": "donate",
      "outputs": [
        {
          "internalType": "uint256",
          "name": "",
          "type": "uint256"
        }
      ],
      "stateMutability": "nonpayable",
      "type": "function"
    },
    {
      "inputs": [],
      "name": "getActualBalance",
      "outputs": [
        {
          "internalType": "uint256",
          "name": "",
          "type": "uint256"
        }
      ],
      "stateMutability": "view",
      "type": "function"
    },
    {
      "inputs": [],
      "name": "getCurrentProjects",
      "outputs": [
        {
          "components": [
            {
              "internalType": "string",
              "name": "data",
              "type": "string"
            },
            {
              "internalType": "uint256",
              "name": "votes",
              "type": "uint256"
            },
            {
              "internalType": "address",
              "name": "proposedBy",
              "type": "address"
            }
          ],
          "internalType": "struct GreenDAO.Project[]",
          "name": "",
          "type": "tuple[]"
        }
      ],
      "stateMutability": "view",
      "type": "function"
    },
    {
      "inputs": [],
      "name": "getCurrentRound",
      "outputs": [
        {
          "internalType": "uint256",
          "name": "",
          "type": "uint256"
        }
      ],
      "stateMutability": "view",
      "type": "function"
    },
    {
      "inputs": [],
      "name": "getCurrentRoundStatus",
      "outputs": [
        {
          "internalType": "enum GreenDAO.RoundStatus",
          "name": "",
          "type": "uint8"
        }
      ],
      "stateMutability": "view",
      "type": "function"
    },
    {
      "inputs": [],
      "name": "getLastWinners",
      "outputs": [
        {
          "components": [
            {
              "internalType": "string",
              "name": "data",
              "type": "string"
            },
            {
              "internalType": "uint256",
              "name": "votes",
              "type": "uint256"
            },
            {
              "internalType": "address",
              "name": "proposedBy",
              "type": "address"
            }
          ],
          "internalType": "struct GreenDAO.Project[]",
          "name": "",
          "type": "tuple[]"
        }
      ],
      "stateMutability": "view",
      "type": "function"
    },
    {
      "inputs": [
        {
          "internalType": "address",
          "name": "user",
          "type": "address"
        }
      ],
      "name": "getMemberRemainingVotes",
      "outputs": [
        {
          "internalType": "uint256",
          "name": "",
          "type": "uint256"
        }
      ],
      "stateMutability": "view",
      "type": "function"
    },
    {
      "inputs": [
        {
          "internalType": "address",
          "name": "user",
          "type": "address"
        }
      ],
      "name": "getMembersLastVotes",
      "outputs": [
        {
          "internalType": "address[]",
          "name": "",
          "type": "address[]"
        }
      ],
      "stateMutability": "view",
      "type": "function"
    },
    {
      "inputs": [
        {
          "internalType": "address",
          "name": "user",
          "type": "address"
        }
      ],
      "name": "isMember",
      "outputs": [
        {
          "internalType": "bool",
          "name": "",
          "type": "bool"
        }
      ],
      "stateMutability": "view",
      "type": "function"
    },
    {
      "inputs": [
        {
          "internalType": "address",
          "name": "",
          "type": "address"
        }
      ],
      "name": "members",
      "outputs": [
        {
          "internalType": "uint256",
          "name": "votes",
          "type": "uint256"
        },
        {
          "internalType": "uint256",
          "name": "lastRoundPaid",
          "type": "uint256"
        }
      ],
      "stateMutability": "view",
      "type": "function"
    },
    {
      "inputs": [],
      "name": "pricePerVote",
      "outputs": [
        {
          "internalType": "uint256",
          "name": "",
          "type": "uint256"
        }
      ],
      "stateMutability": "view",
      "type": "function"
    },
    {
      "inputs": [
        {
          "internalType": "uint256",
          "name": "",
          "type": "uint256"
        },
        {
          "internalType": "address",
          "name": "",
          "type": "address"
        }
      ],
      "name": "projects",
      "outputs": [
        {
          "internalType": "string",
          "name": "data",
          "type": "string"
        },
        {
          "internalType": "uint256",
          "name": "votes",
          "type": "uint256"
        },
        {
          "internalType": "address",
          "name": "proposedBy",
          "type": "address"
        }
      ],
      "stateMutability": "view",
      "type": "function"
    },
    {
      "inputs": [
        {
          "internalType": "uint256",
          "name": "",
          "type": "uint256"
        },
        {
          "internalType": "uint256",
          "name": "",
          "type": "uint256"
        }
      ],
      "name": "projectsPerRound",
      "outputs": [
        {
          "internalType": "address",
          "name": "",
          "type": "address"
        }
      ],
      "stateMutability": "view",
      "type": "function"
    },
    {
      "inputs": [
        {
          "internalType": "uint256",
          "name": "",
          "type": "uint256"
        }
      ],
      "name": "rounds",
      "outputs": [
        {
          "internalType": "bool",
          "name": "hasBeenPaid",
          "type": "bool"
        },
        {
          "internalType": "uint256",
          "name": "balance",
          "type": "uint256"
        }
      ],
      "stateMutability": "view",
      "type": "function"
    },
    {
      "inputs": [],
      "name": "start",
      "outputs": [
        {
          "internalType": "uint256",
          "name": "",
          "type": "uint256"
        }
      ],
      "stateMutability": "view",
      "type": "function"
    },
    {
      "inputs": [],
      "name": "token",
      "outputs": [
        {
          "internalType": "address",
          "name": "",
          "type": "address"
        }
      ],
      "stateMutability": "view",
      "type": "function"
    },
    {
      "inputs": [],
      "name": "totalCollected",
      "outputs": [
        {
          "internalType": "uint256",
          "name": "",
          "type": "uint256"
        }
      ],
      "stateMutability": "view",
      "type": "function"
    },
    {
      "inputs": [],
      "name": "totalPaidProjects",
      "outputs": [
        {
          "internalType": "uint256",
          "name": "",
          "type": "uint256"
        }
      ],
      "stateMutability": "view",
      "type": "function"
    },
    {
      "inputs": [
        {
          "internalType": "address",
          "name": "projectAddress",
          "type": "address"
        },
        {
          "internalType": "uint256",
          "name": "nbOfVote",
          "type": "uint256"
        }
      ],
      "name": "voteForProject",
      "outputs": [],
      "stateMutability": "nonpayable",
      "type": "function"
    }
  ],
  "bytecode": "0x60c06040523480156200001157600080fd5b50604051620041fc380380620041fc8339818101604052810190620000379190620001de565b336000806101000a81548173ffffffffffffffffffffffffffffffffffffffff021916908373ffffffffffffffffffffffffffffffffffffffff160217905550426001819055508173ffffffffffffffffffffffffffffffffffffffff1660808173ffffffffffffffffffffffffffffffffffffffff1660601b815250508173ffffffffffffffffffffffffffffffffffffffff1663313ce5676040518163ffffffff1660e01b815260040160206040518083038186803b158015620000fc57600080fd5b505afa15801562000111573d6000803e3d6000fd5b505050506040513d601f19601f820116820180604052508101906200013791906200021f565b600a62000145919062000300565b811162000189576040517f08c379a0000000000000000000000000000000000000000000000000000000008152600401620001809062000272565b60405180910390fd5b8060a0818152505050506200053b565b600081519050620001aa81620004ed565b92915050565b600081519050620001c18162000507565b92915050565b600081519050620001d88162000521565b92915050565b60008060408385031215620001f257600080fd5b6000620002028582860162000199565b92505060206200021585828601620001b0565b9150509250929050565b6000602082840312156200023257600080fd5b60006200024284828501620001c7565b91505092915050565b60006200025a60168362000294565b91506200026782620004c4565b602082019050919050565b600060208201905081810360008301526200028d816200024b565b9050919050565b600082825260208201905092915050565b6000808291508390505b6001851115620002f757808604811115620002cf57620002ce62000488565b5b6001851615620002df5780820291505b8081029050620002ef85620004b7565b9450620002af565b94509492505050565b60006200030d8262000471565b91506200031a836200047b565b9250620003497fffffffffffffffffffffffffffffffffffffffffffffffffffffffffffffffff848462000351565b905092915050565b60008262000363576001905062000436565b8162000373576000905062000436565b81600181146200038c57600281146200039757620003cd565b600191505062000436565b60ff841115620003ac57620003ab62000488565b5b8360020a915084821115620003c657620003c562000488565b5b5062000436565b5060208310610133831016604e8410600b8410161715620004075782820a90508381111562000401576200040062000488565b5b62000436565b620004168484846001620002a5565b9250905081840481111562000430576200042f62000488565b5b81810290505b9392505050565b60006200044a8262000451565b9050919050565b600073ffffffffffffffffffffffffffffffffffffffff82169050919050565b6000819050919050565b600060ff82169050919050565b7f4e487b7100000000000000000000000000000000000000000000000000000000600052601160045260246000fd5b60008160011c9050919050565b7f50726963652070657220766f746520746f6f206c6f7700000000000000000000600082015250565b620004f8816200043d565b81146200050457600080fd5b50565b620005128162000471565b81146200051e57600080fd5b50565b6200052c816200047b565b81146200053857600080fd5b50565b60805160601c60a051613c7562000587600039600081816105900152818161192e0152611a4d01526000818161089201528181610928015281816118310152611e620152613c756000f3fe608060405234801561001057600080fd5b506004361061018e5760003560e01c80637f097010116100de578063aac5426c11610097578063e29eb83611610071578063e29eb836146104a1578063f14faf6f146104bf578063f2645e37146104ef578063fc0c546a1461050d5761018e565b8063aac5426c1461044b578063be9a655514610467578063bf65a9df146104855761018e565b80637f09701014610372578063871e5d73146103905780638c65c81f146103ae57806395690936146103df578063a230c524146103fd578063a32bf5971461042d5761018e565b8063534797a01161014b57806368ef87901161012557806368ef8790146102c45780636cf3c7ef146102e25780636da1a9f8146103125780637c610a5f146103425761018e565b8063534797a01461026a57806360f85f3d1461029c5780636641ea08146102a65761018e565b806308ae4b0c146101935780630d31d835146101c457806315df7700146101e257806329a8b19f14610200578063330b4ab21461021c57806344dd3d0d1461024c575b600080fd5b6101ad60048036038101906101a89190612c67565b61052b565b6040516101bb929190613497565b60405180910390f35b6101cc61054f565b6040516101d991906132c1565b60405180910390f35b6101ea61058e565b6040516101f7919061347c565b60405180910390f35b61021a60048036038101906102159190612d5c565b6105b2565b005b61023660048036038101906102319190612dea565b6108d5565b60405161024391906131e7565b60405180910390f35b610254610923565b604051610261919061347c565b60405180910390f35b610284600480360381019061027f9190612dae565b6109d8565b604051610293939291906132fe565b60405180910390f35b6102a4610ab7565b005b6102ae610ad5565b6040516102bb919061347c565b60405180910390f35b6102cc610adc565b6040516102d9919061347c565b60405180910390f35b6102fc60048036038101906102f79190612c67565b610ae2565b604051610309919061347c565b60405180910390f35b61032c60048036038101906103279190612c67565b610b76565b604051610339919061327d565b60405180910390f35b61035c60048036038101906103579190612c67565b610b96565b6040516103699190613239565b60405180910390f35b61037a610cb4565b604051610387919061347c565b60405180910390f35b610398610cbb565b6040516103a5919061347c565b60405180910390f35b6103c860048036038101906103c39190612d5c565b610cc1565b6040516103d6929190613298565b60405180910390f35b6103e7610cf2565b6040516103f4919061325b565b60405180910390f35b61041760048036038101906104129190612c67565b611024565b604051610424919061327d565b60405180910390f35b61043561107e565b604051610442919061347c565b60405180910390f35b61046560048036038101906104609190612cf5565b6110a6565b005b61046f61145b565b60405161047c919061347c565b60405180910390f35b61049f600480360381019061049a9190612c90565b611461565b005b6104a9611824565b6040516104b6919061347c565b60405180910390f35b6104d960048036038101906104d49190612d5c565b61182a565b6040516104e6919061347c565b60405180910390f35b6104f7611b3d565b604051610504919061325b565b60405180910390f35b610515611e60565b60405161052291906131e7565b60405180910390f35b60026020528060005260406000206000915090508060000154908060010154905082565b6000806001544261056091906136ac565b9050621baf806224ea0082610575919061383b565b101561058557600091505061058b565b60019150505b90565b7f000000000000000000000000000000000000000000000000000000000000000081565b6005600082815260200190815260200160002060000160009054906101000a900460ff1615610616576040517f08c379a000000000000000000000000000000000000000000000000000000000815260040161060d9061335c565b60405180910390fd5b61061e61107e565b811415610660576040517f08c379a00000000000000000000000000000000000000000000000000000000081526004016106579061339c565b60405180910390fd5b60016005600083815260200190815260200160002060000160006101000a81548160ff021916908315150217905550600061069a82611e84565b9050806005600084815260200190815260200160002060010190805190602001906106c6929190612a47565b508051600760008282546106da91906135cb565b92505081905550600080600090505b82518110156107b257600083828151811061072d577f4e487b7100000000000000000000000000000000000000000000000000000000600052603260045260246000fd5b6020026020010151905060006003600087815260200190815260200160002060008373ffffffffffffffffffffffffffffffffffffffff1673ffffffffffffffffffffffffffffffffffffffff168152602001908152602001600020600101549050808461079b91906135cb565b9350505080806107aa906137f2565b9150506106e9565b5060005b82518110156108cf5760008382815181106107fa577f4e487b7100000000000000000000000000000000000000000000000000000000600052603260045260246000fd5b6020026020010151905060006003600087815260200190815260200160002060008373ffffffffffffffffffffffffffffffffffffffff1673ffffffffffffffffffffffffffffffffffffffff1681526020019081526020016000206001015490506000848261086a9190613621565b600560008981526020019081526020016000206002015461088b9190613652565b90506108b97f0000000000000000000000000000000000000000000000000000000000000000308584612741565b50505080806108c7906137f2565b9150506107b6565b50505050565b600460205281600052604060002081815481106108f157600080fd5b906000526020600020016000915091509054906101000a900473ffffffffffffffffffffffffffffffffffffffff1681565b6000807f000000000000000000000000000000000000000000000000000000000000000073ffffffffffffffffffffffffffffffffffffffff166370a08231306040518263ffffffff1660e01b815260040161097f91906131e7565b60206040518083038186803b15801561099757600080fd5b505afa1580156109ab573d6000803e3d6000fd5b505050506040513d601f19601f820116820180604052508101906109cf9190612d85565b90508091505090565b600360205281600052604060002060205280600052604060002060009150915050806000018054610a089061378f565b80601f0160208091040260200160405190810160405280929190818152602001828054610a349061378f565b8015610a815780601f10610a5657610100808354040283529160200191610a81565b820191906000526020600020905b815481529060010190602001808311610a6457829003601f168201915b5050505050908060010154908060020160009054906101000a900473ffffffffffffffffffffffffffffffffffffffff16905083565b610ad36001610ac461107e565b610ace91906136ac565b6105b2565b565b6224ea0081565b60095481565b6000610aed82611024565b610b2c576040517f08c379a0000000000000000000000000000000000000000000000000000000008152600401610b23906133bc565b60405180910390fd5b600260008373ffffffffffffffffffffffffffffffffffffffff1673ffffffffffffffffffffffffffffffffffffffff168152602001908152602001600020600001549050919050565b60086020528060005260406000206000915054906101000a900460ff1681565b6060610ba182611024565b610be0576040517f08c379a0000000000000000000000000000000000000000000000000000000008152600401610bd7906133bc565b60405180910390fd5b6000600260008473ffffffffffffffffffffffffffffffffffffffff1673ffffffffffffffffffffffffffffffffffffffff168152602001908152602001600020600201805480602002602001604051908101604052809291908181526020018280548015610ca457602002820191906000526020600020905b8160009054906101000a900473ffffffffffffffffffffffffffffffffffffffff1673ffffffffffffffffffffffffffffffffffffffff1681526020019060010190808311610c5a575b5050505050905080915050919050565b621baf8081565b60075481565b60056020528060005260406000206000915090508060000160009054906101000a900460ff16908060020154905082565b606060006001610d0061107e565b610d0a91906136ac565b9050600060056000838152602001908152602001600020600101805480602002602001604051908101604052809291908181526020018280548015610da457602002820191906000526020600020905b8160009054906101000a900473ffffffffffffffffffffffffffffffffffffffff1673ffffffffffffffffffffffffffffffffffffffff1681526020019060010190808311610d5a575b505050505090506000815167ffffffffffffffff811115610dee577f4e487b7100000000000000000000000000000000000000000000000000000000600052604160045260246000fd5b604051908082528060200260200182016040528015610e2757816020015b610e14612ad1565b815260200190600190039081610e0c5790505b50905060005b825181101561101a57600360008581526020019081526020016000206000848381518110610e84577f4e487b7100000000000000000000000000000000000000000000000000000000600052603260045260246000fd5b602002602001015173ffffffffffffffffffffffffffffffffffffffff1673ffffffffffffffffffffffffffffffffffffffff168152602001908152602001600020604051806060016040529081600082018054610ee19061378f565b80601f0160208091040260200160405190810160405280929190818152602001828054610f0d9061378f565b8015610f5a5780601f10610f2f57610100808354040283529160200191610f5a565b820191906000526020600020905b815481529060010190602001808311610f3d57829003601f168201915b50505050508152602001600182015481526020016002820160009054906101000a900473ffffffffffffffffffffffffffffffffffffffff1673ffffffffffffffffffffffffffffffffffffffff1673ffffffffffffffffffffffffffffffffffffffff1681525050828281518110610ffc577f4e487b7100000000000000000000000000000000000000000000000000000000600052603260045260246000fd5b60200260200101819052508080611012906137f2565b915050610e2d565b5080935050505090565b60008061102f61107e565b905080600260008573ffffffffffffffffffffffffffffffffffffffff1673ffffffffffffffffffffffffffffffffffffffff1681526020019081526020016000206001015414915050919050565b6000806001544261108f91906136ac565b90506224ea00816110a09190613621565b91505090565b600060018111156110e0577f4e487b7100000000000000000000000000000000000000000000000000000000600052602160045260246000fd5b6110e861054f565b6001811115611120577f4e487b7100000000000000000000000000000000000000000000000000000000600052602160045260246000fd5b14611160576040517f08c379a00000000000000000000000000000000000000000000000000000000081526004016111579061333c565b60405180910390fd5b61116933611024565b6111a8576040517f08c379a000000000000000000000000000000000000000000000000000000000815260040161119f906133bc565b60405180910390fd5b60006111b261107e565b905060008073ffffffffffffffffffffffffffffffffffffffff166003600084815260200190815260200160002060008673ffffffffffffffffffffffffffffffffffffffff1673ffffffffffffffffffffffffffffffffffffffff16815260200190815260200160002060020160009054906101000a900473ffffffffffffffffffffffffffffffffffffffff1673ffffffffffffffffffffffffffffffffffffffff161415611298576040517f08c379a000000000000000000000000000000000000000000000000000000000815260040161128f906133dc565b60405180910390fd5b6112a0612ad1565b85816000018190525033816040019073ffffffffffffffffffffffffffffffffffffffff16908173ffffffffffffffffffffffffffffffffffffffff1681525050806003600085815260200190815260200160002060008773ffffffffffffffffffffffffffffffffffffffff1673ffffffffffffffffffffffffffffffffffffffff168152602001908152602001600020600082015181600001908051906020019061134e929190612b08565b506020820151816001015560408201518160020160006101000a81548173ffffffffffffffffffffffffffffffffffffffff021916908373ffffffffffffffffffffffffffffffffffffffff1602179055509050506000600460008581526020019081526020016000208054905090508560046000868152602001908152602001600020828154811061140a577f4e487b7100000000000000000000000000000000000000000000000000000000600052603260045260246000fd5b9060005260206000200160006101000a81548173ffffffffffffffffffffffffffffffffffffffff021916908373ffffffffffffffffffffffffffffffffffffffff16021790555050505050505050565b60015481565b60018081111561149a577f4e487b7100000000000000000000000000000000000000000000000000000000600052602160045260246000fd5b6114a261054f565b60018111156114da577f4e487b7100000000000000000000000000000000000000000000000000000000600052602160045260246000fd5b1461151a576040517f08c379a00000000000000000000000000000000000000000000000000000000081526004016115119061345c565b60405180910390fd5b61152333611024565b611562576040517f08c379a0000000000000000000000000000000000000000000000000000000008152600401611559906133bc565b60405180910390fd5b60008073ffffffffffffffffffffffffffffffffffffffff166003600061158761107e565b815260200190815260200160002060008573ffffffffffffffffffffffffffffffffffffffff1673ffffffffffffffffffffffffffffffffffffffff16815260200190815260200160002060020160009054906101000a900473ffffffffffffffffffffffffffffffffffffffff1673ffffffffffffffffffffffffffffffffffffffff16141561164d576040517f08c379a0000000000000000000000000000000000000000000000000000000008152600401611644906133fc565b60405180910390fd5b81600260003373ffffffffffffffffffffffffffffffffffffffff1673ffffffffffffffffffffffffffffffffffffffff168152602001908152602001600020600001600082825461169f91906136ac565b9250508190555082600260003373ffffffffffffffffffffffffffffffffffffffff1673ffffffffffffffffffffffffffffffffffffffff168152602001908152602001600020600201600260003373ffffffffffffffffffffffffffffffffffffffff1673ffffffffffffffffffffffffffffffffffffffff1681526020019081526020016000206002018054905081548110611766577f4e487b7100000000000000000000000000000000000000000000000000000000600052603260045260246000fd5b9060005260206000200160006101000a81548173ffffffffffffffffffffffffffffffffffffffff021916908373ffffffffffffffffffffffffffffffffffffffff16021790555081600360006117bb61107e565b815260200190815260200160002060008573ffffffffffffffffffffffffffffffffffffffff1673ffffffffffffffffffffffffffffffffffffffff168152602001908152602001600020600101600082825461181891906135cb565b92505081905550505050565b60065481565b60006118587f0000000000000000000000000000000000000000000000000000000000000000333085612741565b600061186261107e565b90508260056000838152602001908152602001600020600201600082825461188a91906135cb565b9250508190555082600660008282546118a391906135cb565b92505081905550600060018111156118e4577f4e487b7100000000000000000000000000000000000000000000000000000000600052602160045260246000fd5b6118ec61054f565b6001811115611924577f4e487b7100000000000000000000000000000000000000000000000000000000600052602160045260246000fd5b14801561195157507f00000000000000000000000000000000000000000000000000000000000000008310155b15611b1a5761195f33611024565b611a4b576001600860003373ffffffffffffffffffffffffffffffffffffffff1673ffffffffffffffffffffffffffffffffffffffff16815260200190815260200160002060006101000a81548160ff02191690831515021790555080600260003373ffffffffffffffffffffffffffffffffffffffff1673ffffffffffffffffffffffffffffffffffffffff168152602001908152602001600020600101819055506000600260003373ffffffffffffffffffffffffffffffffffffffff1673ffffffffffffffffffffffffffffffffffffffff168152602001908152602001600020600001819055505b7f000000000000000000000000000000000000000000000000000000000000000083611a779190613621565b600260003373ffffffffffffffffffffffffffffffffffffffff1673ffffffffffffffffffffffffffffffffffffffff1681526020019081526020016000206000016000828254611ac891906135cb565b92505081905550600260003373ffffffffffffffffffffffffffffffffffffffff1673ffffffffffffffffffffffffffffffffffffffff16815260200190815260200160002060000154915050611b38565b60096000815480929190611b2d906137f2565b919050555060009150505b919050565b60606000611b4961107e565b9050600060046000838152602001908152602001600020805480602002602001604051908101604052809291908181526020018280548015611be057602002820191906000526020600020905b8160009054906101000a900473ffffffffffffffffffffffffffffffffffffffff1673ffffffffffffffffffffffffffffffffffffffff1681526020019060010190808311611b96575b505050505090506000815167ffffffffffffffff811115611c2a577f4e487b7100000000000000000000000000000000000000000000000000000000600052604160045260246000fd5b604051908082528060200260200182016040528015611c6357816020015b611c50612ad1565b815260200190600190039081611c485790505b50905060005b8251811015611e5657600360008581526020019081526020016000206000848381518110611cc0577f4e487b7100000000000000000000000000000000000000000000000000000000600052603260045260246000fd5b602002602001015173ffffffffffffffffffffffffffffffffffffffff1673ffffffffffffffffffffffffffffffffffffffff168152602001908152602001600020604051806060016040529081600082018054611d1d9061378f565b80601f0160208091040260200160405190810160405280929190818152602001828054611d499061378f565b8015611d965780601f10611d6b57610100808354040283529160200191611d96565b820191906000526020600020905b815481529060010190602001808311611d7957829003601f168201915b50505050508152602001600182015481526020016002820160009054906101000a900473ffffffffffffffffffffffffffffffffffffffff1673ffffffffffffffffffffffffffffffffffffffff1673ffffffffffffffffffffffffffffffffffffffff1681525050828281518110611e38577f4e487b7100000000000000000000000000000000000000000000000000000000600052603260045260246000fd5b60200260200101819052508080611e4e906137f2565b915050611c69565b5080935050505090565b7f000000000000000000000000000000000000000000000000000000000000000081565b6060600080600080600090505b6004600087815260200190815260200160002080549050811015611ff7576000600460008881526020019081526020016000208281548110611efc577f4e487b7100000000000000000000000000000000000000000000000000000000600052603260045260246000fd5b9060005260206000200160009054906101000a900473ffffffffffffffffffffffffffffffffffffffff16905060006003600089815260200190815260200160002060008373ffffffffffffffffffffffffffffffffffffffff1673ffffffffffffffffffffffffffffffffffffffff16815260200190815260200160002060010154905085811415611f8e57611fe2565b85811115611fa457849350859450809550611fe1565b84811415611fb157611fe0565b84811115611fc457849350809450611fdf565b83811415611fd157611fde565b83811115611fdd578093505b5b5b5b5b5b50508080611fef906137f2565b915050611e91565b506000600a67ffffffffffffffff81111561203b577f4e487b7100000000000000000000000000000000000000000000000000000000600052604160045260246000fd5b6040519080825280602002602001820160405280156120695781602001602082028036833780820191505090505b509050600080600a67ffffffffffffffff8111156120b0577f4e487b7100000000000000000000000000000000000000000000000000000000600052604160045260246000fd5b6040519080825280602002602001820160405280156120de5781602001602082028036833780820191505090505b509050600080600a67ffffffffffffffff811115612125577f4e487b7100000000000000000000000000000000000000000000000000000000600052604160045260246000fd5b6040519080825280602002602001820160405280156121535781602001602082028036833780820191505090505b509050600080600090505b600460008d81526020019081526020016000208054905081101561240e576000600460008e815260200190815260200160002082815481106121c9577f4e487b7100000000000000000000000000000000000000000000000000000000600052603260045260246000fd5b9060005260206000200160009054906101000a900473ffffffffffffffffffffffffffffffffffffffff1690506000600360008f815260200190815260200160002060008373ffffffffffffffffffffffffffffffffffffffff1673ffffffffffffffffffffffffffffffffffffffff1681526020019081526020016000206001015490508b8114156122dd5781898981518110612290577f4e487b7100000000000000000000000000000000000000000000000000000000600052603260045260246000fd5b602002602001019073ffffffffffffffffffffffffffffffffffffffff16908173ffffffffffffffffffffffffffffffffffffffff168152505087806122d5906137f2565b9850506123f9565b8a81141561236c578187878151811061231f577f4e487b7100000000000000000000000000000000000000000000000000000000600052603260045260246000fd5b602002602001019073ffffffffffffffffffffffffffffffffffffffff16908173ffffffffffffffffffffffffffffffffffffffff16815250508580612364906137f2565b9650506123f8565b898114156123f757818585815181106123ae577f4e487b7100000000000000000000000000000000000000000000000000000000600052603260045260246000fd5b602002602001019073ffffffffffffffffffffffffffffffffffffffff16908173ffffffffffffffffffffffffffffffffffffffff168152505083806123f3906137f2565b9450505b5b5b50508080612406906137f2565b91505061215e565b506000601e67ffffffffffffffff811115612452577f4e487b7100000000000000000000000000000000000000000000000000000000600052604160045260246000fd5b6040519080825280602002602001820160405280156124805781602001602082028036833780820191505090505b509050600080600090505b600a811015612569578881815181106124cd577f4e487b7100000000000000000000000000000000000000000000000000000000600052603260045260246000fd5b602002602001015183838151811061250e577f4e487b7100000000000000000000000000000000000000000000000000000000600052603260045260246000fd5b602002602001019073ffffffffffffffffffffffffffffffffffffffff16908173ffffffffffffffffffffffffffffffffffffffff16815250508180612553906137f2565b9250508080612561906137f2565b91505061248b565b5060005b600a81101561264b578681815181106125af577f4e487b7100000000000000000000000000000000000000000000000000000000600052603260045260246000fd5b60200260200101518383815181106125f0577f4e487b7100000000000000000000000000000000000000000000000000000000600052603260045260246000fd5b602002602001019073ffffffffffffffffffffffffffffffffffffffff16908173ffffffffffffffffffffffffffffffffffffffff16815250508180612635906137f2565b9250508080612643906137f2565b91505061256d565b5060005b600a81101561272d57848181518110612691577f4e487b7100000000000000000000000000000000000000000000000000000000600052603260045260246000fd5b60200260200101518383815181106126d2577f4e487b7100000000000000000000000000000000000000000000000000000000600052603260045260246000fd5b602002602001019073ffffffffffffffffffffffffffffffffffffffff16908173ffffffffffffffffffffffffffffffffffffffff16815250508180612717906137f2565b9250508080612725906137f2565b91505061264f565b50819b505050505050505050505050919050565b6127c4846323b872dd60e01b85858560405160240161276293929190613202565b604051602081830303815290604052907bffffffffffffffffffffffffffffffffffffffffffffffffffffffff19166020820180517bffffffffffffffffffffffffffffffffffffffffffffffffffffffff83818316178352505050506127ca565b50505050565b600061282c826040518060400160405280602081526020017f5361666545524332303a206c6f772d6c6576656c2063616c6c206661696c65648152508573ffffffffffffffffffffffffffffffffffffffff166128919092919063ffffffff16565b905060008151111561288c578080602001905181019061284c9190612ccc565b61288b576040517f08c379a00000000000000000000000000000000000000000000000000000000081526004016128829061343c565b60405180910390fd5b5b505050565b60606128a084846000856128a9565b90509392505050565b6060824710156128ee576040517f08c379a00000000000000000000000000000000000000000000000000000000081526004016128e59061337c565b60405180910390fd5b6128f7856129bd565b612936576040517f08c379a000000000000000000000000000000000000000000000000000000000815260040161292d9061341c565b60405180910390fd5b6000808673ffffffffffffffffffffffffffffffffffffffff16858760405161295f91906131d0565b60006040518083038185875af1925050503d806000811461299c576040519150601f19603f3d011682016040523d82523d6000602084013e6129a1565b606091505b50915091506129b18282866129e0565b92505050949350505050565b6000808273ffffffffffffffffffffffffffffffffffffffff163b119050919050565b606083156129f057829050612a40565b600083511115612a035782518084602001fd5b816040517f08c379a0000000000000000000000000000000000000000000000000000000008152600401612a3791906132dc565b60405180910390fd5b9392505050565b828054828255906000526020600020908101928215612ac0579160200282015b82811115612abf5782518260006101000a81548173ffffffffffffffffffffffffffffffffffffffff021916908373ffffffffffffffffffffffffffffffffffffffff16021790555091602001919060010190612a67565b5b509050612acd9190612b8e565b5090565b60405180606001604052806060815260200160008152602001600073ffffffffffffffffffffffffffffffffffffffff1681525090565b828054612b149061378f565b90600052602060002090601f016020900481019282612b365760008555612b7d565b82601f10612b4f57805160ff1916838001178555612b7d565b82800160010185558215612b7d579182015b82811115612b7c578251825591602001919060010190612b61565b5b509050612b8a9190612b8e565b5090565b5b80821115612ba7576000816000905550600101612b8f565b5090565b6000612bbe612bb9846134e5565b6134c0565b905082815260208101848484011115612bd657600080fd5b612be184828561374d565b509392505050565b600081359050612bf881613bfa565b92915050565b600081519050612c0d81613c11565b92915050565b600082601f830112612c2457600080fd5b8135612c34848260208601612bab565b91505092915050565b600081359050612c4c81613c28565b92915050565b600081519050612c6181613c28565b92915050565b600060208284031215612c7957600080fd5b6000612c8784828501612be9565b91505092915050565b60008060408385031215612ca357600080fd5b6000612cb185828601612be9565b9250506020612cc285828601612c3d565b9150509250929050565b600060208284031215612cde57600080fd5b6000612cec84828501612bfe565b91505092915050565b600080600060608486031215612d0a57600080fd5b600084013567ffffffffffffffff811115612d2457600080fd5b612d3086828701612c13565b9350506020612d4186828701612be9565b9250506040612d5286828701612be9565b9150509250925092565b600060208284031215612d6e57600080fd5b6000612d7c84828501612c3d565b91505092915050565b600060208284031215612d9757600080fd5b6000612da584828501612c52565b91505092915050565b60008060408385031215612dc157600080fd5b6000612dcf85828601612c3d565b9250506020612de085828601612be9565b9150509250929050565b60008060408385031215612dfd57600080fd5b6000612e0b85828601612c3d565b9250506020612e1c85828601612c3d565b9150509250929050565b6000612e328383612e52565b60208301905092915050565b6000612e4a8383613162565b905092915050565b612e5b816136e0565b82525050565b612e6a816136e0565b82525050565b6000612e7b82613536565b612e85818561357c565b9350612e9083613516565b8060005b83811015612ec1578151612ea88882612e26565b9750612eb383613562565b925050600181019050612e94565b5085935050505092915050565b6000612ed982613541565b612ee3818561358d565b935083602082028501612ef585613526565b8060005b85811015612f315784840389528151612f128582612e3e565b9450612f1d8361356f565b925060208a01995050600181019050612ef9565b50829750879550505050505092915050565b612f4c816136f2565b82525050565b6000612f5d8261354c565b612f67818561359e565b9350612f7781856020860161375c565b80840191505092915050565b612f8c8161373b565b82525050565b6000612f9d82613557565b612fa781856135a9565b9350612fb781856020860161375c565b612fc081613957565b840191505092915050565b6000612fd682613557565b612fe081856135ba565b9350612ff081856020860161375c565b612ff981613957565b840191505092915050565b60006130116023836135ba565b915061301c82613968565b604082019050919050565b6000613034602f836135ba565b915061303f826139b7565b604082019050919050565b60006130576026836135ba565b915061306282613a06565b604082019050919050565b600061307a601e836135ba565b915061308582613a55565b602082019050919050565b600061309d6017836135ba565b91506130a882613a7e565b602082019050919050565b60006130c06026836135ba565b91506130cb82613aa7565b604082019050919050565b60006130e3602d836135ba565b91506130ee82613af6565b604082019050919050565b6000613106601d836135ba565b915061311182613b45565b602082019050919050565b6000613129602a836135ba565b915061313482613b6e565b604082019050919050565b600061314c601f836135ba565b915061315782613bbd565b602082019050919050565b6000606083016000830151848203600086015261317f8282612f92565b915050602083015161319460208601826131b2565b5060408301516131a76040860182612e52565b508091505092915050565b6131bb81613731565b82525050565b6131ca81613731565b82525050565b60006131dc8284612f52565b915081905092915050565b60006020820190506131fc6000830184612e61565b92915050565b60006060820190506132176000830186612e61565b6132246020830185612e61565b61323160408301846131c1565b949350505050565b600060208201905081810360008301526132538184612e70565b905092915050565b600060208201905081810360008301526132758184612ece565b905092915050565b60006020820190506132926000830184612f43565b92915050565b60006040820190506132ad6000830185612f43565b6132ba60208301846131c1565b9392505050565b60006020820190506132d66000830184612f83565b92915050565b600060208201905081810360008301526132f68184612fcb565b905092915050565b600060608201905081810360008301526133188186612fcb565b905061332760208301856131c1565b6133346040830184612e61565b949350505050565b6000602082019050818103600083015261335581613004565b9050919050565b6000602082019050818103600083015261337581613027565b9050919050565b600060208201905081810360008301526133958161304a565b9050919050565b600060208201905081810360008301526133b58161306d565b9050919050565b600060208201905081810360008301526133d581613090565b9050919050565b600060208201905081810360008301526133f5816130b3565b9050919050565b60006020820190508181036000830152613415816130d6565b9050919050565b60006020820190508181036000830152613435816130f9565b9050919050565b600060208201905081810360008301526134558161311c565b9050919050565b600060208201905081810360008301526134758161313f565b9050919050565b600060208201905061349160008301846131c1565b92915050565b60006040820190506134ac60008301856131c1565b6134b960208301846131c1565b9392505050565b60006134ca6134db565b90506134d682826137c1565b919050565b6000604051905090565b600067ffffffffffffffff821115613500576134ff613928565b5b61350982613957565b9050602081019050919050565b6000819050602082019050919050565b6000819050602082019050919050565b600081519050919050565b600081519050919050565b600081519050919050565b600081519050919050565b6000602082019050919050565b6000602082019050919050565b600082825260208201905092915050565b600082825260208201905092915050565b600081905092915050565b600082825260208201905092915050565b600082825260208201905092915050565b60006135d682613731565b91506135e183613731565b9250827fffffffffffffffffffffffffffffffffffffffffffffffffffffffffffffffff038211156136165761361561386c565b5b828201905092915050565b600061362c82613731565b915061363783613731565b9250826136475761364661389b565b5b828204905092915050565b600061365d82613731565b915061366883613731565b9250817fffffffffffffffffffffffffffffffffffffffffffffffffffffffffffffffff04831182151516156136a1576136a061386c565b5b828202905092915050565b60006136b782613731565b91506136c283613731565b9250828210156136d5576136d461386c565b5b828203905092915050565b60006136eb82613711565b9050919050565b60008115159050919050565b600081905061370c82613be6565b919050565b600073ffffffffffffffffffffffffffffffffffffffff82169050919050565b6000819050919050565b6000613746826136fe565b9050919050565b82818337600083830152505050565b60005b8381101561377a57808201518184015260208101905061375f565b83811115613789576000848401525b50505050565b600060028204905060018216806137a757607f821691505b602082108114156137bb576137ba6138f9565b5b50919050565b6137ca82613957565b810181811067ffffffffffffffff821117156137e9576137e8613928565b5b80604052505050565b60006137fd82613731565b91507fffffffffffffffffffffffffffffffffffffffffffffffffffffffffffffffff8214156138305761382f61386c565b5b600182019050919050565b600061384682613731565b915061385183613731565b9250826138615761386061389b565b5b828206905092915050565b7f4e487b7100000000000000000000000000000000000000000000000000000000600052601160045260246000fd5b7f4e487b7100000000000000000000000000000000000000000000000000000000600052601260045260246000fd5b7f4e487b7100000000000000000000000000000000000000000000000000000000600052602160045260246000fd5b7f4e487b7100000000000000000000000000000000000000000000000000000000600052602260045260246000fd5b7f4e487b7100000000000000000000000000000000000000000000000000000000600052604160045260246000fd5b6000601f19601f8301169050919050565b7f50726f706f73616c732061726520636c6f73656420666f72207468697320726f60008201527f756e640000000000000000000000000000000000000000000000000000000000602082015250565b7f446f6e6174696f6e7320666f72207468697320726f756e64206861766520616c60008201527f7265616479206265656e2073656e740000000000000000000000000000000000602082015250565b7f416464726573733a20696e73756666696369656e742062616c616e636520666f60008201527f722063616c6c0000000000000000000000000000000000000000000000000000602082015250565b7f5468697320726f756e64206973206e6f742066696e6973686564207965740000600082015250565b7f41646472657373206973206e6f742061206d656d626572000000000000000000600082015250565b7f546869732070726f6a6563742068617320616c7265616479206265656e20737560008201527f626d697465640000000000000000000000000000000000000000000000000000602082015250565b7f546869732070726f6a656374206973206e6f742070617274206f66207468652060008201527f63757272656e7420726f756e6400000000000000000000000000000000000000602082015250565b7f416464726573733a2063616c6c20746f206e6f6e2d636f6e7472616374000000600082015250565b7f5361666545524332303a204552433230206f7065726174696f6e20646964206e60008201527f6f74207375636365656400000000000000000000000000000000000000000000602082015250565b7f566f74696e67207068617365206973206e6f7420796574207374617274656400600082015250565b60028110613bf757613bf66138ca565b5b50565b613c03816136e0565b8114613c0e57600080fd5b50565b613c1a816136f2565b8114613c2557600080fd5b50565b613c3181613731565b8114613c3c57600080fd5b5056fea2646970667358221220f899bd5e23be997c613bf15ee1d32c94b8bfd1fec3b6c8cd8e0105b39972328964736f6c63430008040033",
  "linkReferences": {},
  "deployedLinkReferences": {}
}