{
  "_format": "hh-sol-artifact-1",
  "contractName": "GreenDAO",
  "sourceName": "contracts/GreenDAO.sol",
  "abi": [
    {
      "inputs": [
        {
          "internalType": "address",
          "name": "_token",
          "type": "address"
        },
        {
          "internalType": "uint256",
          "name": "_pricePerVote",
          "type": "uint256"
        }
      ],
      "stateMutability": "nonpayable",
      "type": "constructor"
    },
    {
      "inputs": [
        {
          "internalType": "address",
          "name": "",
          "type": "address"
        }
      ],
      "name": "DAOMembers",
      "outputs": [
        {
          "internalType": "bool",
          "name": "",
          "type": "bool"
        }
      ],
      "stateMutability": "view",
      "type": "function"
    },
    {
      "inputs": [],
      "name": "PROPOSAL_DURATION",
      "outputs": [
        {
          "internalType": "uint256",
          "name": "",
          "type": "uint256"
        }
      ],
      "stateMutability": "view",
      "type": "function"
    },
    {
      "inputs": [],
      "name": "ROUND_DURATION",
      "outputs": [
        {
          "internalType": "uint256",
          "name": "",
          "type": "uint256"
        }
      ],
      "stateMutability": "view",
      "type": "function"
    },
    {
      "inputs": [
        {
          "internalType": "string",
          "name": "_data",
          "type": "string"
        },
        {
          "internalType": "address",
          "name": "_proposedRecipient",
          "type": "address"
        }
      ],
      "name": "addProject",
      "outputs": [],
      "stateMutability": "nonpayable",
      "type": "function"
    },
    {
      "inputs": [],
      "name": "anonymousDonations",
      "outputs": [
        {
          "internalType": "uint256",
          "name": "",
          "type": "uint256"
        }
      ],
      "stateMutability": "view",
      "type": "function"
    },
    {
      "inputs": [
        {
          "internalType": "uint256",
          "name": "roundId",
          "type": "uint256"
        }
      ],
      "name": "distributeToProjects",
      "outputs": [],
      "stateMutability": "nonpayable",
      "type": "function"
    },
    {
      "inputs": [],
      "name": "distributeToProjects",
      "outputs": [],
      "stateMutability": "nonpayable",
      "type": "function"
    },
    {
      "inputs": [
        {
          "internalType": "uint256",
          "name": "amount",
          "type": "uint256"
        }
      ],
      "name": "donate",
      "outputs": [
        {
          "internalType": "uint256",
          "name": "",
          "type": "uint256"
        }
      ],
      "stateMutability": "nonpayable",
      "type": "function"
    },
    {
      "inputs": [],
      "name": "getCurrentProjects",
      "outputs": [
        {
          "components": [
            {
              "internalType": "string",
              "name": "data",
              "type": "string"
            },
            {
              "internalType": "uint256",
              "name": "votes",
              "type": "uint256"
            },
            {
              "internalType": "address",
              "name": "proposedBy",
              "type": "address"
            }
          ],
          "internalType": "struct GreenDAO.Project[]",
          "name": "",
          "type": "tuple[]"
        }
      ],
      "stateMutability": "view",
      "type": "function"
    },
    {
      "inputs": [],
      "name": "getCurrentRound",
      "outputs": [
        {
          "internalType": "uint256",
          "name": "",
          "type": "uint256"
        }
      ],
      "stateMutability": "view",
      "type": "function"
    },
    {
      "inputs": [],
      "name": "getCurrentRoundStatus",
      "outputs": [
        {
          "internalType": "enum GreenDAO.RoundStatus",
          "name": "",
          "type": "uint8"
        }
      ],
      "stateMutability": "view",
      "type": "function"
    },
    {
      "inputs": [],
      "name": "getLastWinners",
      "outputs": [
        {
          "components": [
            {
              "internalType": "string",
              "name": "data",
              "type": "string"
            },
            {
              "internalType": "uint256",
              "name": "votes",
              "type": "uint256"
            },
            {
              "internalType": "address",
              "name": "proposedBy",
              "type": "address"
            }
          ],
          "internalType": "struct GreenDAO.Project[]",
          "name": "",
          "type": "tuple[]"
        }
      ],
      "stateMutability": "view",
      "type": "function"
    },
    {
      "inputs": [
        {
          "internalType": "address",
          "name": "user",
          "type": "address"
        }
      ],
      "name": "getMemberRemainingVotes",
      "outputs": [
        {
          "internalType": "uint256",
          "name": "",
          "type": "uint256"
        }
      ],
      "stateMutability": "view",
      "type": "function"
    },
    {
      "inputs": [
        {
          "internalType": "address",
          "name": "user",
          "type": "address"
        }
      ],
      "name": "getMembersLastVotes",
      "outputs": [
        {
          "internalType": "address[]",
          "name": "",
          "type": "address[]"
        }
      ],
      "stateMutability": "view",
      "type": "function"
    },
    {
      "inputs": [
        {
          "internalType": "address",
          "name": "user",
          "type": "address"
        }
      ],
      "name": "isMember",
      "outputs": [
        {
          "internalType": "bool",
          "name": "",
          "type": "bool"
        }
      ],
      "stateMutability": "view",
      "type": "function"
    },
    {
      "inputs": [
        {
          "internalType": "address",
          "name": "",
          "type": "address"
        }
      ],
      "name": "members",
      "outputs": [
        {
          "internalType": "uint256",
          "name": "votes",
          "type": "uint256"
        },
        {
          "internalType": "uint256",
          "name": "lastRoundPaid",
          "type": "uint256"
        }
      ],
      "stateMutability": "view",
      "type": "function"
    },
    {
      "inputs": [],
      "name": "pricePerVote",
      "outputs": [
        {
          "internalType": "uint256",
          "name": "",
          "type": "uint256"
        }
      ],
      "stateMutability": "view",
      "type": "function"
    },
    {
      "inputs": [
        {
          "internalType": "uint256",
          "name": "",
          "type": "uint256"
        },
        {
          "internalType": "address",
          "name": "",
          "type": "address"
        }
      ],
      "name": "projects",
      "outputs": [
        {
          "internalType": "string",
          "name": "data",
          "type": "string"
        },
        {
          "internalType": "uint256",
          "name": "votes",
          "type": "uint256"
        },
        {
          "internalType": "address",
          "name": "proposedBy",
          "type": "address"
        }
      ],
      "stateMutability": "view",
      "type": "function"
    },
    {
      "inputs": [
        {
          "internalType": "uint256",
          "name": "",
          "type": "uint256"
        },
        {
          "internalType": "uint256",
          "name": "",
          "type": "uint256"
        }
      ],
      "name": "projectsPerRound",
      "outputs": [
        {
          "internalType": "address",
          "name": "",
          "type": "address"
        }
      ],
      "stateMutability": "view",
      "type": "function"
    },
    {
      "inputs": [
        {
          "internalType": "uint256",
          "name": "",
          "type": "uint256"
        }
      ],
      "name": "rounds",
      "outputs": [
        {
          "internalType": "bool",
          "name": "hasBeenPaid",
          "type": "bool"
        },
        {
          "internalType": "uint256",
          "name": "balance",
          "type": "uint256"
        }
      ],
      "stateMutability": "view",
      "type": "function"
    },
    {
      "inputs": [],
      "name": "start",
      "outputs": [
        {
          "internalType": "uint256",
          "name": "",
          "type": "uint256"
        }
      ],
      "stateMutability": "view",
      "type": "function"
    },
    {
      "inputs": [],
      "name": "token",
      "outputs": [
        {
          "internalType": "address",
          "name": "",
          "type": "address"
        }
      ],
      "stateMutability": "view",
      "type": "function"
    },
    {
      "inputs": [],
      "name": "totalCollected",
      "outputs": [
        {
          "internalType": "uint256",
          "name": "",
          "type": "uint256"
        }
      ],
      "stateMutability": "view",
      "type": "function"
    },
    {
      "inputs": [],
      "name": "totalPaidProjects",
      "outputs": [
        {
          "internalType": "uint256",
          "name": "",
          "type": "uint256"
        }
      ],
      "stateMutability": "view",
      "type": "function"
    },
    {
      "inputs": [
        {
          "internalType": "address",
          "name": "projectAddress",
          "type": "address"
        },
        {
          "internalType": "uint256",
          "name": "nbOfVote",
          "type": "uint256"
        }
      ],
      "name": "voteForProject",
      "outputs": [],
      "stateMutability": "nonpayable",
      "type": "function"
    }
  ],
  "bytecode": "0x60c06040523480156200001157600080fd5b506040516200407f3803806200407f8339818101604052810190620000379190620001de565b336000806101000a81548173ffffffffffffffffffffffffffffffffffffffff021916908373ffffffffffffffffffffffffffffffffffffffff160217905550426001819055508173ffffffffffffffffffffffffffffffffffffffff1660808173ffffffffffffffffffffffffffffffffffffffff1660601b815250508173ffffffffffffffffffffffffffffffffffffffff1663313ce5676040518163ffffffff1660e01b815260040160206040518083038186803b158015620000fc57600080fd5b505afa15801562000111573d6000803e3d6000fd5b505050506040513d601f19601f820116820180604052508101906200013791906200021f565b600a62000145919062000300565b811162000189576040517f08c379a0000000000000000000000000000000000000000000000000000000008152600401620001809062000272565b60405180910390fd5b8060a0818152505050506200053b565b600081519050620001aa81620004ed565b92915050565b600081519050620001c18162000507565b92915050565b600081519050620001d88162000521565b92915050565b60008060408385031215620001f257600080fd5b6000620002028582860162000199565b92505060206200021585828601620001b0565b9150509250929050565b6000602082840312156200023257600080fd5b60006200024284828501620001c7565b91505092915050565b60006200025a60168362000294565b91506200026782620004c4565b602082019050919050565b600060208201905081810360008301526200028d816200024b565b9050919050565b600082825260208201905092915050565b6000808291508390505b6001851115620002f757808604811115620002cf57620002ce62000488565b5b6001851615620002df5780820291505b8081029050620002ef85620004b7565b9450620002af565b94509492505050565b60006200030d8262000471565b91506200031a836200047b565b9250620003497fffffffffffffffffffffffffffffffffffffffffffffffffffffffffffffffff848462000351565b905092915050565b60008262000363576001905062000436565b8162000373576000905062000436565b81600181146200038c57600281146200039757620003cd565b600191505062000436565b60ff841115620003ac57620003ab62000488565b5b8360020a915084821115620003c657620003c562000488565b5b5062000436565b5060208310610133831016604e8410600b8410161715620004075782820a90508381111562000401576200040062000488565b5b62000436565b620004168484846001620002a5565b9250905081840481111562000430576200042f62000488565b5b81810290505b9392505050565b60006200044a8262000451565b9050919050565b600073ffffffffffffffffffffffffffffffffffffffff82169050919050565b6000819050919050565b600060ff82169050919050565b7f4e487b7100000000000000000000000000000000000000000000000000000000600052601160045260246000fd5b60008160011c9050919050565b7f50726963652070657220766f746520746f6f206c6f7700000000000000000000600082015250565b620004f8816200043d565b81146200050457600080fd5b50565b620005128162000471565b81146200051e57600080fd5b50565b6200052c816200047b565b81146200053857600080fd5b50565b60805160601c60a051613aff62000580600039600081816105570152818161180901526119280152600081816108590152818161170c0152611d3d0152613aff6000f3fe608060405234801561001057600080fd5b50600436106101735760003560e01c80637f097010116100de578063be9a655511610097578063e29eb83611610071578063e29eb83614610468578063f14faf6f14610486578063f2645e37146104b6578063fc0c546a146104d457610173565b8063be9a655514610412578063bf65a9df14610430578063cc90e7251461044c57610173565b80637f09701014610339578063871e5d73146103575780638c65c81f1461037557806395690936146103a6578063a230c524146103c4578063a32bf597146103f457610173565b806360f85f3d1161013057806360f85f3d146102635780636641ea081461026d57806368ef87901461028b5780636cf3c7ef146102a95780636da1a9f8146102d95780637c610a5f1461030957610173565b806308ae4b0c146101785780630d31d835146101a957806315df7700146101c757806329a8b19f146101e5578063330b4ab214610201578063534797a014610231575b600080fd5b610192600480360381019061018d9190612b2d565b6104f2565b6040516101a0929190613321565b60405180910390f35b6101b1610516565b6040516101be919061314b565b60405180910390f35b6101cf610555565b6040516101dc9190613306565b60405180910390f35b6101ff60048036038101906101fa9190612c0f565b610579565b005b61021b60048036038101906102169190612c74565b61089c565b6040516102289190613071565b60405180910390f35b61024b60048036038101906102469190612c38565b6108ea565b60405161025a93929190613188565b60405180910390f35b61026b6109c9565b005b6102756109e7565b6040516102829190613306565b60405180910390f35b6102936109ee565b6040516102a09190613306565b60405180910390f35b6102c360048036038101906102be9190612b2d565b6109f4565b6040516102d09190613306565b60405180910390f35b6102f360048036038101906102ee9190612b2d565b610a88565b6040516103009190613107565b60405180910390f35b610323600480360381019061031e9190612b2d565b610aa8565b60405161033091906130c3565b60405180910390f35b610341610bc6565b60405161034e9190613306565b60405180910390f35b61035f610bcd565b60405161036c9190613306565b60405180910390f35b61038f600480360381019061038a9190612c0f565b610bd3565b60405161039d929190613122565b60405180910390f35b6103ae610c04565b6040516103bb91906130e5565b60405180910390f35b6103de60048036038101906103d99190612b2d565b610f36565b6040516103eb9190613107565b60405180910390f35b6103fc610f90565b6040516104099190613306565b60405180910390f35b61041a610fc4565b6040516104279190613306565b60405180910390f35b61044a60048036038101906104459190612b56565b610fca565b005b61046660048036038101906104619190612bbb565b61138a565b005b6104706116ff565b60405161047d9190613306565b60405180910390f35b6104a0600480360381019061049b9190612c0f565b611705565b6040516104ad9190613306565b60405180910390f35b6104be611a18565b6040516104cb91906130e5565b60405180910390f35b6104dc611d3b565b6040516104e99190613071565b60405180910390f35b60026020528060005260406000206000915090508060000154908060010154905082565b600080600154426105279190613536565b9050621baf806224ea008261053c91906136c5565b101561054c576000915050610552565b60019150505b90565b7f000000000000000000000000000000000000000000000000000000000000000081565b6005600082815260200190815260200160002060000160009054906101000a900460ff16156105dd576040517f08c379a00000000000000000000000000000000000000000000000000000000081526004016105d4906131e6565b60405180910390fd5b6105e5610f90565b811415610627576040517f08c379a000000000000000000000000000000000000000000000000000000000815260040161061e90613226565b60405180910390fd5b60016005600083815260200190815260200160002060000160006101000a81548160ff021916908315150217905550600061066182611d5f565b90508060056000848152602001908152602001600020600101908051906020019061068d929190612922565b508051600760008282546106a19190613455565b92505081905550600080600090505b82518110156107795760008382815181106106f4577f4e487b7100000000000000000000000000000000000000000000000000000000600052603260045260246000fd5b6020026020010151905060006003600087815260200190815260200160002060008373ffffffffffffffffffffffffffffffffffffffff1673ffffffffffffffffffffffffffffffffffffffff16815260200190815260200160002060010154905080846107629190613455565b9350505080806107719061367c565b9150506106b0565b5060005b82518110156108965760008382815181106107c1577f4e487b7100000000000000000000000000000000000000000000000000000000600052603260045260246000fd5b6020026020010151905060006003600087815260200190815260200160002060008373ffffffffffffffffffffffffffffffffffffffff1673ffffffffffffffffffffffffffffffffffffffff1681526020019081526020016000206001015490506000848261083191906134ab565b600560008981526020019081526020016000206002015461085291906134dc565b90506108807f000000000000000000000000000000000000000000000000000000000000000030858461261c565b505050808061088e9061367c565b91505061077d565b50505050565b600460205281600052604060002081815481106108b857600080fd5b906000526020600020016000915091509054906101000a900473ffffffffffffffffffffffffffffffffffffffff1681565b60036020528160005260406000206020528060005260406000206000915091505080600001805461091a90613619565b80601f016020809104026020016040519081016040528092919081815260200182805461094690613619565b80156109935780601f1061096857610100808354040283529160200191610993565b820191906000526020600020905b81548152906001019060200180831161097657829003601f168201915b5050505050908060010154908060020160009054906101000a900473ffffffffffffffffffffffffffffffffffffffff16905083565b6109e560016109d6610f90565b6109e09190613536565b610579565b565b6224ea0081565b60095481565b60006109ff82610f36565b610a3e576040517f08c379a0000000000000000000000000000000000000000000000000000000008152600401610a3590613246565b60405180910390fd5b600260008373ffffffffffffffffffffffffffffffffffffffff1673ffffffffffffffffffffffffffffffffffffffff168152602001908152602001600020600001549050919050565b60086020528060005260406000206000915054906101000a900460ff1681565b6060610ab382610f36565b610af2576040517f08c379a0000000000000000000000000000000000000000000000000000000008152600401610ae990613246565b60405180910390fd5b6000600260008473ffffffffffffffffffffffffffffffffffffffff1673ffffffffffffffffffffffffffffffffffffffff168152602001908152602001600020600201805480602002602001604051908101604052809291908181526020018280548015610bb657602002820191906000526020600020905b8160009054906101000a900473ffffffffffffffffffffffffffffffffffffffff1673ffffffffffffffffffffffffffffffffffffffff1681526020019060010190808311610b6c575b5050505050905080915050919050565b621baf8081565b60075481565b60056020528060005260406000206000915090508060000160009054906101000a900460ff16908060020154905082565b606060006001610c12610f90565b610c1c9190613536565b9050600060056000838152602001908152602001600020600101805480602002602001604051908101604052809291908181526020018280548015610cb657602002820191906000526020600020905b8160009054906101000a900473ffffffffffffffffffffffffffffffffffffffff1673ffffffffffffffffffffffffffffffffffffffff1681526020019060010190808311610c6c575b505050505090506000815167ffffffffffffffff811115610d00577f4e487b7100000000000000000000000000000000000000000000000000000000600052604160045260246000fd5b604051908082528060200260200182016040528015610d3957816020015b610d266129ac565b815260200190600190039081610d1e5790505b50905060005b8251811015610f2c57600360008581526020019081526020016000206000848381518110610d96577f4e487b7100000000000000000000000000000000000000000000000000000000600052603260045260246000fd5b602002602001015173ffffffffffffffffffffffffffffffffffffffff1673ffffffffffffffffffffffffffffffffffffffff168152602001908152602001600020604051806060016040529081600082018054610df390613619565b80601f0160208091040260200160405190810160405280929190818152602001828054610e1f90613619565b8015610e6c5780601f10610e4157610100808354040283529160200191610e6c565b820191906000526020600020905b815481529060010190602001808311610e4f57829003601f168201915b50505050508152602001600182015481526020016002820160009054906101000a900473ffffffffffffffffffffffffffffffffffffffff1673ffffffffffffffffffffffffffffffffffffffff1673ffffffffffffffffffffffffffffffffffffffff1681525050828281518110610f0e577f4e487b7100000000000000000000000000000000000000000000000000000000600052603260045260246000fd5b60200260200101819052508080610f249061367c565b915050610d3f565b5080935050505090565b600080610f41610f90565b905080600260008573ffffffffffffffffffffffffffffffffffffffff1673ffffffffffffffffffffffffffffffffffffffff1681526020019081526020016000206001015414915050919050565b60008060015442610fa19190613536565b905060016224ea0082610fb491906134ab565b610fbe9190613455565b91505090565b60015481565b600180811115611003577f4e487b7100000000000000000000000000000000000000000000000000000000600052602160045260246000fd5b61100b610516565b6001811115611043577f4e487b7100000000000000000000000000000000000000000000000000000000600052602160045260246000fd5b14611083576040517f08c379a000000000000000000000000000000000000000000000000000000000815260040161107a906132e6565b60405180910390fd5b61108c33610f36565b6110cb576040517f08c379a00000000000000000000000000000000000000000000000000000000081526004016110c290613246565b60405180910390fd5b600073ffffffffffffffffffffffffffffffffffffffff16600360006110ef610f90565b815260200190815260200160002060008473ffffffffffffffffffffffffffffffffffffffff1673ffffffffffffffffffffffffffffffffffffffff16815260200190815260200160002060020160009054906101000a900473ffffffffffffffffffffffffffffffffffffffff1673ffffffffffffffffffffffffffffffffffffffff16146111b4576040517f08c379a00000000000000000000000000000000000000000000000000000000081526004016111ab90613286565b60405180910390fd5b80600260003373ffffffffffffffffffffffffffffffffffffffff1673ffffffffffffffffffffffffffffffffffffffff16815260200190815260200160002060000160008282546112069190613536565b9250508190555081600260003373ffffffffffffffffffffffffffffffffffffffff1673ffffffffffffffffffffffffffffffffffffffff168152602001908152602001600020600201600260003373ffffffffffffffffffffffffffffffffffffffff1673ffffffffffffffffffffffffffffffffffffffff16815260200190815260200160002060020180549050815481106112cd577f4e487b7100000000000000000000000000000000000000000000000000000000600052603260045260246000fd5b9060005260206000200160006101000a81548173ffffffffffffffffffffffffffffffffffffffff021916908373ffffffffffffffffffffffffffffffffffffffff1602179055508060036000611322610f90565b815260200190815260200160002060008473ffffffffffffffffffffffffffffffffffffffff1673ffffffffffffffffffffffffffffffffffffffff168152602001908152602001600020600101600082825461137f9190613455565b925050819055505050565b600060018111156113c4577f4e487b7100000000000000000000000000000000000000000000000000000000600052602160045260246000fd5b6113cc610516565b6001811115611404577f4e487b7100000000000000000000000000000000000000000000000000000000600052602160045260246000fd5b14611444576040517f08c379a000000000000000000000000000000000000000000000000000000000815260040161143b906131c6565b60405180910390fd5b61144d33610f36565b61148c576040517f08c379a000000000000000000000000000000000000000000000000000000000815260040161148390613246565b60405180910390fd5b6000611496610f90565b9050600073ffffffffffffffffffffffffffffffffffffffff166003600083815260200190815260200160002060008473ffffffffffffffffffffffffffffffffffffffff1673ffffffffffffffffffffffffffffffffffffffff16815260200190815260200160002060020160009054906101000a900473ffffffffffffffffffffffffffffffffffffffff1673ffffffffffffffffffffffffffffffffffffffff161461157a576040517f08c379a000000000000000000000000000000000000000000000000000000000815260040161157190613266565b60405180910390fd5b6115826129ac565b83816000018190525033816040019073ffffffffffffffffffffffffffffffffffffffff16908173ffffffffffffffffffffffffffffffffffffffff1681525050806003600084815260200190815260200160002060008573ffffffffffffffffffffffffffffffffffffffff1673ffffffffffffffffffffffffffffffffffffffff16815260200190815260200160002060008201518160000190805190602001906116309291906129e3565b506020820151816001015560408201518160020160006101000a81548173ffffffffffffffffffffffffffffffffffffffff021916908373ffffffffffffffffffffffffffffffffffffffff16021790555090505060046000838152602001908152602001600020839080600181540180825580915050600190039060005260206000200160009091909190916101000a81548173ffffffffffffffffffffffffffffffffffffffff021916908373ffffffffffffffffffffffffffffffffffffffff16021790555050505050565b60065481565b60006117337f000000000000000000000000000000000000000000000000000000000000000033308561261c565b600061173d610f90565b9050826005600083815260200190815260200160002060020160008282546117659190613455565b92505081905550826006600082825461177e9190613455565b92505081905550600060018111156117bf577f4e487b7100000000000000000000000000000000000000000000000000000000600052602160045260246000fd5b6117c7610516565b60018111156117ff577f4e487b7100000000000000000000000000000000000000000000000000000000600052602160045260246000fd5b14801561182c57507f00000000000000000000000000000000000000000000000000000000000000008310155b156119f55761183a33610f36565b611926576001600860003373ffffffffffffffffffffffffffffffffffffffff1673ffffffffffffffffffffffffffffffffffffffff16815260200190815260200160002060006101000a81548160ff02191690831515021790555080600260003373ffffffffffffffffffffffffffffffffffffffff1673ffffffffffffffffffffffffffffffffffffffff168152602001908152602001600020600101819055506000600260003373ffffffffffffffffffffffffffffffffffffffff1673ffffffffffffffffffffffffffffffffffffffff168152602001908152602001600020600001819055505b7f00000000000000000000000000000000000000000000000000000000000000008361195291906134ab565b600260003373ffffffffffffffffffffffffffffffffffffffff1673ffffffffffffffffffffffffffffffffffffffff16815260200190815260200160002060000160008282546119a39190613455565b92505081905550600260003373ffffffffffffffffffffffffffffffffffffffff1673ffffffffffffffffffffffffffffffffffffffff16815260200190815260200160002060000154915050611a13565b60096000815480929190611a089061367c565b919050555060009150505b919050565b60606000611a24610f90565b9050600060046000838152602001908152602001600020805480602002602001604051908101604052809291908181526020018280548015611abb57602002820191906000526020600020905b8160009054906101000a900473ffffffffffffffffffffffffffffffffffffffff1673ffffffffffffffffffffffffffffffffffffffff1681526020019060010190808311611a71575b505050505090506000815167ffffffffffffffff811115611b05577f4e487b7100000000000000000000000000000000000000000000000000000000600052604160045260246000fd5b604051908082528060200260200182016040528015611b3e57816020015b611b2b6129ac565b815260200190600190039081611b235790505b50905060005b8251811015611d3157600360008581526020019081526020016000206000848381518110611b9b577f4e487b7100000000000000000000000000000000000000000000000000000000600052603260045260246000fd5b602002602001015173ffffffffffffffffffffffffffffffffffffffff1673ffffffffffffffffffffffffffffffffffffffff168152602001908152602001600020604051806060016040529081600082018054611bf890613619565b80601f0160208091040260200160405190810160405280929190818152602001828054611c2490613619565b8015611c715780601f10611c4657610100808354040283529160200191611c71565b820191906000526020600020905b815481529060010190602001808311611c5457829003601f168201915b50505050508152602001600182015481526020016002820160009054906101000a900473ffffffffffffffffffffffffffffffffffffffff1673ffffffffffffffffffffffffffffffffffffffff1673ffffffffffffffffffffffffffffffffffffffff1681525050828281518110611d13577f4e487b7100000000000000000000000000000000000000000000000000000000600052603260045260246000fd5b60200260200101819052508080611d299061367c565b915050611b44565b5080935050505090565b7f000000000000000000000000000000000000000000000000000000000000000081565b6060600080600080600090505b6004600087815260200190815260200160002080549050811015611ed2576000600460008881526020019081526020016000208281548110611dd7577f4e487b7100000000000000000000000000000000000000000000000000000000600052603260045260246000fd5b9060005260206000200160009054906101000a900473ffffffffffffffffffffffffffffffffffffffff16905060006003600089815260200190815260200160002060008373ffffffffffffffffffffffffffffffffffffffff1673ffffffffffffffffffffffffffffffffffffffff16815260200190815260200160002060010154905085811415611e6957611ebd565b85811115611e7f57849350859450809550611ebc565b84811415611e8c57611ebb565b84811115611e9f57849350809450611eba565b83811415611eac57611eb9565b83811115611eb8578093505b5b5b5b5b5b50508080611eca9061367c565b915050611d6c565b506000600a67ffffffffffffffff811115611f16577f4e487b7100000000000000000000000000000000000000000000000000000000600052604160045260246000fd5b604051908082528060200260200182016040528015611f445781602001602082028036833780820191505090505b509050600080600a67ffffffffffffffff811115611f8b577f4e487b7100000000000000000000000000000000000000000000000000000000600052604160045260246000fd5b604051908082528060200260200182016040528015611fb95781602001602082028036833780820191505090505b509050600080600a67ffffffffffffffff811115612000577f4e487b7100000000000000000000000000000000000000000000000000000000600052604160045260246000fd5b60405190808252806020026020018201604052801561202e5781602001602082028036833780820191505090505b509050600080600090505b600460008d8152602001908152602001600020805490508110156122e9576000600460008e815260200190815260200160002082815481106120a4577f4e487b7100000000000000000000000000000000000000000000000000000000600052603260045260246000fd5b9060005260206000200160009054906101000a900473ffffffffffffffffffffffffffffffffffffffff1690506000600360008f815260200190815260200160002060008373ffffffffffffffffffffffffffffffffffffffff1673ffffffffffffffffffffffffffffffffffffffff1681526020019081526020016000206001015490508b8114156121b8578189898151811061216b577f4e487b7100000000000000000000000000000000000000000000000000000000600052603260045260246000fd5b602002602001019073ffffffffffffffffffffffffffffffffffffffff16908173ffffffffffffffffffffffffffffffffffffffff168152505087806121b09061367c565b9850506122d4565b8a81141561224757818787815181106121fa577f4e487b7100000000000000000000000000000000000000000000000000000000600052603260045260246000fd5b602002602001019073ffffffffffffffffffffffffffffffffffffffff16908173ffffffffffffffffffffffffffffffffffffffff1681525050858061223f9061367c565b9650506122d3565b898114156122d25781858581518110612289577f4e487b7100000000000000000000000000000000000000000000000000000000600052603260045260246000fd5b602002602001019073ffffffffffffffffffffffffffffffffffffffff16908173ffffffffffffffffffffffffffffffffffffffff168152505083806122ce9061367c565b9450505b5b5b505080806122e19061367c565b915050612039565b506000601e67ffffffffffffffff81111561232d577f4e487b7100000000000000000000000000000000000000000000000000000000600052604160045260246000fd5b60405190808252806020026020018201604052801561235b5781602001602082028036833780820191505090505b509050600080600090505b600a811015612444578881815181106123a8577f4e487b7100000000000000000000000000000000000000000000000000000000600052603260045260246000fd5b60200260200101518383815181106123e9577f4e487b7100000000000000000000000000000000000000000000000000000000600052603260045260246000fd5b602002602001019073ffffffffffffffffffffffffffffffffffffffff16908173ffffffffffffffffffffffffffffffffffffffff1681525050818061242e9061367c565b925050808061243c9061367c565b915050612366565b5060005b600a8110156125265786818151811061248a577f4e487b7100000000000000000000000000000000000000000000000000000000600052603260045260246000fd5b60200260200101518383815181106124cb577f4e487b7100000000000000000000000000000000000000000000000000000000600052603260045260246000fd5b602002602001019073ffffffffffffffffffffffffffffffffffffffff16908173ffffffffffffffffffffffffffffffffffffffff168152505081806125109061367c565b925050808061251e9061367c565b915050612448565b5060005b600a8110156126085784818151811061256c577f4e487b7100000000000000000000000000000000000000000000000000000000600052603260045260246000fd5b60200260200101518383815181106125ad577f4e487b7100000000000000000000000000000000000000000000000000000000600052603260045260246000fd5b602002602001019073ffffffffffffffffffffffffffffffffffffffff16908173ffffffffffffffffffffffffffffffffffffffff168152505081806125f29061367c565b92505080806126009061367c565b91505061252a565b50819b505050505050505050505050919050565b61269f846323b872dd60e01b85858560405160240161263d9392919061308c565b604051602081830303815290604052907bffffffffffffffffffffffffffffffffffffffffffffffffffffffff19166020820180517bffffffffffffffffffffffffffffffffffffffffffffffffffffffff83818316178352505050506126a5565b50505050565b6000612707826040518060400160405280602081526020017f5361666545524332303a206c6f772d6c6576656c2063616c6c206661696c65648152508573ffffffffffffffffffffffffffffffffffffffff1661276c9092919063ffffffff16565b905060008151111561276757808060200190518101906127279190612b92565b612766576040517f08c379a000000000000000000000000000000000000000000000000000000000815260040161275d906132c6565b60405180910390fd5b5b505050565b606061277b8484600085612784565b90509392505050565b6060824710156127c9576040517f08c379a00000000000000000000000000000000000000000000000000000000081526004016127c090613206565b60405180910390fd5b6127d285612898565b612811576040517f08c379a0000000000000000000000000000000000000000000000000000000008152600401612808906132a6565b60405180910390fd5b6000808673ffffffffffffffffffffffffffffffffffffffff16858760405161283a919061305a565b60006040518083038185875af1925050503d8060008114612877576040519150601f19603f3d011682016040523d82523d6000602084013e61287c565b606091505b509150915061288c8282866128bb565b92505050949350505050565b6000808273ffffffffffffffffffffffffffffffffffffffff163b119050919050565b606083156128cb5782905061291b565b6000835111156128de5782518084602001fd5b816040517f08c379a00000000000000000000000000000000000000000000000000000000081526004016129129190613166565b60405180910390fd5b9392505050565b82805482825590600052602060002090810192821561299b579160200282015b8281111561299a5782518260006101000a81548173ffffffffffffffffffffffffffffffffffffffff021916908373ffffffffffffffffffffffffffffffffffffffff16021790555091602001919060010190612942565b5b5090506129a89190612a69565b5090565b60405180606001604052806060815260200160008152602001600073ffffffffffffffffffffffffffffffffffffffff1681525090565b8280546129ef90613619565b90600052602060002090601f016020900481019282612a115760008555612a58565b82601f10612a2a57805160ff1916838001178555612a58565b82800160010185558215612a58579182015b82811115612a57578251825591602001919060010190612a3c565b5b509050612a659190612a69565b5090565b5b80821115612a82576000816000905550600101612a6a565b5090565b6000612a99612a948461336f565b61334a565b905082815260208101848484011115612ab157600080fd5b612abc8482856135d7565b509392505050565b600081359050612ad381613a84565b92915050565b600081519050612ae881613a9b565b92915050565b600082601f830112612aff57600080fd5b8135612b0f848260208601612a86565b91505092915050565b600081359050612b2781613ab2565b92915050565b600060208284031215612b3f57600080fd5b6000612b4d84828501612ac4565b91505092915050565b60008060408385031215612b6957600080fd5b6000612b7785828601612ac4565b9250506020612b8885828601612b18565b9150509250929050565b600060208284031215612ba457600080fd5b6000612bb284828501612ad9565b91505092915050565b60008060408385031215612bce57600080fd5b600083013567ffffffffffffffff811115612be857600080fd5b612bf485828601612aee565b9250506020612c0585828601612ac4565b9150509250929050565b600060208284031215612c2157600080fd5b6000612c2f84828501612b18565b91505092915050565b60008060408385031215612c4b57600080fd5b6000612c5985828601612b18565b9250506020612c6a85828601612ac4565b9150509250929050565b60008060408385031215612c8757600080fd5b6000612c9585828601612b18565b9250506020612ca685828601612b18565b9150509250929050565b6000612cbc8383612cdc565b60208301905092915050565b6000612cd48383612fec565b905092915050565b612ce58161356a565b82525050565b612cf48161356a565b82525050565b6000612d05826133c0565b612d0f8185613406565b9350612d1a836133a0565b8060005b83811015612d4b578151612d328882612cb0565b9750612d3d836133ec565b925050600181019050612d1e565b5085935050505092915050565b6000612d63826133cb565b612d6d8185613417565b935083602082028501612d7f856133b0565b8060005b85811015612dbb5784840389528151612d9c8582612cc8565b9450612da7836133f9565b925060208a01995050600181019050612d83565b50829750879550505050505092915050565b612dd68161357c565b82525050565b6000612de7826133d6565b612df18185613428565b9350612e018185602086016135e6565b80840191505092915050565b612e16816135c5565b82525050565b6000612e27826133e1565b612e318185613433565b9350612e418185602086016135e6565b612e4a816137e1565b840191505092915050565b6000612e60826133e1565b612e6a8185613444565b9350612e7a8185602086016135e6565b612e83816137e1565b840191505092915050565b6000612e9b602383613444565b9150612ea6826137f2565b604082019050919050565b6000612ebe602f83613444565b9150612ec982613841565b604082019050919050565b6000612ee1602683613444565b9150612eec82613890565b604082019050919050565b6000612f04601e83613444565b9150612f0f826138df565b602082019050919050565b6000612f27601783613444565b9150612f3282613908565b602082019050919050565b6000612f4a602683613444565b9150612f5582613931565b604082019050919050565b6000612f6d602d83613444565b9150612f7882613980565b604082019050919050565b6000612f90601d83613444565b9150612f9b826139cf565b602082019050919050565b6000612fb3602a83613444565b9150612fbe826139f8565b604082019050919050565b6000612fd6601f83613444565b9150612fe182613a47565b602082019050919050565b600060608301600083015184820360008601526130098282612e1c565b915050602083015161301e602086018261303c565b5060408301516130316040860182612cdc565b508091505092915050565b613045816135bb565b82525050565b613054816135bb565b82525050565b60006130668284612ddc565b915081905092915050565b60006020820190506130866000830184612ceb565b92915050565b60006060820190506130a16000830186612ceb565b6130ae6020830185612ceb565b6130bb604083018461304b565b949350505050565b600060208201905081810360008301526130dd8184612cfa565b905092915050565b600060208201905081810360008301526130ff8184612d58565b905092915050565b600060208201905061311c6000830184612dcd565b92915050565b60006040820190506131376000830185612dcd565b613144602083018461304b565b9392505050565b60006020820190506131606000830184612e0d565b92915050565b600060208201905081810360008301526131808184612e55565b905092915050565b600060608201905081810360008301526131a28186612e55565b90506131b1602083018561304b565b6131be6040830184612ceb565b949350505050565b600060208201905081810360008301526131df81612e8e565b9050919050565b600060208201905081810360008301526131ff81612eb1565b9050919050565b6000602082019050818103600083015261321f81612ed4565b9050919050565b6000602082019050818103600083015261323f81612ef7565b9050919050565b6000602082019050818103600083015261325f81612f1a565b9050919050565b6000602082019050818103600083015261327f81612f3d565b9050919050565b6000602082019050818103600083015261329f81612f60565b9050919050565b600060208201905081810360008301526132bf81612f83565b9050919050565b600060208201905081810360008301526132df81612fa6565b9050919050565b600060208201905081810360008301526132ff81612fc9565b9050919050565b600060208201905061331b600083018461304b565b92915050565b6000604082019050613336600083018561304b565b613343602083018461304b565b9392505050565b6000613354613365565b9050613360828261364b565b919050565b6000604051905090565b600067ffffffffffffffff82111561338a576133896137b2565b5b613393826137e1565b9050602081019050919050565b6000819050602082019050919050565b6000819050602082019050919050565b600081519050919050565b600081519050919050565b600081519050919050565b600081519050919050565b6000602082019050919050565b6000602082019050919050565b600082825260208201905092915050565b600082825260208201905092915050565b600081905092915050565b600082825260208201905092915050565b600082825260208201905092915050565b6000613460826135bb565b915061346b836135bb565b9250827fffffffffffffffffffffffffffffffffffffffffffffffffffffffffffffffff038211156134a05761349f6136f6565b5b828201905092915050565b60006134b6826135bb565b91506134c1836135bb565b9250826134d1576134d0613725565b5b828204905092915050565b60006134e7826135bb565b91506134f2836135bb565b9250817fffffffffffffffffffffffffffffffffffffffffffffffffffffffffffffffff048311821515161561352b5761352a6136f6565b5b828202905092915050565b6000613541826135bb565b915061354c836135bb565b92508282101561355f5761355e6136f6565b5b828203905092915050565b60006135758261359b565b9050919050565b60008115159050919050565b600081905061359682613a70565b919050565b600073ffffffffffffffffffffffffffffffffffffffff82169050919050565b6000819050919050565b60006135d082613588565b9050919050565b82818337600083830152505050565b60005b838110156136045780820151818401526020810190506135e9565b83811115613613576000848401525b50505050565b6000600282049050600182168061363157607f821691505b6020821081141561364557613644613783565b5b50919050565b613654826137e1565b810181811067ffffffffffffffff82111715613673576136726137b2565b5b80604052505050565b6000613687826135bb565b91507fffffffffffffffffffffffffffffffffffffffffffffffffffffffffffffffff8214156136ba576136b96136f6565b5b600182019050919050565b60006136d0826135bb565b91506136db836135bb565b9250826136eb576136ea613725565b5b828206905092915050565b7f4e487b7100000000000000000000000000000000000000000000000000000000600052601160045260246000fd5b7f4e487b7100000000000000000000000000000000000000000000000000000000600052601260045260246000fd5b7f4e487b7100000000000000000000000000000000000000000000000000000000600052602160045260246000fd5b7f4e487b7100000000000000000000000000000000000000000000000000000000600052602260045260246000fd5b7f4e487b7100000000000000000000000000000000000000000000000000000000600052604160045260246000fd5b6000601f19601f8301169050919050565b7f50726f706f73616c732061726520636c6f73656420666f72207468697320726f60008201527f756e640000000000000000000000000000000000000000000000000000000000602082015250565b7f446f6e6174696f6e7320666f72207468697320726f756e64206861766520616c60008201527f7265616479206265656e2073656e740000000000000000000000000000000000602082015250565b7f416464726573733a20696e73756666696369656e742062616c616e636520666f60008201527f722063616c6c0000000000000000000000000000000000000000000000000000602082015250565b7f5468697320726f756e64206973206e6f742066696e6973686564207965740000600082015250565b7f41646472657373206973206e6f742061206d656d626572000000000000000000600082015250565b7f546869732070726f6a6563742068617320616c7265616479206265656e20737560008201527f626d697465640000000000000000000000000000000000000000000000000000602082015250565b7f546869732070726f6a656374206973206e6f742070617274206f66207468652060008201527f63757272656e7420726f756e6400000000000000000000000000000000000000602082015250565b7f416464726573733a2063616c6c20746f206e6f6e2d636f6e7472616374000000600082015250565b7f5361666545524332303a204552433230206f7065726174696f6e20646964206e60008201527f6f74207375636365656400000000000000000000000000000000000000000000602082015250565b7f566f74696e67207068617365206973206e6f7420796574207374617274656400600082015250565b60028110613a8157613a80613754565b5b50565b613a8d8161356a565b8114613a9857600080fd5b50565b613aa48161357c565b8114613aaf57600080fd5b50565b613abb816135bb565b8114613ac657600080fd5b5056fea26469706673582212203233d041d8576cbea364faab59d39f2ddb222052e132f20c65d682b10f9226ec64736f6c63430008040033",
  "linkReferences": {},
  "deployedLinkReferences": {}
}