{
  "_format": "hh-sol-artifact-1",
  "contractName": "GreenDAO",
  "sourceName": "contracts/GreenDAO.sol",
  "abi": [
    {
      "inputs": [
        {
          "internalType": "address",
          "name": "_token",
          "type": "address"
        },
        {
          "internalType": "uint256",
          "name": "_pricePerVote",
          "type": "uint256"
        }
      ],
      "stateMutability": "nonpayable",
      "type": "constructor"
    },
    {
      "inputs": [
        {
          "internalType": "address",
          "name": "",
          "type": "address"
        }
      ],
      "name": "DAOMembers",
      "outputs": [
        {
          "internalType": "bool",
          "name": "",
          "type": "bool"
        }
      ],
      "stateMutability": "view",
      "type": "function"
    },
    {
      "inputs": [],
      "name": "PROPOSAL_DURATION",
      "outputs": [
        {
          "internalType": "uint256",
          "name": "",
          "type": "uint256"
        }
      ],
      "stateMutability": "view",
      "type": "function"
    },
    {
      "inputs": [],
      "name": "ROUND_DURATION",
      "outputs": [
        {
          "internalType": "uint256",
          "name": "",
          "type": "uint256"
        }
      ],
      "stateMutability": "view",
      "type": "function"
    },
    {
      "inputs": [
        {
          "internalType": "string",
          "name": "_data",
          "type": "string"
        },
        {
          "internalType": "address",
          "name": "_proposedRecipient",
          "type": "address"
        },
        {
          "internalType": "address",
          "name": "_proposedBy",
          "type": "address"
        }
      ],
      "name": "addProject",
      "outputs": [],
      "stateMutability": "nonpayable",
      "type": "function"
    },
    {
      "inputs": [],
      "name": "anonymousDonations",
      "outputs": [
        {
          "internalType": "uint256",
          "name": "",
          "type": "uint256"
        }
      ],
      "stateMutability": "view",
      "type": "function"
    },
    {
      "inputs": [
        {
          "internalType": "uint256",
          "name": "roundId",
          "type": "uint256"
        }
      ],
      "name": "distributeToProjects",
      "outputs": [],
      "stateMutability": "nonpayable",
      "type": "function"
    },
    {
      "inputs": [],
      "name": "distributeToProjects",
      "outputs": [],
      "stateMutability": "nonpayable",
      "type": "function"
    },
    {
      "inputs": [
        {
          "internalType": "uint256",
          "name": "amount",
          "type": "uint256"
        }
      ],
      "name": "donate",
      "outputs": [
        {
          "internalType": "uint256",
          "name": "",
          "type": "uint256"
        }
      ],
      "stateMutability": "nonpayable",
      "type": "function"
    },
    {
      "inputs": [],
      "name": "getActualBalance",
      "outputs": [
        {
          "internalType": "uint256",
          "name": "",
          "type": "uint256"
        }
      ],
      "stateMutability": "view",
      "type": "function"
    },
    {
      "inputs": [],
      "name": "getCurrentProjects",
      "outputs": [
        {
          "components": [
            {
              "internalType": "string",
              "name": "data",
              "type": "string"
            },
            {
              "internalType": "uint256",
              "name": "votes",
              "type": "uint256"
            },
            {
              "internalType": "address",
              "name": "proposedBy",
              "type": "address"
            }
          ],
          "internalType": "struct GreenDAO.Project[]",
          "name": "",
          "type": "tuple[]"
        }
      ],
      "stateMutability": "view",
      "type": "function"
    },
    {
      "inputs": [],
      "name": "getCurrentRound",
      "outputs": [
        {
          "internalType": "uint256",
          "name": "",
          "type": "uint256"
        }
      ],
      "stateMutability": "view",
      "type": "function"
    },
    {
      "inputs": [],
      "name": "getCurrentRoundStatus",
      "outputs": [
        {
          "internalType": "enum GreenDAO.RoundStatus",
          "name": "",
          "type": "uint8"
        }
      ],
      "stateMutability": "view",
      "type": "function"
    },
    {
      "inputs": [],
      "name": "getLastWinners",
      "outputs": [
        {
          "components": [
            {
              "internalType": "string",
              "name": "data",
              "type": "string"
            },
            {
              "internalType": "uint256",
              "name": "votes",
              "type": "uint256"
            },
            {
              "internalType": "address",
              "name": "proposedBy",
              "type": "address"
            }
          ],
          "internalType": "struct GreenDAO.Project[]",
          "name": "",
          "type": "tuple[]"
        }
      ],
      "stateMutability": "view",
      "type": "function"
    },
    {
      "inputs": [
        {
          "internalType": "address",
          "name": "user",
          "type": "address"
        }
      ],
      "name": "getMemberRemainingVotes",
      "outputs": [
        {
          "internalType": "uint256",
          "name": "",
          "type": "uint256"
        }
      ],
      "stateMutability": "view",
      "type": "function"
    },
    {
      "inputs": [
        {
          "internalType": "address",
          "name": "user",
          "type": "address"
        }
      ],
      "name": "getMembersLastVotes",
      "outputs": [
        {
          "internalType": "address[]",
          "name": "",
          "type": "address[]"
        }
      ],
      "stateMutability": "view",
      "type": "function"
    },
    {
      "inputs": [
        {
          "internalType": "address",
          "name": "user",
          "type": "address"
        }
      ],
      "name": "isMember",
      "outputs": [
        {
          "internalType": "bool",
          "name": "",
          "type": "bool"
        }
      ],
      "stateMutability": "view",
      "type": "function"
    },
    {
      "inputs": [
        {
          "internalType": "address",
          "name": "",
          "type": "address"
        }
      ],
      "name": "members",
      "outputs": [
        {
          "internalType": "uint256",
          "name": "votes",
          "type": "uint256"
        },
        {
          "internalType": "uint256",
          "name": "lastRoundPaid",
          "type": "uint256"
        }
      ],
      "stateMutability": "view",
      "type": "function"
    },
    {
      "inputs": [],
      "name": "pricePerVote",
      "outputs": [
        {
          "internalType": "uint256",
          "name": "",
          "type": "uint256"
        }
      ],
      "stateMutability": "view",
      "type": "function"
    },
    {
      "inputs": [
        {
          "internalType": "uint256",
          "name": "",
          "type": "uint256"
        },
        {
          "internalType": "address",
          "name": "",
          "type": "address"
        }
      ],
      "name": "projects",
      "outputs": [
        {
          "internalType": "string",
          "name": "data",
          "type": "string"
        },
        {
          "internalType": "uint256",
          "name": "votes",
          "type": "uint256"
        },
        {
          "internalType": "address",
          "name": "proposedBy",
          "type": "address"
        }
      ],
      "stateMutability": "view",
      "type": "function"
    },
    {
      "inputs": [
        {
          "internalType": "uint256",
          "name": "",
          "type": "uint256"
        },
        {
          "internalType": "uint256",
          "name": "",
          "type": "uint256"
        }
      ],
      "name": "projectsPerRound",
      "outputs": [
        {
          "internalType": "address",
          "name": "",
          "type": "address"
        }
      ],
      "stateMutability": "view",
      "type": "function"
    },
    {
      "inputs": [
        {
          "internalType": "uint256",
          "name": "",
          "type": "uint256"
        }
      ],
      "name": "rounds",
      "outputs": [
        {
          "internalType": "bool",
          "name": "started",
          "type": "bool"
        },
        {
          "internalType": "bool",
          "name": "hasBeenPaid",
          "type": "bool"
        },
        {
          "internalType": "uint256",
          "name": "balance",
          "type": "uint256"
        }
      ],
      "stateMutability": "view",
      "type": "function"
    },
    {
      "inputs": [],
      "name": "start",
      "outputs": [
        {
          "internalType": "uint256",
          "name": "",
          "type": "uint256"
        }
      ],
      "stateMutability": "view",
      "type": "function"
    },
    {
      "inputs": [],
      "name": "token",
      "outputs": [
        {
          "internalType": "address",
          "name": "",
          "type": "address"
        }
      ],
      "stateMutability": "view",
      "type": "function"
    },
    {
      "inputs": [],
      "name": "totalCollected",
      "outputs": [
        {
          "internalType": "uint256",
          "name": "",
          "type": "uint256"
        }
      ],
      "stateMutability": "view",
      "type": "function"
    },
    {
      "inputs": [],
      "name": "totalPaidProjects",
      "outputs": [
        {
          "internalType": "uint256",
          "name": "",
          "type": "uint256"
        }
      ],
      "stateMutability": "view",
      "type": "function"
    },
    {
      "inputs": [
        {
          "internalType": "address",
          "name": "projectAddress",
          "type": "address"
        },
        {
          "internalType": "uint256",
          "name": "nbOfVote",
          "type": "uint256"
        }
      ],
      "name": "voteForProject",
      "outputs": [],
      "stateMutability": "nonpayable",
      "type": "function"
    }
  ],
  "bytecode": "0x60c06040523480156200001157600080fd5b5060405162003c1538038062003c1583398181016040528101906200003791906200020d565b336000806101000a81548173ffffffffffffffffffffffffffffffffffffffff021916908373ffffffffffffffffffffffffffffffffffffffff1602179055504260018190555060016005600080815260200190815260200160002060000160006101000a81548160ff0219169083151502179055508173ffffffffffffffffffffffffffffffffffffffff1660808173ffffffffffffffffffffffffffffffffffffffff1660601b815250508173ffffffffffffffffffffffffffffffffffffffff1663313ce5676040518163ffffffff1660e01b815260040160206040518083038186803b1580156200012b57600080fd5b505afa15801562000140573d6000803e3d6000fd5b505050506040513d601f19601f820116820180604052508101906200016691906200024e565b600a6200017491906200032f565b8111620001b8576040517f08c379a0000000000000000000000000000000000000000000000000000000008152600401620001af90620002a1565b60405180910390fd5b8060a0818152505050506200056a565b600081519050620001d9816200051c565b92915050565b600081519050620001f08162000536565b92915050565b600081519050620002078162000550565b92915050565b600080604083850312156200022157600080fd5b60006200023185828601620001c8565b92505060206200024485828601620001df565b9150509250929050565b6000602082840312156200026157600080fd5b60006200027184828501620001f6565b91505092915050565b600062000289601683620002c3565b91506200029682620004f3565b602082019050919050565b60006020820190508181036000830152620002bc816200027a565b9050919050565b600082825260208201905092915050565b6000808291508390505b60018511156200032657808604811115620002fe57620002fd620004b7565b5b60018516156200030e5780820291505b80810290506200031e85620004e6565b9450620002de565b94509492505050565b60006200033c82620004a0565b91506200034983620004aa565b9250620003787fffffffffffffffffffffffffffffffffffffffffffffffffffffffffffffffff848462000380565b905092915050565b60008262000392576001905062000465565b81620003a2576000905062000465565b8160018114620003bb5760028114620003c657620003fc565b600191505062000465565b60ff841115620003db57620003da620004b7565b5b8360020a915084821115620003f557620003f4620004b7565b5b5062000465565b5060208310610133831016604e8410600b8410161715620004365782820a90508381111562000430576200042f620004b7565b5b62000465565b620004458484846001620002d4565b925090508184048111156200045f576200045e620004b7565b5b81810290505b9392505050565b6000620004798262000480565b9050919050565b600073ffffffffffffffffffffffffffffffffffffffff82169050919050565b6000819050919050565b600060ff82169050919050565b7f4e487b7100000000000000000000000000000000000000000000000000000000600052601160045260246000fd5b60008160011c9050919050565b7f50726963652070657220766f746520746f6f206c6f7700000000000000000000600082015250565b62000527816200046c565b81146200053357600080fd5b50565b6200054181620004a0565b81146200054d57600080fd5b50565b6200055b81620004aa565b81146200056757600080fd5b50565b60805160601c60a05161365f620005b6600039600081816105910152818161161501526117340152600081816108930152818161092901528181611518015261183e015261365f6000f3fe608060405234801561001057600080fd5b506004361061018e5760003560e01c80637f097010116100de578063aac5426c11610097578063e29eb83611610071578063e29eb836146104a2578063f14faf6f146104c0578063f2645e37146104f0578063fc0c546a1461050e5761018e565b8063aac5426c1461044c578063be9a655514610468578063bf65a9df146104865761018e565b80637f09701014610372578063871e5d73146103905780638c65c81f146103ae57806395690936146103e0578063a230c524146103fe578063a32bf5971461042e5761018e565b8063534797a01161014b57806368ef87901161012557806368ef8790146102c45780636cf3c7ef146102e25780636da1a9f8146103125780637c610a5f146103425761018e565b8063534797a01461026a57806360f85f3d1461029c5780636641ea08146102a65761018e565b806308ae4b0c146101935780630d31d835146101c457806315df7700146101e257806329a8b19f14610200578063330b4ab21461021c57806344dd3d0d1461024c575b600080fd5b6101ad60048036038101906101a89190612643565b61052c565b6040516101bb929190612e81565b60405180910390f35b6101cc610550565b6040516101d99190612cab565b60405180910390f35b6101ea61058f565b6040516101f79190612e66565b60405180910390f35b61021a60048036038101906102159190612738565b6105b3565b005b610236600480360381019061023191906127c6565b6108d6565b6040516102439190612bc3565b60405180910390f35b610254610924565b6040516102619190612e66565b60405180910390f35b610284600480360381019061027f919061278a565b6109d9565b60405161029393929190612ce8565b60405180910390f35b6102a4610ab8565b005b6102ae610ad6565b6040516102bb9190612e66565b60405180910390f35b6102cc610add565b6040516102d99190612e66565b60405180910390f35b6102fc60048036038101906102f79190612643565b610ae3565b6040516103099190612e66565b60405180910390f35b61032c60048036038101906103279190612643565b610b77565b6040516103399190612c59565b60405180910390f35b61035c60048036038101906103579190612643565b610b97565b6040516103699190612c15565b60405180910390f35b61037a610cb5565b6040516103879190612e66565b60405180910390f35b610398610cbc565b6040516103a59190612e66565b60405180910390f35b6103c860048036038101906103c39190612738565b610cc2565b6040516103d793929190612c74565b60405180910390f35b6103e8610d06565b6040516103f59190612c37565b60405180910390f35b61041860048036038101906104139190612643565b610d0b565b6040516104259190612c59565b60405180910390f35b610436610d65565b6040516104439190612e66565b60405180910390f35b610466600480360381019061046191906126d1565b610d8d565b005b610470611142565b60405161047d9190612e66565b60405180910390f35b6104a0600480360381019061049b919061266c565b611148565b005b6104aa61150b565b6040516104b79190612e66565b60405180910390f35b6104da60048036038101906104d59190612738565b611511565b6040516104e79190612e66565b60405180910390f35b6104f8611824565b6040516105059190612c37565b60405180910390f35b61051661183c565b6040516105239190612bc3565b60405180910390f35b60026020528060005260406000206000915090508060000154908060010154905082565b600080600154426105619190613096565b9050621baf806224ea00826105769190613225565b101561058657600091505061058c565b60019150505b90565b7f000000000000000000000000000000000000000000000000000000000000000081565b6005600082815260200190815260200160002060000160019054906101000a900460ff1615610617576040517f08c379a000000000000000000000000000000000000000000000000000000000815260040161060e90612d46565b60405180910390fd5b61061f610d65565b811415610661576040517f08c379a000000000000000000000000000000000000000000000000000000000815260040161065890612d86565b60405180910390fd5b60016005600083815260200190815260200160002060000160016101000a81548160ff021916908315150217905550600061069b82611860565b9050806005600084815260200190815260200160002060010190805190602001906106c7929190612423565b508051600760008282546106db9190612fb5565b92505081905550600080600090505b82518110156107b357600083828151811061072e577f4e487b7100000000000000000000000000000000000000000000000000000000600052603260045260246000fd5b6020026020010151905060006003600087815260200190815260200160002060008373ffffffffffffffffffffffffffffffffffffffff1673ffffffffffffffffffffffffffffffffffffffff168152602001908152602001600020600101549050808461079c9190612fb5565b9350505080806107ab906131dc565b9150506106ea565b5060005b82518110156108d05760008382815181106107fb577f4e487b7100000000000000000000000000000000000000000000000000000000600052603260045260246000fd5b6020026020010151905060006003600087815260200190815260200160002060008373ffffffffffffffffffffffffffffffffffffffff1673ffffffffffffffffffffffffffffffffffffffff1681526020019081526020016000206001015490506000848261086b919061300b565b600560008981526020019081526020016000206002015461088c919061303c565b90506108ba7f000000000000000000000000000000000000000000000000000000000000000030858461211d565b50505080806108c8906131dc565b9150506107b7565b50505050565b600460205281600052604060002081815481106108f257600080fd5b906000526020600020016000915091509054906101000a900473ffffffffffffffffffffffffffffffffffffffff1681565b6000807f000000000000000000000000000000000000000000000000000000000000000073ffffffffffffffffffffffffffffffffffffffff166370a08231306040518263ffffffff1660e01b81526004016109809190612bc3565b60206040518083038186803b15801561099857600080fd5b505afa1580156109ac573d6000803e3d6000fd5b505050506040513d601f19601f820116820180604052508101906109d09190612761565b90508091505090565b600360205281600052604060002060205280600052604060002060009150915050806000018054610a0990613179565b80601f0160208091040260200160405190810160405280929190818152602001828054610a3590613179565b8015610a825780601f10610a5757610100808354040283529160200191610a82565b820191906000526020600020905b815481529060010190602001808311610a6557829003601f168201915b5050505050908060010154908060020160009054906101000a900473ffffffffffffffffffffffffffffffffffffffff16905083565b610ad46001610ac5610d65565b610acf9190613096565b6105b3565b565b6224ea0081565b60095481565b6000610aee82610d0b565b610b2d576040517f08c379a0000000000000000000000000000000000000000000000000000000008152600401610b2490612da6565b60405180910390fd5b600260008373ffffffffffffffffffffffffffffffffffffffff1673ffffffffffffffffffffffffffffffffffffffff168152602001908152602001600020600001549050919050565b60086020528060005260406000206000915054906101000a900460ff1681565b6060610ba282610d0b565b610be1576040517f08c379a0000000000000000000000000000000000000000000000000000000008152600401610bd890612da6565b60405180910390fd5b6000600260008473ffffffffffffffffffffffffffffffffffffffff1673ffffffffffffffffffffffffffffffffffffffff168152602001908152602001600020600201805480602002602001604051908101604052809291908181526020018280548015610ca557602002820191906000526020600020905b8160009054906101000a900473ffffffffffffffffffffffffffffffffffffffff1673ffffffffffffffffffffffffffffffffffffffff1681526020019060010190808311610c5b575b5050505050905080915050919050565b621baf8081565b60075481565b60056020528060005260406000206000915090508060000160009054906101000a900460ff16908060000160019054906101000a900460ff16908060020154905083565b606090565b600080610d16610d65565b905080600260008573ffffffffffffffffffffffffffffffffffffffff1673ffffffffffffffffffffffffffffffffffffffff1681526020019081526020016000206001015414915050919050565b60008060015442610d769190613096565b90506224ea0081610d87919061300b565b91505090565b60006001811115610dc7577f4e487b7100000000000000000000000000000000000000000000000000000000600052602160045260246000fd5b610dcf610550565b6001811115610e07577f4e487b7100000000000000000000000000000000000000000000000000000000600052602160045260246000fd5b14610e47576040517f08c379a0000000000000000000000000000000000000000000000000000000008152600401610e3e90612d26565b60405180910390fd5b610e5033610d0b565b610e8f576040517f08c379a0000000000000000000000000000000000000000000000000000000008152600401610e8690612da6565b60405180910390fd5b6000610e99610d65565b905060008073ffffffffffffffffffffffffffffffffffffffff166003600084815260200190815260200160002060008673ffffffffffffffffffffffffffffffffffffffff1673ffffffffffffffffffffffffffffffffffffffff16815260200190815260200160002060020160009054906101000a900473ffffffffffffffffffffffffffffffffffffffff1673ffffffffffffffffffffffffffffffffffffffff161415610f7f576040517f08c379a0000000000000000000000000000000000000000000000000000000008152600401610f7690612dc6565b60405180910390fd5b610f876124ad565b85816000018190525033816040019073ffffffffffffffffffffffffffffffffffffffff16908173ffffffffffffffffffffffffffffffffffffffff1681525050806003600085815260200190815260200160002060008773ffffffffffffffffffffffffffffffffffffffff1673ffffffffffffffffffffffffffffffffffffffff16815260200190815260200160002060008201518160000190805190602001906110359291906124e4565b506020820151816001015560408201518160020160006101000a81548173ffffffffffffffffffffffffffffffffffffffff021916908373ffffffffffffffffffffffffffffffffffffffff160217905550905050600060046000858152602001908152602001600020805490509050856004600086815260200190815260200160002082815481106110f1577f4e487b7100000000000000000000000000000000000000000000000000000000600052603260045260246000fd5b9060005260206000200160006101000a81548173ffffffffffffffffffffffffffffffffffffffff021916908373ffffffffffffffffffffffffffffffffffffffff16021790555050505050505050565b60015481565b600180811115611181577f4e487b7100000000000000000000000000000000000000000000000000000000600052602160045260246000fd5b611189610550565b60018111156111c1577f4e487b7100000000000000000000000000000000000000000000000000000000600052602160045260246000fd5b14611201576040517f08c379a00000000000000000000000000000000000000000000000000000000081526004016111f890612e46565b60405180910390fd5b61120a33610d0b565b611249576040517f08c379a000000000000000000000000000000000000000000000000000000000815260040161124090612da6565b60405180910390fd5b60008073ffffffffffffffffffffffffffffffffffffffff166003600061126e610d65565b815260200190815260200160002060008573ffffffffffffffffffffffffffffffffffffffff1673ffffffffffffffffffffffffffffffffffffffff16815260200190815260200160002060020160009054906101000a900473ffffffffffffffffffffffffffffffffffffffff1673ffffffffffffffffffffffffffffffffffffffff161415611334576040517f08c379a000000000000000000000000000000000000000000000000000000000815260040161132b90612de6565b60405180910390fd5b81600260003373ffffffffffffffffffffffffffffffffffffffff1673ffffffffffffffffffffffffffffffffffffffff16815260200190815260200160002060000160008282546113869190613096565b9250508190555082600260003373ffffffffffffffffffffffffffffffffffffffff1673ffffffffffffffffffffffffffffffffffffffff168152602001908152602001600020600201600260003373ffffffffffffffffffffffffffffffffffffffff1673ffffffffffffffffffffffffffffffffffffffff168152602001908152602001600020600201805490508154811061144d577f4e487b7100000000000000000000000000000000000000000000000000000000600052603260045260246000fd5b9060005260206000200160006101000a81548173ffffffffffffffffffffffffffffffffffffffff021916908373ffffffffffffffffffffffffffffffffffffffff16021790555081600360006114a2610d65565b815260200190815260200160002060008573ffffffffffffffffffffffffffffffffffffffff1673ffffffffffffffffffffffffffffffffffffffff16815260200190815260200160002060010160008282546114ff9190612fb5565b92505081905550505050565b60065481565b600061153f7f000000000000000000000000000000000000000000000000000000000000000033308561211d565b6000611549610d65565b9050826005600083815260200190815260200160002060020160008282546115719190612fb5565b92505081905550826006600082825461158a9190612fb5565b92505081905550600060018111156115cb577f4e487b7100000000000000000000000000000000000000000000000000000000600052602160045260246000fd5b6115d3610550565b600181111561160b577f4e487b7100000000000000000000000000000000000000000000000000000000600052602160045260246000fd5b14801561163857507f00000000000000000000000000000000000000000000000000000000000000008310155b156118015761164633610d0b565b611732576001600860003373ffffffffffffffffffffffffffffffffffffffff1673ffffffffffffffffffffffffffffffffffffffff16815260200190815260200160002060006101000a81548160ff02191690831515021790555080600260003373ffffffffffffffffffffffffffffffffffffffff1673ffffffffffffffffffffffffffffffffffffffff168152602001908152602001600020600101819055506000600260003373ffffffffffffffffffffffffffffffffffffffff1673ffffffffffffffffffffffffffffffffffffffff168152602001908152602001600020600001819055505b7f00000000000000000000000000000000000000000000000000000000000000008361175e919061300b565b600260003373ffffffffffffffffffffffffffffffffffffffff1673ffffffffffffffffffffffffffffffffffffffff16815260200190815260200160002060000160008282546117af9190612fb5565b92505081905550600260003373ffffffffffffffffffffffffffffffffffffffff1673ffffffffffffffffffffffffffffffffffffffff1681526020019081526020016000206000015491505061181f565b60096000815480929190611814906131dc565b919050555060009150505b919050565b60606000611830610d65565b90506060809250505090565b7f000000000000000000000000000000000000000000000000000000000000000081565b6060600080600080600090505b60046000878152602001908152602001600020805490508110156119d35760006004600088815260200190815260200160002082815481106118d8577f4e487b7100000000000000000000000000000000000000000000000000000000600052603260045260246000fd5b9060005260206000200160009054906101000a900473ffffffffffffffffffffffffffffffffffffffff16905060006003600089815260200190815260200160002060008373ffffffffffffffffffffffffffffffffffffffff1673ffffffffffffffffffffffffffffffffffffffff1681526020019081526020016000206001015490508581141561196a576119be565b85811115611980578493508594508095506119bd565b8481141561198d576119bc565b848111156119a0578493508094506119bb565b838114156119ad576119ba565b838111156119b9578093505b5b5b5b5b5b505080806119cb906131dc565b91505061186d565b506000600a67ffffffffffffffff811115611a17577f4e487b7100000000000000000000000000000000000000000000000000000000600052604160045260246000fd5b604051908082528060200260200182016040528015611a455781602001602082028036833780820191505090505b509050600080600a67ffffffffffffffff811115611a8c577f4e487b7100000000000000000000000000000000000000000000000000000000600052604160045260246000fd5b604051908082528060200260200182016040528015611aba5781602001602082028036833780820191505090505b509050600080600a67ffffffffffffffff811115611b01577f4e487b7100000000000000000000000000000000000000000000000000000000600052604160045260246000fd5b604051908082528060200260200182016040528015611b2f5781602001602082028036833780820191505090505b509050600080600090505b600460008d815260200190815260200160002080549050811015611dea576000600460008e81526020019081526020016000208281548110611ba5577f4e487b7100000000000000000000000000000000000000000000000000000000600052603260045260246000fd5b9060005260206000200160009054906101000a900473ffffffffffffffffffffffffffffffffffffffff1690506000600360008f815260200190815260200160002060008373ffffffffffffffffffffffffffffffffffffffff1673ffffffffffffffffffffffffffffffffffffffff1681526020019081526020016000206001015490508b811415611cb95781898981518110611c6c577f4e487b7100000000000000000000000000000000000000000000000000000000600052603260045260246000fd5b602002602001019073ffffffffffffffffffffffffffffffffffffffff16908173ffffffffffffffffffffffffffffffffffffffff16815250508780611cb1906131dc565b985050611dd5565b8a811415611d485781878781518110611cfb577f4e487b7100000000000000000000000000000000000000000000000000000000600052603260045260246000fd5b602002602001019073ffffffffffffffffffffffffffffffffffffffff16908173ffffffffffffffffffffffffffffffffffffffff16815250508580611d40906131dc565b965050611dd4565b89811415611dd35781858581518110611d8a577f4e487b7100000000000000000000000000000000000000000000000000000000600052603260045260246000fd5b602002602001019073ffffffffffffffffffffffffffffffffffffffff16908173ffffffffffffffffffffffffffffffffffffffff16815250508380611dcf906131dc565b9450505b5b5b50508080611de2906131dc565b915050611b3a565b506000601e67ffffffffffffffff811115611e2e577f4e487b7100000000000000000000000000000000000000000000000000000000600052604160045260246000fd5b604051908082528060200260200182016040528015611e5c5781602001602082028036833780820191505090505b509050600080600090505b600a811015611f4557888181518110611ea9577f4e487b7100000000000000000000000000000000000000000000000000000000600052603260045260246000fd5b6020026020010151838381518110611eea577f4e487b7100000000000000000000000000000000000000000000000000000000600052603260045260246000fd5b602002602001019073ffffffffffffffffffffffffffffffffffffffff16908173ffffffffffffffffffffffffffffffffffffffff16815250508180611f2f906131dc565b9250508080611f3d906131dc565b915050611e67565b5060005b600a81101561202757868181518110611f8b577f4e487b7100000000000000000000000000000000000000000000000000000000600052603260045260246000fd5b6020026020010151838381518110611fcc577f4e487b7100000000000000000000000000000000000000000000000000000000600052603260045260246000fd5b602002602001019073ffffffffffffffffffffffffffffffffffffffff16908173ffffffffffffffffffffffffffffffffffffffff16815250508180612011906131dc565b925050808061201f906131dc565b915050611f49565b5060005b600a8110156121095784818151811061206d577f4e487b7100000000000000000000000000000000000000000000000000000000600052603260045260246000fd5b60200260200101518383815181106120ae577f4e487b7100000000000000000000000000000000000000000000000000000000600052603260045260246000fd5b602002602001019073ffffffffffffffffffffffffffffffffffffffff16908173ffffffffffffffffffffffffffffffffffffffff168152505081806120f3906131dc565b9250508080612101906131dc565b91505061202b565b50819b505050505050505050505050919050565b6121a0846323b872dd60e01b85858560405160240161213e93929190612bde565b604051602081830303815290604052907bffffffffffffffffffffffffffffffffffffffffffffffffffffffff19166020820180517bffffffffffffffffffffffffffffffffffffffffffffffffffffffff83818316178352505050506121a6565b50505050565b6000612208826040518060400160405280602081526020017f5361666545524332303a206c6f772d6c6576656c2063616c6c206661696c65648152508573ffffffffffffffffffffffffffffffffffffffff1661226d9092919063ffffffff16565b9050600081511115612268578080602001905181019061222891906126a8565b612267576040517f08c379a000000000000000000000000000000000000000000000000000000000815260040161225e90612e26565b60405180910390fd5b5b505050565b606061227c8484600085612285565b90509392505050565b6060824710156122ca576040517f08c379a00000000000000000000000000000000000000000000000000000000081526004016122c190612d66565b60405180910390fd5b6122d385612399565b612312576040517f08c379a000000000000000000000000000000000000000000000000000000000815260040161230990612e06565b60405180910390fd5b6000808673ffffffffffffffffffffffffffffffffffffffff16858760405161233b9190612bac565b60006040518083038185875af1925050503d8060008114612378576040519150601f19603f3d011682016040523d82523d6000602084013e61237d565b606091505b509150915061238d8282866123bc565b92505050949350505050565b6000808273ffffffffffffffffffffffffffffffffffffffff163b119050919050565b606083156123cc5782905061241c565b6000835111156123df5782518084602001fd5b816040517f08c379a00000000000000000000000000000000000000000000000000000000081526004016124139190612cc6565b60405180910390fd5b9392505050565b82805482825590600052602060002090810192821561249c579160200282015b8281111561249b5782518260006101000a81548173ffffffffffffffffffffffffffffffffffffffff021916908373ffffffffffffffffffffffffffffffffffffffff16021790555091602001919060010190612443565b5b5090506124a9919061256a565b5090565b60405180606001604052806060815260200160008152602001600073ffffffffffffffffffffffffffffffffffffffff1681525090565b8280546124f090613179565b90600052602060002090601f0160209004810192826125125760008555612559565b82601f1061252b57805160ff1916838001178555612559565b82800160010185558215612559579182015b8281111561255857825182559160200191906001019061253d565b5b509050612566919061256a565b5090565b5b8082111561258357600081600090555060010161256b565b5090565b600061259a61259584612ecf565b612eaa565b9050828152602081018484840111156125b257600080fd5b6125bd848285613137565b509392505050565b6000813590506125d4816135e4565b92915050565b6000815190506125e9816135fb565b92915050565b600082601f83011261260057600080fd5b8135612610848260208601612587565b91505092915050565b60008135905061262881613612565b92915050565b60008151905061263d81613612565b92915050565b60006020828403121561265557600080fd5b6000612663848285016125c5565b91505092915050565b6000806040838503121561267f57600080fd5b600061268d858286016125c5565b925050602061269e85828601612619565b9150509250929050565b6000602082840312156126ba57600080fd5b60006126c8848285016125da565b91505092915050565b6000806000606084860312156126e657600080fd5b600084013567ffffffffffffffff81111561270057600080fd5b61270c868287016125ef565b935050602061271d868287016125c5565b925050604061272e868287016125c5565b9150509250925092565b60006020828403121561274a57600080fd5b600061275884828501612619565b91505092915050565b60006020828403121561277357600080fd5b60006127818482850161262e565b91505092915050565b6000806040838503121561279d57600080fd5b60006127ab85828601612619565b92505060206127bc858286016125c5565b9150509250929050565b600080604083850312156127d957600080fd5b60006127e785828601612619565b92505060206127f885828601612619565b9150509250929050565b600061280e838361282e565b60208301905092915050565b60006128268383612b3e565b905092915050565b612837816130ca565b82525050565b612846816130ca565b82525050565b600061285782612f20565b6128618185612f66565b935061286c83612f00565b8060005b8381101561289d5781516128848882612802565b975061288f83612f4c565b925050600181019050612870565b5085935050505092915050565b60006128b582612f2b565b6128bf8185612f77565b9350836020820285016128d185612f10565b8060005b8581101561290d57848403895281516128ee858261281a565b94506128f983612f59565b925060208a019950506001810190506128d5565b50829750879550505050505092915050565b612928816130dc565b82525050565b600061293982612f36565b6129438185612f88565b9350612953818560208601613146565b80840191505092915050565b61296881613125565b82525050565b600061297982612f41565b6129838185612f93565b9350612993818560208601613146565b61299c81613341565b840191505092915050565b60006129b282612f41565b6129bc8185612fa4565b93506129cc818560208601613146565b6129d581613341565b840191505092915050565b60006129ed602383612fa4565b91506129f882613352565b604082019050919050565b6000612a10602f83612fa4565b9150612a1b826133a1565b604082019050919050565b6000612a33602683612fa4565b9150612a3e826133f0565b604082019050919050565b6000612a56601e83612fa4565b9150612a618261343f565b602082019050919050565b6000612a79601783612fa4565b9150612a8482613468565b602082019050919050565b6000612a9c602683612fa4565b9150612aa782613491565b604082019050919050565b6000612abf602d83612fa4565b9150612aca826134e0565b604082019050919050565b6000612ae2601d83612fa4565b9150612aed8261352f565b602082019050919050565b6000612b05602a83612fa4565b9150612b1082613558565b604082019050919050565b6000612b28601f83612fa4565b9150612b33826135a7565b602082019050919050565b60006060830160008301518482036000860152612b5b828261296e565b9150506020830151612b706020860182612b8e565b506040830151612b83604086018261282e565b508091505092915050565b612b978161311b565b82525050565b612ba68161311b565b82525050565b6000612bb8828461292e565b915081905092915050565b6000602082019050612bd8600083018461283d565b92915050565b6000606082019050612bf3600083018661283d565b612c00602083018561283d565b612c0d6040830184612b9d565b949350505050565b60006020820190508181036000830152612c2f818461284c565b905092915050565b60006020820190508181036000830152612c5181846128aa565b905092915050565b6000602082019050612c6e600083018461291f565b92915050565b6000606082019050612c89600083018661291f565b612c96602083018561291f565b612ca36040830184612b9d565b949350505050565b6000602082019050612cc0600083018461295f565b92915050565b60006020820190508181036000830152612ce081846129a7565b905092915050565b60006060820190508181036000830152612d0281866129a7565b9050612d116020830185612b9d565b612d1e604083018461283d565b949350505050565b60006020820190508181036000830152612d3f816129e0565b9050919050565b60006020820190508181036000830152612d5f81612a03565b9050919050565b60006020820190508181036000830152612d7f81612a26565b9050919050565b60006020820190508181036000830152612d9f81612a49565b9050919050565b60006020820190508181036000830152612dbf81612a6c565b9050919050565b60006020820190508181036000830152612ddf81612a8f565b9050919050565b60006020820190508181036000830152612dff81612ab2565b9050919050565b60006020820190508181036000830152612e1f81612ad5565b9050919050565b60006020820190508181036000830152612e3f81612af8565b9050919050565b60006020820190508181036000830152612e5f81612b1b565b9050919050565b6000602082019050612e7b6000830184612b9d565b92915050565b6000604082019050612e966000830185612b9d565b612ea36020830184612b9d565b9392505050565b6000612eb4612ec5565b9050612ec082826131ab565b919050565b6000604051905090565b600067ffffffffffffffff821115612eea57612ee9613312565b5b612ef382613341565b9050602081019050919050565b6000819050602082019050919050565b6000819050602082019050919050565b600081519050919050565b600081519050919050565b600081519050919050565b600081519050919050565b6000602082019050919050565b6000602082019050919050565b600082825260208201905092915050565b600082825260208201905092915050565b600081905092915050565b600082825260208201905092915050565b600082825260208201905092915050565b6000612fc08261311b565b9150612fcb8361311b565b9250827fffffffffffffffffffffffffffffffffffffffffffffffffffffffffffffffff0382111561300057612fff613256565b5b828201905092915050565b60006130168261311b565b91506130218361311b565b92508261303157613030613285565b5b828204905092915050565b60006130478261311b565b91506130528361311b565b9250817fffffffffffffffffffffffffffffffffffffffffffffffffffffffffffffffff048311821515161561308b5761308a613256565b5b828202905092915050565b60006130a18261311b565b91506130ac8361311b565b9250828210156130bf576130be613256565b5b828203905092915050565b60006130d5826130fb565b9050919050565b60008115159050919050565b60008190506130f6826135d0565b919050565b600073ffffffffffffffffffffffffffffffffffffffff82169050919050565b6000819050919050565b6000613130826130e8565b9050919050565b82818337600083830152505050565b60005b83811015613164578082015181840152602081019050613149565b83811115613173576000848401525b50505050565b6000600282049050600182168061319157607f821691505b602082108114156131a5576131a46132e3565b5b50919050565b6131b482613341565b810181811067ffffffffffffffff821117156131d3576131d2613312565b5b80604052505050565b60006131e78261311b565b91507fffffffffffffffffffffffffffffffffffffffffffffffffffffffffffffffff82141561321a57613219613256565b5b600182019050919050565b60006132308261311b565b915061323b8361311b565b92508261324b5761324a613285565b5b828206905092915050565b7f4e487b7100000000000000000000000000000000000000000000000000000000600052601160045260246000fd5b7f4e487b7100000000000000000000000000000000000000000000000000000000600052601260045260246000fd5b7f4e487b7100000000000000000000000000000000000000000000000000000000600052602160045260246000fd5b7f4e487b7100000000000000000000000000000000000000000000000000000000600052602260045260246000fd5b7f4e487b7100000000000000000000000000000000000000000000000000000000600052604160045260246000fd5b6000601f19601f8301169050919050565b7f50726f706f73616c732061726520636c6f73656420666f72207468697320726f60008201527f756e640000000000000000000000000000000000000000000000000000000000602082015250565b7f446f6e6174696f6e7320666f72207468697320726f756e64206861766520616c60008201527f7265616479206265656e2073656e740000000000000000000000000000000000602082015250565b7f416464726573733a20696e73756666696369656e742062616c616e636520666f60008201527f722063616c6c0000000000000000000000000000000000000000000000000000602082015250565b7f5468697320726f756e64206973206e6f742066696e6973686564207965740000600082015250565b7f41646472657373206973206e6f742061206d656d626572000000000000000000600082015250565b7f546869732070726f6a6563742068617320616c7265616479206265656e20737560008201527f626d697465640000000000000000000000000000000000000000000000000000602082015250565b7f546869732070726f6a656374206973206e6f742070617274206f66207468652060008201527f63757272656e7420726f756e6400000000000000000000000000000000000000602082015250565b7f416464726573733a2063616c6c20746f206e6f6e2d636f6e7472616374000000600082015250565b7f5361666545524332303a204552433230206f7065726174696f6e20646964206e60008201527f6f74207375636365656400000000000000000000000000000000000000000000602082015250565b7f566f74696e67207068617365206973206e6f7420796574207374617274656400600082015250565b600281106135e1576135e06132b4565b5b50565b6135ed816130ca565b81146135f857600080fd5b50565b613604816130dc565b811461360f57600080fd5b50565b61361b8161311b565b811461362657600080fd5b5056fea26469706673582212207431865911f4af9163d3bcd2812ed828a017da32c84d5d514c70b86cc34cb74264736f6c63430008040033",
  "linkReferences": {},
  "deployedLinkReferences": {}
}