{
  "_format": "hh-sol-artifact-1",
  "contractName": "GreenDAO",
  "sourceName": "contracts/GreenDAO.sol",
  "abi": [
    {
      "inputs": [
        {
          "internalType": "address",
          "name": "_token",
          "type": "address"
        },
        {
          "internalType": "uint256",
          "name": "_pricePerVote",
          "type": "uint256"
        }
      ],
      "stateMutability": "nonpayable",
      "type": "constructor"
    },
    {
      "inputs": [
        {
          "internalType": "address",
          "name": "",
          "type": "address"
        }
      ],
      "name": "DAOMembers",
      "outputs": [
        {
          "internalType": "bool",
          "name": "",
          "type": "bool"
        }
      ],
      "stateMutability": "view",
      "type": "function"
    },
    {
      "inputs": [],
      "name": "PROPOSAL_DURATION",
      "outputs": [
        {
          "internalType": "uint256",
          "name": "",
          "type": "uint256"
        }
      ],
      "stateMutability": "view",
      "type": "function"
    },
    {
      "inputs": [],
      "name": "ROUND_DURATION",
      "outputs": [
        {
          "internalType": "uint256",
          "name": "",
          "type": "uint256"
        }
      ],
      "stateMutability": "view",
      "type": "function"
    },
    {
      "inputs": [
        {
          "internalType": "string",
          "name": "_data",
          "type": "string"
        },
        {
          "internalType": "address",
          "name": "_proposedRecipient",
          "type": "address"
        }
      ],
      "name": "addProject",
      "outputs": [],
      "stateMutability": "nonpayable",
      "type": "function"
    },
    {
      "inputs": [],
      "name": "anonymousDonations",
      "outputs": [
        {
          "internalType": "uint256",
          "name": "",
          "type": "uint256"
        }
      ],
      "stateMutability": "view",
      "type": "function"
    },
    {
      "inputs": [
        {
          "internalType": "bytes",
          "name": "checkData",
          "type": "bytes"
        }
      ],
      "name": "checkUpkeep",
      "outputs": [
        {
          "internalType": "bool",
          "name": "upkeepNeeded",
          "type": "bool"
        },
        {
          "internalType": "bytes",
          "name": "performData",
          "type": "bytes"
        }
      ],
      "stateMutability": "nonpayable",
      "type": "function"
    },
    {
      "inputs": [],
      "name": "distribute2Projects",
      "outputs": [],
      "stateMutability": "nonpayable",
      "type": "function"
    },
    {
      "inputs": [
        {
          "internalType": "uint256",
          "name": "roundId",
          "type": "uint256"
        }
      ],
      "name": "distributeToProjects",
      "outputs": [],
      "stateMutability": "nonpayable",
      "type": "function"
    },
    {
      "inputs": [
        {
          "internalType": "uint256",
          "name": "amount",
          "type": "uint256"
        }
      ],
      "name": "donate",
      "outputs": [
        {
          "internalType": "uint256",
          "name": "",
          "type": "uint256"
        }
      ],
      "stateMutability": "nonpayable",
      "type": "function"
    },
    {
      "inputs": [],
      "name": "getCurrentProjects",
      "outputs": [
        {
          "internalType": "address[]",
          "name": "",
          "type": "address[]"
        },
        {
          "components": [
            {
              "internalType": "string",
              "name": "data",
              "type": "string"
            },
            {
              "internalType": "uint256",
              "name": "votes",
              "type": "uint256"
            },
            {
              "internalType": "address",
              "name": "proposedBy",
              "type": "address"
            }
          ],
          "internalType": "struct GreenDAO.Project[]",
          "name": "",
          "type": "tuple[]"
        }
      ],
      "stateMutability": "view",
      "type": "function"
    },
    {
      "inputs": [],
      "name": "getCurrentRound",
      "outputs": [
        {
          "internalType": "uint256",
          "name": "",
          "type": "uint256"
        }
      ],
      "stateMutability": "view",
      "type": "function"
    },
    {
      "inputs": [],
      "name": "getCurrentRoundStatus",
      "outputs": [
        {
          "internalType": "enum GreenDAO.RoundStatus",
          "name": "",
          "type": "uint8"
        }
      ],
      "stateMutability": "view",
      "type": "function"
    },
    {
      "inputs": [],
      "name": "getLastWinners",
      "outputs": [
        {
          "internalType": "address[]",
          "name": "",
          "type": "address[]"
        },
        {
          "components": [
            {
              "internalType": "string",
              "name": "data",
              "type": "string"
            },
            {
              "internalType": "uint256",
              "name": "votes",
              "type": "uint256"
            },
            {
              "internalType": "address",
              "name": "proposedBy",
              "type": "address"
            }
          ],
          "internalType": "struct GreenDAO.Project[]",
          "name": "",
          "type": "tuple[]"
        }
      ],
      "stateMutability": "view",
      "type": "function"
    },
    {
      "inputs": [
        {
          "internalType": "address",
          "name": "user",
          "type": "address"
        }
      ],
      "name": "getProjectsMemberVotedFor",
      "outputs": [
        {
          "internalType": "address[]",
          "name": "",
          "type": "address[]"
        }
      ],
      "stateMutability": "view",
      "type": "function"
    },
    {
      "inputs": [
        {
          "internalType": "address",
          "name": "user",
          "type": "address"
        }
      ],
      "name": "isMember",
      "outputs": [
        {
          "internalType": "bool",
          "name": "",
          "type": "bool"
        }
      ],
      "stateMutability": "view",
      "type": "function"
    },
    {
      "inputs": [
        {
          "internalType": "address",
          "name": "",
          "type": "address"
        }
      ],
      "name": "members",
      "outputs": [
        {
          "internalType": "uint256",
          "name": "votes",
          "type": "uint256"
        },
        {
          "internalType": "uint256",
          "name": "lastRoundPaid",
          "type": "uint256"
        }
      ],
      "stateMutability": "view",
      "type": "function"
    },
    {
      "inputs": [
        {
          "internalType": "bytes",
          "name": "performData",
          "type": "bytes"
        }
      ],
      "name": "performUpkeep",
      "outputs": [],
      "stateMutability": "nonpayable",
      "type": "function"
    },
    {
      "inputs": [],
      "name": "pricePerVote",
      "outputs": [
        {
          "internalType": "uint256",
          "name": "",
          "type": "uint256"
        }
      ],
      "stateMutability": "view",
      "type": "function"
    },
    {
      "inputs": [
        {
          "internalType": "uint256",
          "name": "",
          "type": "uint256"
        },
        {
          "internalType": "address",
          "name": "",
          "type": "address"
        }
      ],
      "name": "projects",
      "outputs": [
        {
          "internalType": "string",
          "name": "data",
          "type": "string"
        },
        {
          "internalType": "uint256",
          "name": "votes",
          "type": "uint256"
        },
        {
          "internalType": "address",
          "name": "proposedBy",
          "type": "address"
        }
      ],
      "stateMutability": "view",
      "type": "function"
    },
    {
      "inputs": [
        {
          "internalType": "uint256",
          "name": "",
          "type": "uint256"
        },
        {
          "internalType": "uint256",
          "name": "",
          "type": "uint256"
        }
      ],
      "name": "projectsPerRound",
      "outputs": [
        {
          "internalType": "address",
          "name": "",
          "type": "address"
        }
      ],
      "stateMutability": "view",
      "type": "function"
    },
    {
      "inputs": [
        {
          "internalType": "address",
          "name": "_tokenAddress",
          "type": "address"
        }
      ],
      "name": "pullTokens",
      "outputs": [],
      "stateMutability": "nonpayable",
      "type": "function"
    },
    {
      "inputs": [
        {
          "internalType": "uint256",
          "name": "",
          "type": "uint256"
        }
      ],
      "name": "rounds",
      "outputs": [
        {
          "internalType": "bool",
          "name": "hasBeenPaid",
          "type": "bool"
        },
        {
          "internalType": "uint256",
          "name": "balance",
          "type": "uint256"
        }
      ],
      "stateMutability": "view",
      "type": "function"
    },
    {
      "inputs": [],
      "name": "start",
      "outputs": [
        {
          "internalType": "uint256",
          "name": "",
          "type": "uint256"
        }
      ],
      "stateMutability": "view",
      "type": "function"
    },
    {
      "inputs": [],
      "name": "token",
      "outputs": [
        {
          "internalType": "address",
          "name": "",
          "type": "address"
        }
      ],
      "stateMutability": "view",
      "type": "function"
    },
    {
      "inputs": [],
      "name": "totalCollected",
      "outputs": [
        {
          "internalType": "uint256",
          "name": "",
          "type": "uint256"
        }
      ],
      "stateMutability": "view",
      "type": "function"
    },
    {
      "inputs": [],
      "name": "totalMembers",
      "outputs": [
        {
          "internalType": "uint256",
          "name": "",
          "type": "uint256"
        }
      ],
      "stateMutability": "view",
      "type": "function"
    },
    {
      "inputs": [],
      "name": "totalPaidProjects",
      "outputs": [
        {
          "internalType": "uint256",
          "name": "",
          "type": "uint256"
        }
      ],
      "stateMutability": "view",
      "type": "function"
    },
    {
      "inputs": [
        {
          "internalType": "address",
          "name": "projectAddress",
          "type": "address"
        },
        {
          "internalType": "uint256",
          "name": "nbOfVote",
          "type": "uint256"
        }
      ],
      "name": "voteForProject",
      "outputs": [],
      "stateMutability": "nonpayable",
      "type": "function"
    }
  ],
  "bytecode": "0x60c06040523480156200001157600080fd5b5060405162004c3638038062004c368339818101604052810190620000379190620001de565b336000806101000a81548173ffffffffffffffffffffffffffffffffffffffff021916908373ffffffffffffffffffffffffffffffffffffffff160217905550426001819055508173ffffffffffffffffffffffffffffffffffffffff1660808173ffffffffffffffffffffffffffffffffffffffff1660601b815250508173ffffffffffffffffffffffffffffffffffffffff1663313ce5676040518163ffffffff1660e01b815260040160206040518083038186803b158015620000fc57600080fd5b505afa15801562000111573d6000803e3d6000fd5b505050506040513d601f19601f820116820180604052508101906200013791906200021f565b600a62000145919062000300565b811162000189576040517f08c379a0000000000000000000000000000000000000000000000000000000008152600401620001809062000272565b60405180910390fd5b8060a0818152505050506200053b565b600081519050620001aa81620004ed565b92915050565b600081519050620001c18162000507565b92915050565b600081519050620001d88162000521565b92915050565b60008060408385031215620001f257600080fd5b6000620002028582860162000199565b92505060206200021585828601620001b0565b9150509250929050565b6000602082840312156200023257600080fd5b60006200024284828501620001c7565b91505092915050565b60006200025a60168362000294565b91506200026782620004c4565b602082019050919050565b600060208201905081810360008301526200028d816200024b565b9050919050565b600082825260208201905092915050565b6000808291508390505b6001851115620002f757808604811115620002cf57620002ce62000488565b5b6001851615620002df5780820291505b8081029050620002ef85620004b7565b9450620002af565b94509492505050565b60006200030d8262000471565b91506200031a836200047b565b9250620003497fffffffffffffffffffffffffffffffffffffffffffffffffffffffffffffffff848462000351565b905092915050565b60008262000363576001905062000436565b8162000373576000905062000436565b81600181146200038c57600281146200039757620003cd565b600191505062000436565b60ff841115620003ac57620003ab62000488565b5b8360020a915084821115620003c657620003c562000488565b5b5062000436565b5060208310610133831016604e8410600b8410161715620004075782820a90508381111562000401576200040062000488565b5b62000436565b620004168484846001620002a5565b9250905081840481111562000430576200042f62000488565b5b81810290505b9392505050565b60006200044a8262000451565b9050919050565b600073ffffffffffffffffffffffffffffffffffffffff82169050919050565b6000819050919050565b600060ff82169050919050565b7f4e487b7100000000000000000000000000000000000000000000000000000000600052601160045260246000fd5b60008160011c9050919050565b7f50726963652070657220766f746520746f6f206c6f7700000000000000000000600082015250565b620004f8816200043d565b81146200050457600080fd5b50565b620005128162000471565b81146200051e57600080fd5b50565b6200052c816200047b565b81146200053857600080fd5b50565b60805160601c60a0516146af620005876000396000818161061f01528181611ccd0152611e56015260008181610a0801528181610b2a01528181611bd0015261227001526146af6000f3fe608060405234801561001057600080fd5b50600436106101c45760003560e01c80637f097010116100f9578063be9a655511610097578063e29eb83611610071578063e29eb83614610511578063f14faf6f1461052f578063f2645e371461055f578063fc0c546a1461057e576101c4565b8063be9a6555146104bb578063bf65a9df146104d9578063cc90e725146104f5576101c4565b80638de16615116100d35780638de166151461041e578063956909361461044e578063a230c5241461046d578063a32bf5971461049d576101c4565b80637f097010146103b1578063871e5d73146103cf5780638c65c81f146103ed576101c4565b80634585e33b1161016657806368ef87901161014057806368ef8790146103145780636da1a9f8146103325780636e04ff0d1461036257806376e9255914610393576101c4565b80634585e33b146102a8578063534797a0146102c45780636641ea08146102f6576101c4565b806315df7700116101a257806315df77001461022257806329a8b19f14610240578063330b4ab21461025c57806342e9c6ce1461028c576101c4565b80630667cfcf146101c957806308ae4b0c146101d35780630d31d83514610204575b600080fd5b6101d161059c565b005b6101ed60048036038101906101e89190613297565b6105ba565b6040516101fb929190613d32565b60405180910390f35b61020c6105de565b6040516102199190613a9c565b60405180910390f35b61022a61061d565b6040516102379190613d17565b60405180910390f35b61025a600480360381019061025591906133be565b610641565b005b6102766004803603810190610271919061344c565b610a4c565b6040516102839190613954565b60405180910390f35b6102a660048036038101906102a19190613297565b610a9a565b005b6102c260048036038101906102bd9190613325565b610c73565b005b6102de60048036038101906102d99190613410565b610d19565b6040516102ed93929190613ad9565b60405180910390f35b6102fe610df8565b60405161030b9190613d17565b60405180910390f35b61031c610dff565b6040516103299190613d17565b60405180910390f35b61034c60048036038101906103479190613297565b610e05565b6040516103599190613a28565b60405180910390f35b61037c60048036038101906103779190613325565b610e25565b60405161038a929190613a43565b60405180910390f35b61039b610e70565b6040516103a89190613d17565b60405180910390f35b6103b9610e76565b6040516103c69190613d17565b60405180910390f35b6103d7610e7d565b6040516103e49190613d17565b60405180910390f35b610407600480360381019061040291906133be565b610e83565b604051610415929190613a73565b60405180910390f35b61043860048036038101906104339190613297565b610eb4565b60405161044591906139cf565b60405180910390f35b610456610fd2565b6040516104649291906139f1565b60405180910390f35b61048760048036038101906104829190613297565b611353565b6040516104949190613a28565b60405180910390f35b6104a56113ad565b6040516104b29190613d17565b60405180910390f35b6104c36113e1565b6040516104d09190613d17565b60405180910390f35b6104f360048036038101906104ee91906132c0565b6113e7565b005b61050f600480360381019061050a919061336a565b61184e565b005b610519611bc3565b6040516105269190613d17565b60405180910390f35b610549600480360381019061054491906133be565b611bc9565b6040516105569190613d17565b60405180910390f35b610567611f46565b6040516105759291906139f1565b60405180910390f35b61058661226e565b6040516105939190613954565b60405180910390f35b6105b860016105a96113ad565b6105b39190613f58565b610641565b565b60026020528060005260406000206000915090508060000154908060010154905082565b600080600154426105ef9190613f58565b9050620151806202a3008261060491906140e7565b101561061457600091505061061a565b60019150505b90565b7f000000000000000000000000000000000000000000000000000000000000000081565b6005600082815260200190815260200160002060000160009054906101000a900460ff16156106a5576040517f08c379a000000000000000000000000000000000000000000000000000000000815260040161069c90613b97565b60405180910390fd5b6106ad6113ad565b81141580156106bd575060008114155b6106fc576040517f08c379a00000000000000000000000000000000000000000000000000000000081526004016106f390613bd7565b60405180910390fd5b600060046000838152602001908152602001600020805490501415610756576040517f08c379a000000000000000000000000000000000000000000000000000000000815260040161074d90613b17565b60405180910390fd5b60016005600083815260200190815260200160002060000160006101000a81548160ff021916908315150217905550600061079082612292565b90508051600760008282546107a59190613e77565b92505081905550600080600090505b825181101561087d5760008382815181106107f8577f4e487b7100000000000000000000000000000000000000000000000000000000600052603260045260246000fd5b6020026020010151905060006003600087815260200190815260200160002060008373ffffffffffffffffffffffffffffffffffffffff1673ffffffffffffffffffffffffffffffffffffffff16815260200190815260200160002060010154905080846108669190613e77565b9350505080806108759061409e565b9150506107b4565b5060005b8251811015610a465760008382815181106108c5577f4e487b7100000000000000000000000000000000000000000000000000000000600052603260045260246000fd5b60200260200101519050600073ffffffffffffffffffffffffffffffffffffffff168173ffffffffffffffffffffffffffffffffffffffff1614610a325760056000868152602001908152602001600020600101819080600181540180825580915050600190039060005260206000200160009091909190916101000a81548173ffffffffffffffffffffffffffffffffffffffff021916908373ffffffffffffffffffffffffffffffffffffffff16021790555060006003600087815260200190815260200160002060008373ffffffffffffffffffffffffffffffffffffffff1673ffffffffffffffffffffffffffffffffffffffff168152602001908152602001600020600101549050600084826109e09190613ecd565b6005600089815260200190815260200160002060020154610a019190613efe565b9050610a2f7f0000000000000000000000000000000000000000000000000000000000000000308584612d2b565b50505b508080610a3e9061409e565b915050610881565b50505050565b60046020528160005260406000208181548110610a6857600080fd5b906000526020600020016000915091509054906101000a900473ffffffffffffffffffffffffffffffffffffffff1681565b60008054906101000a900473ffffffffffffffffffffffffffffffffffffffff1673ffffffffffffffffffffffffffffffffffffffff163373ffffffffffffffffffffffffffffffffffffffff1614610b28576040517f08c379a0000000000000000000000000000000000000000000000000000000008152600401610b1f90613c37565b60405180910390fd5b7f000000000000000000000000000000000000000000000000000000000000000073ffffffffffffffffffffffffffffffffffffffff168173ffffffffffffffffffffffffffffffffffffffff161415610bb7576040517f08c379a0000000000000000000000000000000000000000000000000000000008152600401610bae90613b37565b60405180910390fd5b60008173ffffffffffffffffffffffffffffffffffffffff166370a08231306040518263ffffffff1660e01b8152600401610bf29190613954565b60206040518083038186803b158015610c0a57600080fd5b505afa158015610c1e573d6000803e3d6000fd5b505050506040513d601f19601f82011682018060405250810190610c4291906133e7565b9050610c6f8260008054906101000a900473ffffffffffffffffffffffffffffffffffffffff1683612db4565b5050565b60006001610c7f6113ad565b610c899190613f58565b90506005600082815260200190815260200160002060000160009054906101000a900460ff16610d14573073ffffffffffffffffffffffffffffffffffffffff16630667cfcf6040518163ffffffff1660e01b8152600401600060405180830381600087803b158015610cfb57600080fd5b505af1158015610d0f573d6000803e3d6000fd5b505050505b505050565b600360205281600052604060002060205280600052604060002060009150915050806000018054610d499061403b565b80601f0160208091040260200160405190810160405280929190818152602001828054610d759061403b565b8015610dc25780601f10610d9757610100808354040283529160200191610dc2565b820191906000526020600020905b815481529060010190602001808311610da557829003601f168201915b5050505050908060010154908060020160009054906101000a900473ffffffffffffffffffffffffffffffffffffffff16905083565b6202a30081565b600a5481565b60086020528060005260406000206000915054906101000a900460ff1681565b6000606060006001610e356113ad565b610e3f9190613f58565b90506005600082815260200190815260200160002060000160009054906101000a900460ff16159250509250929050565b60095481565b6201518081565b60075481565b60056020528060005260406000206000915090508060000160009054906101000a900460ff16908060020154905082565b6060610ebf82611353565b610efe576040517f08c379a0000000000000000000000000000000000000000000000000000000008152600401610ef590613bf7565b60405180910390fd5b6000600260008473ffffffffffffffffffffffffffffffffffffffff1673ffffffffffffffffffffffffffffffffffffffff168152602001908152602001600020600201805480602002602001604051908101604052809291908181526020018280548015610fc257602002820191906000526020600020905b8160009054906101000a900473ffffffffffffffffffffffffffffffffffffffff1673ffffffffffffffffffffffffffffffffffffffff1681526020019060010190808311610f78575b5050505050905080915050919050565b6060806001610fdf6113ad565b1161101f576040517f08c379a000000000000000000000000000000000000000000000000000000000815260040161101690613c77565b60405180910390fd5b6000600161102b6113ad565b6110359190613f58565b90506000600560008381526020019081526020016000206001018054806020026020016040519081016040528092919081815260200182805480156110cf57602002820191906000526020600020905b8160009054906101000a900473ffffffffffffffffffffffffffffffffffffffff1673ffffffffffffffffffffffffffffffffffffffff1681526020019060010190808311611085575b505050505090506000815167ffffffffffffffff811115611119577f4e487b7100000000000000000000000000000000000000000000000000000000600052604160045260246000fd5b60405190808252806020026020018201604052801561115257816020015b61113f6130b7565b8152602001906001900390816111375790505b50905060005b8251811015611345576003600085815260200190815260200160002060008483815181106111af577f4e487b7100000000000000000000000000000000000000000000000000000000600052603260045260246000fd5b602002602001015173ffffffffffffffffffffffffffffffffffffffff1673ffffffffffffffffffffffffffffffffffffffff16815260200190815260200160002060405180606001604052908160008201805461120c9061403b565b80601f01602080910402602001604051908101604052809291908181526020018280546112389061403b565b80156112855780601f1061125a57610100808354040283529160200191611285565b820191906000526020600020905b81548152906001019060200180831161126857829003601f168201915b50505050508152602001600182015481526020016002820160009054906101000a900473ffffffffffffffffffffffffffffffffffffffff1673ffffffffffffffffffffffffffffffffffffffff1673ffffffffffffffffffffffffffffffffffffffff1681525050828281518110611327577f4e487b7100000000000000000000000000000000000000000000000000000000600052603260045260246000fd5b6020026020010181905250808061133d9061409e565b915050611158565b508181945094505050509091565b60008061135e6113ad565b905080600260008573ffffffffffffffffffffffffffffffffffffffff1673ffffffffffffffffffffffffffffffffffffffff1681526020019081526020016000206001015414915050919050565b600080600154426113be9190613f58565b905060016202a300826113d19190613ecd565b6113db9190613e77565b91505090565b60015481565b6000600260003373ffffffffffffffffffffffffffffffffffffffff1673ffffffffffffffffffffffffffffffffffffffff16815260200190815260200160002060000154141561146d576040517f08c379a000000000000000000000000000000000000000000000000000000000815260040161146490613cd7565b60405180910390fd5b80600260003373ffffffffffffffffffffffffffffffffffffffff1673ffffffffffffffffffffffffffffffffffffffff1681526020019081526020016000206000015410156114f2576040517f08c379a00000000000000000000000000000000000000000000000000000000081526004016114e990613cf7565b60405180910390fd5b60018081111561152b577f4e487b7100000000000000000000000000000000000000000000000000000000600052602160045260246000fd5b6115336105de565b600181111561156b577f4e487b7100000000000000000000000000000000000000000000000000000000600052602160045260246000fd5b146115ab576040517f08c379a00000000000000000000000000000000000000000000000000000000081526004016115a290613cb7565b60405180910390fd5b6115b433611353565b6115f3576040517f08c379a00000000000000000000000000000000000000000000000000000000081526004016115ea90613bf7565b60405180910390fd5b600073ffffffffffffffffffffffffffffffffffffffff16600360006116176113ad565b815260200190815260200160002060008473ffffffffffffffffffffffffffffffffffffffff1673ffffffffffffffffffffffffffffffffffffffff16815260200190815260200160002060020160009054906101000a900473ffffffffffffffffffffffffffffffffffffffff1673ffffffffffffffffffffffffffffffffffffffff1614156116dd576040517f08c379a00000000000000000000000000000000000000000000000000000000081526004016116d490613c17565b60405180910390fd5b80600260003373ffffffffffffffffffffffffffffffffffffffff1673ffffffffffffffffffffffffffffffffffffffff168152602001908152602001600020600001600082825461172f9190613f58565b92505081905550600260003373ffffffffffffffffffffffffffffffffffffffff1673ffffffffffffffffffffffffffffffffffffffff168152602001908152602001600020600201829080600181540180825580915050600190039060005260206000200160009091909190916101000a81548173ffffffffffffffffffffffffffffffffffffffff021916908373ffffffffffffffffffffffffffffffffffffffff16021790555080600360006117e66113ad565b815260200190815260200160002060008473ffffffffffffffffffffffffffffffffffffffff1673ffffffffffffffffffffffffffffffffffffffff16815260200190815260200160002060010160008282546118439190613e77565b925050819055505050565b60006001811115611888577f4e487b7100000000000000000000000000000000000000000000000000000000600052602160045260246000fd5b6118906105de565b60018111156118c8577f4e487b7100000000000000000000000000000000000000000000000000000000600052602160045260246000fd5b14611908576040517f08c379a00000000000000000000000000000000000000000000000000000000081526004016118ff90613b57565b60405180910390fd5b61191133611353565b611950576040517f08c379a000000000000000000000000000000000000000000000000000000000815260040161194790613bf7565b60405180910390fd5b600061195a6113ad565b9050600073ffffffffffffffffffffffffffffffffffffffff166003600083815260200190815260200160002060008473ffffffffffffffffffffffffffffffffffffffff1673ffffffffffffffffffffffffffffffffffffffff16815260200190815260200160002060020160009054906101000a900473ffffffffffffffffffffffffffffffffffffffff1673ffffffffffffffffffffffffffffffffffffffff1614611a3e576040517f08c379a0000000000000000000000000000000000000000000000000000000008152600401611a3590613b77565b60405180910390fd5b611a466130b7565b83816000018190525033816040019073ffffffffffffffffffffffffffffffffffffffff16908173ffffffffffffffffffffffffffffffffffffffff1681525050806003600084815260200190815260200160002060008573ffffffffffffffffffffffffffffffffffffffff1673ffffffffffffffffffffffffffffffffffffffff1681526020019081526020016000206000820151816000019080519060200190611af49291906130ee565b506020820151816001015560408201518160020160006101000a81548173ffffffffffffffffffffffffffffffffffffffff021916908373ffffffffffffffffffffffffffffffffffffffff16021790555090505060046000838152602001908152602001600020839080600181540180825580915050600190039060005260206000200160009091909190916101000a81548173ffffffffffffffffffffffffffffffffffffffff021916908373ffffffffffffffffffffffffffffffffffffffff16021790555050505050565b60065481565b6000611bf77f0000000000000000000000000000000000000000000000000000000000000000333085612d2b565b6000611c016113ad565b905082600560008381526020019081526020016000206002016000828254611c299190613e77565b925050819055508260066000828254611c429190613e77565b9250508190555060006001811115611c83577f4e487b7100000000000000000000000000000000000000000000000000000000600052602160045260246000fd5b611c8b6105de565b6001811115611cc3577f4e487b7100000000000000000000000000000000000000000000000000000000600052602160045260246000fd5b148015611cf057507f00000000000000000000000000000000000000000000000000000000000000008310155b15611f2357611cfe33611353565b611e5457600860003373ffffffffffffffffffffffffffffffffffffffff1673ffffffffffffffffffffffffffffffffffffffff16815260200190815260200160002060009054906101000a900460ff16611d6c5760096000815480929190611d669061409e565b91905055505b6001600860003373ffffffffffffffffffffffffffffffffffffffff1673ffffffffffffffffffffffffffffffffffffffff16815260200190815260200160002060006101000a81548160ff02191690831515021790555080600260003373ffffffffffffffffffffffffffffffffffffffff1673ffffffffffffffffffffffffffffffffffffffff168152602001908152602001600020600101819055506000600260003373ffffffffffffffffffffffffffffffffffffffff1673ffffffffffffffffffffffffffffffffffffffff168152602001908152602001600020600001819055505b7f000000000000000000000000000000000000000000000000000000000000000083611e809190613ecd565b600260003373ffffffffffffffffffffffffffffffffffffffff1673ffffffffffffffffffffffffffffffffffffffff1681526020019081526020016000206000016000828254611ed19190613e77565b92505081905550600260003373ffffffffffffffffffffffffffffffffffffffff1673ffffffffffffffffffffffffffffffffffffffff16815260200190815260200160002060000154915050611f41565b600a6000815480929190611f369061409e565b919050555060009150505b919050565b6060806000611f536113ad565b9050600060046000838152602001908152602001600020805480602002602001604051908101604052809291908181526020018280548015611fea57602002820191906000526020600020905b8160009054906101000a900473ffffffffffffffffffffffffffffffffffffffff1673ffffffffffffffffffffffffffffffffffffffff1681526020019060010190808311611fa0575b505050505090506000815167ffffffffffffffff811115612034577f4e487b7100000000000000000000000000000000000000000000000000000000600052604160045260246000fd5b60405190808252806020026020018201604052801561206d57816020015b61205a6130b7565b8152602001906001900390816120525790505b50905060005b8251811015612260576003600085815260200190815260200160002060008483815181106120ca577f4e487b7100000000000000000000000000000000000000000000000000000000600052603260045260246000fd5b602002602001015173ffffffffffffffffffffffffffffffffffffffff1673ffffffffffffffffffffffffffffffffffffffff1681526020019081526020016000206040518060600160405290816000820180546121279061403b565b80601f01602080910402602001604051908101604052809291908181526020018280546121539061403b565b80156121a05780601f10612175576101008083540402835291602001916121a0565b820191906000526020600020905b81548152906001019060200180831161218357829003601f168201915b50505050508152602001600182015481526020016002820160009054906101000a900473ffffffffffffffffffffffffffffffffffffffff1673ffffffffffffffffffffffffffffffffffffffff1673ffffffffffffffffffffffffffffffffffffffff1681525050828281518110612242577f4e487b7100000000000000000000000000000000000000000000000000000000600052603260045260246000fd5b602002602001018190525080806122589061409e565b915050612073565b508181945094505050509091565b7f000000000000000000000000000000000000000000000000000000000000000081565b6060600080600080600090505b60046000878152602001908152602001600020805490508110156123fd57600060046000888152602001908152602001600020828154811061230a577f4e487b7100000000000000000000000000000000000000000000000000000000600052603260045260246000fd5b9060005260206000200160009054906101000a900473ffffffffffffffffffffffffffffffffffffffff16905060006003600089815260200190815260200160002060008373ffffffffffffffffffffffffffffffffffffffff1673ffffffffffffffffffffffffffffffffffffffff16815260200190815260200160002060010154905085811415801561239f5750848114155b80156123ab5750838114155b156123e857858111156123c6578493508594508095506123e7565b848111156123d9578493508094506123e6565b838111156123e5578093505b5b5b5b505080806123f59061409e565b91505061229f565b506000600a67ffffffffffffffff811115612441577f4e487b7100000000000000000000000000000000000000000000000000000000600052604160045260246000fd5b60405190808252806020026020018201604052801561246f5781602001602082028036833780820191505090505b5090506000600a67ffffffffffffffff8111156124b5577f4e487b7100000000000000000000000000000000000000000000000000000000600052604160045260246000fd5b6040519080825280602002602001820160405280156124e35781602001602082028036833780820191505090505b5090506000600a67ffffffffffffffff811115612529577f4e487b7100000000000000000000000000000000000000000000000000000000600052604160045260246000fd5b6040519080825280602002602001820160405280156125575781602001602082028036833780820191505090505b50905060005b600460008a8152602001908152602001600020805490508110156126df576000600460008b815260200190815260200160002082815481106125c8577f4e487b7100000000000000000000000000000000000000000000000000000000600052603260045260246000fd5b9060005260206000200160009054906101000a900473ffffffffffffffffffffffffffffffffffffffff1690506000600360008c815260200190815260200160002060008373ffffffffffffffffffffffffffffffffffffffff1673ffffffffffffffffffffffffffffffffffffffff168152602001908152602001600020600101549050888114156126ca578186848151811061268f577f4e487b7100000000000000000000000000000000000000000000000000000000600052603260045260246000fd5b602002602001019073ffffffffffffffffffffffffffffffffffffffff16908173ffffffffffffffffffffffffffffffffffffffff16815250505b505080806126d79061409e565b91505061255d565b5060005b600460008a815260200190815260200160002080549050811015612865576000600460008b8152602001908152602001600020828154811061274e577f4e487b7100000000000000000000000000000000000000000000000000000000600052603260045260246000fd5b9060005260206000200160009054906101000a900473ffffffffffffffffffffffffffffffffffffffff1690506000600360008c815260200190815260200160002060008373ffffffffffffffffffffffffffffffffffffffff1673ffffffffffffffffffffffffffffffffffffffff168152602001908152602001600020600101549050878114156128505781858481518110612815577f4e487b7100000000000000000000000000000000000000000000000000000000600052603260045260246000fd5b602002602001019073ffffffffffffffffffffffffffffffffffffffff16908173ffffffffffffffffffffffffffffffffffffffff16815250505b5050808061285d9061409e565b9150506126e3565b5060005b600460008a8152602001908152602001600020805490508110156129fb576000600460008b815260200190815260200160002082815481106128d4577f4e487b7100000000000000000000000000000000000000000000000000000000600052603260045260246000fd5b9060005260206000200160009054906101000a900473ffffffffffffffffffffffffffffffffffffffff1690506000600360008c815260200190815260200160002060008373ffffffffffffffffffffffffffffffffffffffff1673ffffffffffffffffffffffffffffffffffffffff16815260200190815260200160002060010154905060008114156129695750506129fb565b868114156129e657818484815181106129ab577f4e487b7100000000000000000000000000000000000000000000000000000000600052603260045260246000fd5b602002602001019073ffffffffffffffffffffffffffffffffffffffff16908173ffffffffffffffffffffffffffffffffffffffff16815250505b505080806129f39061409e565b915050612869565b506000601e67ffffffffffffffff811115612a3f577f4e487b7100000000000000000000000000000000000000000000000000000000600052604160045260246000fd5b604051908082528060200260200182016040528015612a6d5781602001602082028036833780820191505090505b509050600080600090505b600a811015612b5657858181518110612aba577f4e487b7100000000000000000000000000000000000000000000000000000000600052603260045260246000fd5b6020026020010151838381518110612afb577f4e487b7100000000000000000000000000000000000000000000000000000000600052603260045260246000fd5b602002602001019073ffffffffffffffffffffffffffffffffffffffff16908173ffffffffffffffffffffffffffffffffffffffff16815250508180612b409061409e565b9250508080612b4e9061409e565b915050612a78565b5060005b600a811015612c3857848181518110612b9c577f4e487b7100000000000000000000000000000000000000000000000000000000600052603260045260246000fd5b6020026020010151838381518110612bdd577f4e487b7100000000000000000000000000000000000000000000000000000000600052603260045260246000fd5b602002602001019073ffffffffffffffffffffffffffffffffffffffff16908173ffffffffffffffffffffffffffffffffffffffff16815250508180612c229061409e565b9250508080612c309061409e565b915050612b5a565b5060005b600a811015612d1a57838181518110612c7e577f4e487b7100000000000000000000000000000000000000000000000000000000600052603260045260246000fd5b6020026020010151838381518110612cbf577f4e487b7100000000000000000000000000000000000000000000000000000000600052603260045260246000fd5b602002602001019073ffffffffffffffffffffffffffffffffffffffff16908173ffffffffffffffffffffffffffffffffffffffff16815250508180612d049061409e565b9250508080612d129061409e565b915050612c3c565b508198505050505050505050919050565b612dae846323b872dd60e01b858585604051602401612d4c9392919061396f565b604051602081830303815290604052907bffffffffffffffffffffffffffffffffffffffffffffffffffffffff19166020820180517bffffffffffffffffffffffffffffffffffffffffffffffffffffffff8381831617835250505050612e3a565b50505050565b612e358363a9059cbb60e01b8484604051602401612dd39291906139a6565b604051602081830303815290604052907bffffffffffffffffffffffffffffffffffffffffffffffffffffffff19166020820180517bffffffffffffffffffffffffffffffffffffffffffffffffffffffff8381831617835250505050612e3a565b505050565b6000612e9c826040518060400160405280602081526020017f5361666545524332303a206c6f772d6c6576656c2063616c6c206661696c65648152508573ffffffffffffffffffffffffffffffffffffffff16612f019092919063ffffffff16565b9050600081511115612efc5780806020019051810190612ebc91906132fc565b612efb576040517f08c379a0000000000000000000000000000000000000000000000000000000008152600401612ef290613c97565b60405180910390fd5b5b505050565b6060612f108484600085612f19565b90509392505050565b606082471015612f5e576040517f08c379a0000000000000000000000000000000000000000000000000000000008152600401612f5590613bb7565b60405180910390fd5b612f678561302d565b612fa6576040517f08c379a0000000000000000000000000000000000000000000000000000000008152600401612f9d90613c57565b60405180910390fd5b6000808673ffffffffffffffffffffffffffffffffffffffff168587604051612fcf919061393d565b60006040518083038185875af1925050503d806000811461300c576040519150601f19603f3d011682016040523d82523d6000602084013e613011565b606091505b5091509150613021828286613050565b92505050949350505050565b6000808273ffffffffffffffffffffffffffffffffffffffff163b119050919050565b60608315613060578290506130b0565b6000835111156130735782518084602001fd5b816040517f08c379a00000000000000000000000000000000000000000000000000000000081526004016130a79190613ab7565b60405180910390fd5b9392505050565b60405180606001604052806060815260200160008152602001600073ffffffffffffffffffffffffffffffffffffffff1681525090565b8280546130fa9061403b565b90600052602060002090601f01602090048101928261311c5760008555613163565b82601f1061313557805160ff1916838001178555613163565b82800160010185558215613163579182015b82811115613162578251825591602001919060010190613147565b5b5090506131709190613174565b5090565b5b8082111561318d576000816000905550600101613175565b5090565b60006131a461319f84613d80565b613d5b565b9050828152602081018484840111156131bc57600080fd5b6131c7848285613ff9565b509392505050565b6000813590506131de81614634565b92915050565b6000815190506131f38161464b565b92915050565b60008083601f84011261320b57600080fd5b8235905067ffffffffffffffff81111561322457600080fd5b60208301915083600182028301111561323c57600080fd5b9250929050565b600082601f83011261325457600080fd5b8135613264848260208601613191565b91505092915050565b60008135905061327c81614662565b92915050565b60008151905061329181614662565b92915050565b6000602082840312156132a957600080fd5b60006132b7848285016131cf565b91505092915050565b600080604083850312156132d357600080fd5b60006132e1858286016131cf565b92505060206132f28582860161326d565b9150509250929050565b60006020828403121561330e57600080fd5b600061331c848285016131e4565b91505092915050565b6000806020838503121561333857600080fd5b600083013567ffffffffffffffff81111561335257600080fd5b61335e858286016131f9565b92509250509250929050565b6000806040838503121561337d57600080fd5b600083013567ffffffffffffffff81111561339757600080fd5b6133a385828601613243565b92505060206133b4858286016131cf565b9150509250929050565b6000602082840312156133d057600080fd5b60006133de8482850161326d565b91505092915050565b6000602082840312156133f957600080fd5b600061340784828501613282565b91505092915050565b6000806040838503121561342357600080fd5b60006134318582860161326d565b9250506020613442858286016131cf565b9150509250929050565b6000806040838503121561345f57600080fd5b600061346d8582860161326d565b925050602061347e8582860161326d565b9150509250929050565b600061349483836134b4565b60208301905092915050565b60006134ac83836138cf565b905092915050565b6134bd81613f8c565b82525050565b6134cc81613f8c565b82525050565b60006134dd82613dd1565b6134e78185613e17565b93506134f283613db1565b8060005b8381101561352357815161350a8882613488565b975061351583613dfd565b9250506001810190506134f6565b5085935050505092915050565b600061353b82613ddc565b6135458185613e28565b93508360208202850161355785613dc1565b8060005b85811015613593578484038952815161357485826134a0565b945061357f83613e0a565b925060208a0199505060018101905061355b565b50829750879550505050505092915050565b6135ae81613f9e565b82525050565b60006135bf82613de7565b6135c98185613e39565b93506135d9818560208601614008565b6135e281614203565b840191505092915050565b60006135f882613de7565b6136028185613e4a565b9350613612818560208601614008565b80840191505092915050565b61362781613fe7565b82525050565b600061363882613df2565b6136428185613e55565b9350613652818560208601614008565b61365b81614203565b840191505092915050565b600061367182613df2565b61367b8185613e66565b935061368b818560208601614008565b61369481614203565b840191505092915050565b60006136ac602e83613e66565b91506136b782614214565b604082019050919050565b60006136cf601b83613e66565b91506136da82614263565b602082019050919050565b60006136f2602383613e66565b91506136fd8261428c565b604082019050919050565b6000613715602783613e66565b9150613720826142db565b604082019050919050565b6000613738602f83613e66565b91506137438261432a565b604082019050919050565b600061375b602683613e66565b915061376682614379565b604082019050919050565b600061377e601e83613e66565b9150613789826143c8565b602082019050919050565b60006137a1601783613e66565b91506137ac826143f1565b602082019050919050565b60006137c4602d83613e66565b91506137cf8261441a565b604082019050919050565b60006137e7602c83613e66565b91506137f282614469565b604082019050919050565b600061380a601d83613e66565b9150613815826144b8565b602082019050919050565b600061382d601d83613e66565b9150613838826144e1565b602082019050919050565b6000613850602a83613e66565b915061385b8261450a565b604082019050919050565b6000613873601f83613e66565b915061387e82614559565b602082019050919050565b6000613896602383613e66565b91506138a182614582565b604082019050919050565b60006138b9603283613e66565b91506138c4826145d1565b604082019050919050565b600060608301600083015184820360008601526138ec828261362d565b9150506020830151613901602086018261391f565b50604083015161391460408601826134b4565b508091505092915050565b61392881613fdd565b82525050565b61393781613fdd565b82525050565b600061394982846135ed565b915081905092915050565b600060208201905061396960008301846134c3565b92915050565b600060608201905061398460008301866134c3565b61399160208301856134c3565b61399e604083018461392e565b949350505050565b60006040820190506139bb60008301856134c3565b6139c8602083018461392e565b9392505050565b600060208201905081810360008301526139e981846134d2565b905092915050565b60006040820190508181036000830152613a0b81856134d2565b90508181036020830152613a1f8184613530565b90509392505050565b6000602082019050613a3d60008301846135a5565b92915050565b6000604082019050613a5860008301856135a5565b8181036020830152613a6a81846135b4565b90509392505050565b6000604082019050613a8860008301856135a5565b613a95602083018461392e565b9392505050565b6000602082019050613ab1600083018461361e565b92915050565b60006020820190508181036000830152613ad18184613666565b905092915050565b60006060820190508181036000830152613af38186613666565b9050613b02602083018561392e565b613b0f60408301846134c3565b949350505050565b60006020820190508181036000830152613b308161369f565b9050919050565b60006020820190508181036000830152613b50816136c2565b9050919050565b60006020820190508181036000830152613b70816136e5565b9050919050565b60006020820190508181036000830152613b9081613708565b9050919050565b60006020820190508181036000830152613bb08161372b565b9050919050565b60006020820190508181036000830152613bd08161374e565b9050919050565b60006020820190508181036000830152613bf081613771565b9050919050565b60006020820190508181036000830152613c1081613794565b9050919050565b60006020820190508181036000830152613c30816137b7565b9050919050565b60006020820190508181036000830152613c50816137da565b9050919050565b60006020820190508181036000830152613c70816137fd565b9050919050565b60006020820190508181036000830152613c9081613820565b9050919050565b60006020820190508181036000830152613cb081613843565b9050919050565b60006020820190508181036000830152613cd081613866565b9050919050565b60006020820190508181036000830152613cf081613889565b9050919050565b60006020820190508181036000830152613d10816138ac565b9050919050565b6000602082019050613d2c600083018461392e565b92915050565b6000604082019050613d47600083018561392e565b613d54602083018461392e565b9392505050565b6000613d65613d76565b9050613d71828261406d565b919050565b6000604051905090565b600067ffffffffffffffff821115613d9b57613d9a6141d4565b5b613da482614203565b9050602081019050919050565b6000819050602082019050919050565b6000819050602082019050919050565b600081519050919050565b600081519050919050565b600081519050919050565b600081519050919050565b6000602082019050919050565b6000602082019050919050565b600082825260208201905092915050565b600082825260208201905092915050565b600082825260208201905092915050565b600081905092915050565b600082825260208201905092915050565b600082825260208201905092915050565b6000613e8282613fdd565b9150613e8d83613fdd565b9250827fffffffffffffffffffffffffffffffffffffffffffffffffffffffffffffffff03821115613ec257613ec1614118565b5b828201905092915050565b6000613ed882613fdd565b9150613ee383613fdd565b925082613ef357613ef2614147565b5b828204905092915050565b6000613f0982613fdd565b9150613f1483613fdd565b9250817fffffffffffffffffffffffffffffffffffffffffffffffffffffffffffffffff0483118215151615613f4d57613f4c614118565b5b828202905092915050565b6000613f6382613fdd565b9150613f6e83613fdd565b925082821015613f8157613f80614118565b5b828203905092915050565b6000613f9782613fbd565b9050919050565b60008115159050919050565b6000819050613fb882614620565b919050565b600073ffffffffffffffffffffffffffffffffffffffff82169050919050565b6000819050919050565b6000613ff282613faa565b9050919050565b82818337600083830152505050565b60005b8381101561402657808201518184015260208101905061400b565b83811115614035576000848401525b50505050565b6000600282049050600182168061405357607f821691505b60208210811415614067576140666141a5565b5b50919050565b61407682614203565b810181811067ffffffffffffffff82111715614095576140946141d4565b5b80604052505050565b60006140a982613fdd565b91507fffffffffffffffffffffffffffffffffffffffffffffffffffffffffffffffff8214156140dc576140db614118565b5b600182019050919050565b60006140f282613fdd565b91506140fd83613fdd565b92508261410d5761410c614147565b5b828206905092915050565b7f4e487b7100000000000000000000000000000000000000000000000000000000600052601160045260246000fd5b7f4e487b7100000000000000000000000000000000000000000000000000000000600052601260045260246000fd5b7f4e487b7100000000000000000000000000000000000000000000000000000000600052602160045260246000fd5b7f4e487b7100000000000000000000000000000000000000000000000000000000600052602260045260246000fd5b7f4e487b7100000000000000000000000000000000000000000000000000000000600052604160045260246000fd5b6000601f19601f8301169050919050565b7f546865726520617265206e6f2070726f6a6563747320746f206469737472696260008201527f757465207468697320726f756e64000000000000000000000000000000000000602082015250565b7f596f752063616e206e6f742070756c6c207468617420746f6b656e0000000000600082015250565b7f50726f706f73616c732061726520636c6f73656420666f72207468697320726f60008201527f756e640000000000000000000000000000000000000000000000000000000000602082015250565b7f546869732070726f6a6563742068617320616c7265616479206265656e20737560008201527f626d697474656400000000000000000000000000000000000000000000000000602082015250565b7f446f6e6174696f6e7320666f72207468697320726f756e64206861766520616c60008201527f7265616479206265656e2073656e740000000000000000000000000000000000602082015250565b7f416464726573733a20696e73756666696369656e742062616c616e636520666f60008201527f722063616c6c0000000000000000000000000000000000000000000000000000602082015250565b7f5468697320726f756e64206973206e6f742066696e6973686564207965740000600082015250565b7f41646472657373206973206e6f742061206d656d626572000000000000000000600082015250565b7f546869732070726f6a656374206973206e6f742070617274206f66207468652060008201527f63757272656e7420726f756e6400000000000000000000000000000000000000602082015250565b7f596f7520617265206e6f7420617574686f72697a656420746f2063616c6c207460008201527f6869732066756e6374696f6e0000000000000000000000000000000000000000602082015250565b7f416464726573733a2063616c6c20746f206e6f6e2d636f6e7472616374000000600082015250565b7f54686520666972737420726f756e6420686173206e6f7420656e646564000000600082015250565b7f5361666545524332303a204552433230206f7065726174696f6e20646964206e60008201527f6f74207375636365656400000000000000000000000000000000000000000000602082015250565b7f566f74696e67207068617365206973206e6f7420796574207374617274656400600082015250565b7f596f7520617265206f7574206f6620766f74657320666f72207468697320726f60008201527f756e640000000000000000000000000000000000000000000000000000000000602082015250565b7f596f7520646f206e6f74206861766520656e6f75676820766f7465732c20747260008201527f7920766f74696e672077697468206c6573730000000000000000000000000000602082015250565b6002811061463157614630614176565b5b50565b61463d81613f8c565b811461464857600080fd5b50565b61465481613f9e565b811461465f57600080fd5b50565b61466b81613fdd565b811461467657600080fd5b5056fea2646970667358221220ec8bc9e8a047614abf36d12f819df01789d208266b2628bcb00b70f70a77cf2164736f6c63430008040033",
  "linkReferences": {},
  "deployedLinkReferences": {}
}