{
  "_format": "hh-sol-artifact-1",
  "contractName": "GreenDAO",
  "sourceName": "contracts/GreenDAO.sol",
  "abi": [
    {
      "inputs": [
        {
          "internalType": "address",
          "name": "_token",
          "type": "address"
        },
        {
          "internalType": "uint256",
          "name": "_pricePerVote",
          "type": "uint256"
        }
      ],
      "stateMutability": "nonpayable",
      "type": "constructor"
    },
    {
      "inputs": [
        {
          "internalType": "address",
          "name": "",
          "type": "address"
        }
      ],
      "name": "DAOMembers",
      "outputs": [
        {
          "internalType": "bool",
          "name": "",
          "type": "bool"
        }
      ],
      "stateMutability": "view",
      "type": "function"
    },
    {
      "inputs": [],
      "name": "PROPOSAL_DURATION",
      "outputs": [
        {
          "internalType": "uint256",
          "name": "",
          "type": "uint256"
        }
      ],
      "stateMutability": "view",
      "type": "function"
    },
    {
      "inputs": [],
      "name": "ROUND_DURATION",
      "outputs": [
        {
          "internalType": "uint256",
          "name": "",
          "type": "uint256"
        }
      ],
      "stateMutability": "view",
      "type": "function"
    },
    {
      "inputs": [
        {
          "internalType": "string",
          "name": "_data",
          "type": "string"
        },
        {
          "internalType": "address",
          "name": "_proposedRecipient",
          "type": "address"
        }
      ],
      "name": "addProject",
      "outputs": [],
      "stateMutability": "nonpayable",
      "type": "function"
    },
    {
      "inputs": [],
      "name": "anonymousDonations",
      "outputs": [
        {
          "internalType": "uint256",
          "name": "",
          "type": "uint256"
        }
      ],
      "stateMutability": "view",
      "type": "function"
    },
    {
      "inputs": [
        {
          "internalType": "bytes",
          "name": "checkData",
          "type": "bytes"
        }
      ],
      "name": "checkUpkeep",
      "outputs": [
        {
          "internalType": "bool",
          "name": "upkeepNeeded",
          "type": "bool"
        },
        {
          "internalType": "bytes",
          "name": "performData",
          "type": "bytes"
        }
      ],
      "stateMutability": "nonpayable",
      "type": "function"
    },
    {
      "inputs": [],
      "name": "distribute2Projects",
      "outputs": [],
      "stateMutability": "nonpayable",
      "type": "function"
    },
    {
      "inputs": [
        {
          "internalType": "uint256",
          "name": "roundId",
          "type": "uint256"
        }
      ],
      "name": "distributeToProjects",
      "outputs": [],
      "stateMutability": "nonpayable",
      "type": "function"
    },
    {
      "inputs": [
        {
          "internalType": "uint256",
          "name": "amount",
          "type": "uint256"
        }
      ],
      "name": "donate",
      "outputs": [
        {
          "internalType": "uint256",
          "name": "",
          "type": "uint256"
        }
      ],
      "stateMutability": "nonpayable",
      "type": "function"
    },
    {
      "inputs": [],
      "name": "getCurrentProjects",
      "outputs": [
        {
          "internalType": "address[]",
          "name": "",
          "type": "address[]"
        },
        {
          "components": [
            {
              "internalType": "string",
              "name": "data",
              "type": "string"
            },
            {
              "internalType": "uint256",
              "name": "votes",
              "type": "uint256"
            },
            {
              "internalType": "address",
              "name": "proposedBy",
              "type": "address"
            }
          ],
          "internalType": "struct GreenDAO.Project[]",
          "name": "",
          "type": "tuple[]"
        }
      ],
      "stateMutability": "view",
      "type": "function"
    },
    {
      "inputs": [],
      "name": "getCurrentRound",
      "outputs": [
        {
          "internalType": "uint256",
          "name": "",
          "type": "uint256"
        }
      ],
      "stateMutability": "view",
      "type": "function"
    },
    {
      "inputs": [],
      "name": "getCurrentRoundStatus",
      "outputs": [
        {
          "internalType": "enum GreenDAO.RoundStatus",
          "name": "",
          "type": "uint8"
        }
      ],
      "stateMutability": "view",
      "type": "function"
    },
    {
      "inputs": [],
      "name": "getLastWinners",
      "outputs": [
        {
          "internalType": "address[]",
          "name": "",
          "type": "address[]"
        },
        {
          "components": [
            {
              "internalType": "string",
              "name": "data",
              "type": "string"
            },
            {
              "internalType": "uint256",
              "name": "votes",
              "type": "uint256"
            },
            {
              "internalType": "address",
              "name": "proposedBy",
              "type": "address"
            }
          ],
          "internalType": "struct GreenDAO.Project[]",
          "name": "",
          "type": "tuple[]"
        }
      ],
      "stateMutability": "view",
      "type": "function"
    },
    {
      "inputs": [
        {
          "internalType": "address",
          "name": "user",
          "type": "address"
        }
      ],
      "name": "getProjectsMemberVotedFor",
      "outputs": [
        {
          "internalType": "address[]",
          "name": "",
          "type": "address[]"
        }
      ],
      "stateMutability": "view",
      "type": "function"
    },
    {
      "inputs": [
        {
          "internalType": "address",
          "name": "user",
          "type": "address"
        }
      ],
      "name": "isMember",
      "outputs": [
        {
          "internalType": "bool",
          "name": "",
          "type": "bool"
        }
      ],
      "stateMutability": "view",
      "type": "function"
    },
    {
      "inputs": [
        {
          "internalType": "address",
          "name": "",
          "type": "address"
        }
      ],
      "name": "members",
      "outputs": [
        {
          "internalType": "uint256",
          "name": "votes",
          "type": "uint256"
        },
        {
          "internalType": "uint256",
          "name": "lastRoundPaid",
          "type": "uint256"
        }
      ],
      "stateMutability": "view",
      "type": "function"
    },
    {
      "inputs": [
        {
          "internalType": "bytes",
          "name": "performData",
          "type": "bytes"
        }
      ],
      "name": "performUpkeep",
      "outputs": [],
      "stateMutability": "nonpayable",
      "type": "function"
    },
    {
      "inputs": [],
      "name": "pricePerVote",
      "outputs": [
        {
          "internalType": "uint256",
          "name": "",
          "type": "uint256"
        }
      ],
      "stateMutability": "view",
      "type": "function"
    },
    {
      "inputs": [
        {
          "internalType": "uint256",
          "name": "",
          "type": "uint256"
        },
        {
          "internalType": "address",
          "name": "",
          "type": "address"
        }
      ],
      "name": "projects",
      "outputs": [
        {
          "internalType": "string",
          "name": "data",
          "type": "string"
        },
        {
          "internalType": "uint256",
          "name": "votes",
          "type": "uint256"
        },
        {
          "internalType": "address",
          "name": "proposedBy",
          "type": "address"
        }
      ],
      "stateMutability": "view",
      "type": "function"
    },
    {
      "inputs": [
        {
          "internalType": "uint256",
          "name": "",
          "type": "uint256"
        },
        {
          "internalType": "uint256",
          "name": "",
          "type": "uint256"
        }
      ],
      "name": "projectsPerRound",
      "outputs": [
        {
          "internalType": "address",
          "name": "",
          "type": "address"
        }
      ],
      "stateMutability": "view",
      "type": "function"
    },
    {
      "inputs": [
        {
          "internalType": "address",
          "name": "_tokenAddress",
          "type": "address"
        }
      ],
      "name": "pullTokens",
      "outputs": [],
      "stateMutability": "nonpayable",
      "type": "function"
    },
    {
      "inputs": [
        {
          "internalType": "uint256",
          "name": "",
          "type": "uint256"
        }
      ],
      "name": "rounds",
      "outputs": [
        {
          "internalType": "bool",
          "name": "hasBeenPaid",
          "type": "bool"
        },
        {
          "internalType": "uint256",
          "name": "balance",
          "type": "uint256"
        }
      ],
      "stateMutability": "view",
      "type": "function"
    },
    {
      "inputs": [],
      "name": "start",
      "outputs": [
        {
          "internalType": "uint256",
          "name": "",
          "type": "uint256"
        }
      ],
      "stateMutability": "view",
      "type": "function"
    },
    {
      "inputs": [],
      "name": "token",
      "outputs": [
        {
          "internalType": "address",
          "name": "",
          "type": "address"
        }
      ],
      "stateMutability": "view",
      "type": "function"
    },
    {
      "inputs": [],
      "name": "totalCollected",
      "outputs": [
        {
          "internalType": "uint256",
          "name": "",
          "type": "uint256"
        }
      ],
      "stateMutability": "view",
      "type": "function"
    },
    {
      "inputs": [],
      "name": "totalPaidProjects",
      "outputs": [
        {
          "internalType": "uint256",
          "name": "",
          "type": "uint256"
        }
      ],
      "stateMutability": "view",
      "type": "function"
    },
    {
      "inputs": [
        {
          "internalType": "address",
          "name": "projectAddress",
          "type": "address"
        },
        {
          "internalType": "uint256",
          "name": "nbOfVote",
          "type": "uint256"
        }
      ],
      "name": "voteForProject",
      "outputs": [],
      "stateMutability": "nonpayable",
      "type": "function"
    }
  ],
  "bytecode": "0x60c06040523480156200001157600080fd5b5060405162004b8d38038062004b8d8339818101604052810190620000379190620001de565b336000806101000a81548173ffffffffffffffffffffffffffffffffffffffff021916908373ffffffffffffffffffffffffffffffffffffffff160217905550426001819055508173ffffffffffffffffffffffffffffffffffffffff1660808173ffffffffffffffffffffffffffffffffffffffff1660601b815250508173ffffffffffffffffffffffffffffffffffffffff1663313ce5676040518163ffffffff1660e01b815260040160206040518083038186803b158015620000fc57600080fd5b505afa15801562000111573d6000803e3d6000fd5b505050506040513d601f19601f820116820180604052508101906200013791906200021f565b600a62000145919062000300565b811162000189576040517f08c379a0000000000000000000000000000000000000000000000000000000008152600401620001809062000272565b60405180910390fd5b8060a0818152505050506200053b565b600081519050620001aa81620004ed565b92915050565b600081519050620001c18162000507565b92915050565b600081519050620001d88162000521565b92915050565b60008060408385031215620001f257600080fd5b6000620002028582860162000199565b92505060206200021585828601620001b0565b9150509250929050565b6000602082840312156200023257600080fd5b60006200024284828501620001c7565b91505092915050565b60006200025a60168362000294565b91506200026782620004c4565b602082019050919050565b600060208201905081810360008301526200028d816200024b565b9050919050565b600082825260208201905092915050565b6000808291508390505b6001851115620002f757808604811115620002cf57620002ce62000488565b5b6001851615620002df5780820291505b8081029050620002ef85620004b7565b9450620002af565b94509492505050565b60006200030d8262000471565b91506200031a836200047b565b9250620003497fffffffffffffffffffffffffffffffffffffffffffffffffffffffffffffffff848462000351565b905092915050565b60008262000363576001905062000436565b8162000373576000905062000436565b81600181146200038c57600281146200039757620003cd565b600191505062000436565b60ff841115620003ac57620003ab62000488565b5b8360020a915084821115620003c657620003c562000488565b5b5062000436565b5060208310610133831016604e8410600b8410161715620004075782820a90508381111562000401576200040062000488565b5b62000436565b620004168484846001620002a5565b9250905081840481111562000430576200042f62000488565b5b81810290505b9392505050565b60006200044a8262000451565b9050919050565b600073ffffffffffffffffffffffffffffffffffffffff82169050919050565b6000819050919050565b600060ff82169050919050565b7f4e487b7100000000000000000000000000000000000000000000000000000000600052601160045260246000fd5b60008160011c9050919050565b7f50726963652070657220766f746520746f6f206c6f7700000000000000000000600082015250565b620004f8816200043d565b81146200050457600080fd5b50565b620005128162000471565b81146200051e57600080fd5b50565b6200052c816200047b565b81146200053857600080fd5b50565b60805160601c60a05161460662000587600039600081816105e601528181611c8e0152611dad0152600081816109cf01528181610af101528181611b9101526121c701526146066000f3fe608060405234801561001057600080fd5b50600436106101a95760003560e01c80637f097010116100f9578063be9a655511610097578063e29eb83611610071578063e29eb836146104d8578063f14faf6f146104f6578063f2645e3714610526578063fc0c546a14610545576101a9565b8063be9a655514610482578063bf65a9df146104a0578063cc90e725146104bc576101a9565b80638de16615116100d35780638de16615146103e55780639569093614610415578063a230c52414610434578063a32bf59714610464576101a9565b80637f09701014610378578063871e5d73146103965780638c65c81f146103b4576101a9565b806342e9c6ce116101665780636641ea08116101405780636641ea08146102db57806368ef8790146102f95780636da1a9f8146103175780636e04ff0d14610347576101a9565b806342e9c6ce146102715780634585e33b1461028d578063534797a0146102a9576101a9565b80630667cfcf146101ae57806308ae4b0c146101b85780630d31d835146101e957806315df77001461020757806329a8b19f14610225578063330b4ab214610241575b600080fd5b6101b6610563565b005b6101d260048036038101906101cd91906131ee565b610581565b6040516101e0929190613c89565b60405180910390f35b6101f16105a5565b6040516101fe91906139f3565b60405180910390f35b61020f6105e4565b60405161021c9190613c6e565b60405180910390f35b61023f600480360381019061023a9190613315565b610608565b005b61025b600480360381019061025691906133a3565b610a13565b60405161026891906138ab565b60405180910390f35b61028b600480360381019061028691906131ee565b610a61565b005b6102a760048036038101906102a2919061327c565b610c3a565b005b6102c360048036038101906102be9190613367565b610ce0565b6040516102d293929190613a30565b60405180910390f35b6102e3610dbf565b6040516102f09190613c6e565b60405180910390f35b610301610dc6565b60405161030e9190613c6e565b60405180910390f35b610331600480360381019061032c91906131ee565b610dcc565b60405161033e919061397f565b60405180910390f35b610361600480360381019061035c919061327c565b610dec565b60405161036f92919061399a565b60405180910390f35b610380610e37565b60405161038d9190613c6e565b60405180910390f35b61039e610e3e565b6040516103ab9190613c6e565b60405180910390f35b6103ce60048036038101906103c99190613315565b610e44565b6040516103dc9291906139ca565b60405180910390f35b6103ff60048036038101906103fa91906131ee565b610e75565b60405161040c9190613926565b60405180910390f35b61041d610f93565b60405161042b929190613948565b60405180910390f35b61044e600480360381019061044991906131ee565b611314565b60405161045b919061397f565b60405180910390f35b61046c61136e565b6040516104799190613c6e565b60405180910390f35b61048a6113a2565b6040516104979190613c6e565b60405180910390f35b6104ba60048036038101906104b59190613217565b6113a8565b005b6104d660048036038101906104d191906132c1565b61180f565b005b6104e0611b84565b6040516104ed9190613c6e565b60405180910390f35b610510600480360381019061050b9190613315565b611b8a565b60405161051d9190613c6e565b60405180910390f35b61052e611e9d565b60405161053c929190613948565b60405180910390f35b61054d6121c5565b60405161055a91906138ab565b60405180910390f35b61057f600161057061136e565b61057a9190613eaf565b610608565b565b60026020528060005260406000206000915090508060000154908060010154905082565b600080600154426105b69190613eaf565b9050621baf806224ea00826105cb919061403e565b10156105db5760009150506105e1565b60019150505b90565b7f000000000000000000000000000000000000000000000000000000000000000081565b6005600082815260200190815260200160002060000160009054906101000a900460ff161561066c576040517f08c379a000000000000000000000000000000000000000000000000000000000815260040161066390613aee565b60405180910390fd5b61067461136e565b8114158015610684575060008114155b6106c3576040517f08c379a00000000000000000000000000000000000000000000000000000000081526004016106ba90613b2e565b60405180910390fd5b60006004600083815260200190815260200160002080549050141561071d576040517f08c379a000000000000000000000000000000000000000000000000000000000815260040161071490613a6e565b60405180910390fd5b60016005600083815260200190815260200160002060000160006101000a81548160ff0219169083151502179055506000610757826121e9565b905080516007600082825461076c9190613dce565b92505081905550600080600090505b82518110156108445760008382815181106107bf577f4e487b7100000000000000000000000000000000000000000000000000000000600052603260045260246000fd5b6020026020010151905060006003600087815260200190815260200160002060008373ffffffffffffffffffffffffffffffffffffffff1673ffffffffffffffffffffffffffffffffffffffff168152602001908152602001600020600101549050808461082d9190613dce565b93505050808061083c90613ff5565b91505061077b565b5060005b8251811015610a0d57600083828151811061088c577f4e487b7100000000000000000000000000000000000000000000000000000000600052603260045260246000fd5b60200260200101519050600073ffffffffffffffffffffffffffffffffffffffff168173ffffffffffffffffffffffffffffffffffffffff16146109f95760056000868152602001908152602001600020600101819080600181540180825580915050600190039060005260206000200160009091909190916101000a81548173ffffffffffffffffffffffffffffffffffffffff021916908373ffffffffffffffffffffffffffffffffffffffff16021790555060006003600087815260200190815260200160002060008373ffffffffffffffffffffffffffffffffffffffff1673ffffffffffffffffffffffffffffffffffffffff168152602001908152602001600020600101549050600084826109a79190613e24565b60056000898152602001908152602001600020600201546109c89190613e55565b90506109f67f0000000000000000000000000000000000000000000000000000000000000000308584612c82565b50505b508080610a0590613ff5565b915050610848565b50505050565b60046020528160005260406000208181548110610a2f57600080fd5b906000526020600020016000915091509054906101000a900473ffffffffffffffffffffffffffffffffffffffff1681565b60008054906101000a900473ffffffffffffffffffffffffffffffffffffffff1673ffffffffffffffffffffffffffffffffffffffff163373ffffffffffffffffffffffffffffffffffffffff1614610aef576040517f08c379a0000000000000000000000000000000000000000000000000000000008152600401610ae690613b8e565b60405180910390fd5b7f000000000000000000000000000000000000000000000000000000000000000073ffffffffffffffffffffffffffffffffffffffff168173ffffffffffffffffffffffffffffffffffffffff161415610b7e576040517f08c379a0000000000000000000000000000000000000000000000000000000008152600401610b7590613a8e565b60405180910390fd5b60008173ffffffffffffffffffffffffffffffffffffffff166370a08231306040518263ffffffff1660e01b8152600401610bb991906138ab565b60206040518083038186803b158015610bd157600080fd5b505afa158015610be5573d6000803e3d6000fd5b505050506040513d601f19601f82011682018060405250810190610c09919061333e565b9050610c368260008054906101000a900473ffffffffffffffffffffffffffffffffffffffff1683612d0b565b5050565b60006001610c4661136e565b610c509190613eaf565b90506005600082815260200190815260200160002060000160009054906101000a900460ff16610cdb573073ffffffffffffffffffffffffffffffffffffffff16630667cfcf6040518163ffffffff1660e01b8152600401600060405180830381600087803b158015610cc257600080fd5b505af1158015610cd6573d6000803e3d6000fd5b505050505b505050565b600360205281600052604060002060205280600052604060002060009150915050806000018054610d1090613f92565b80601f0160208091040260200160405190810160405280929190818152602001828054610d3c90613f92565b8015610d895780601f10610d5e57610100808354040283529160200191610d89565b820191906000526020600020905b815481529060010190602001808311610d6c57829003601f168201915b5050505050908060010154908060020160009054906101000a900473ffffffffffffffffffffffffffffffffffffffff16905083565b6224ea0081565b60095481565b60086020528060005260406000206000915054906101000a900460ff1681565b6000606060006001610dfc61136e565b610e069190613eaf565b90506005600082815260200190815260200160002060000160009054906101000a900460ff16159250509250929050565b621baf8081565b60075481565b60056020528060005260406000206000915090508060000160009054906101000a900460ff16908060020154905082565b6060610e8082611314565b610ebf576040517f08c379a0000000000000000000000000000000000000000000000000000000008152600401610eb690613b4e565b60405180910390fd5b6000600260008473ffffffffffffffffffffffffffffffffffffffff1673ffffffffffffffffffffffffffffffffffffffff168152602001908152602001600020600201805480602002602001604051908101604052809291908181526020018280548015610f8357602002820191906000526020600020905b8160009054906101000a900473ffffffffffffffffffffffffffffffffffffffff1673ffffffffffffffffffffffffffffffffffffffff1681526020019060010190808311610f39575b5050505050905080915050919050565b6060806001610fa061136e565b11610fe0576040517f08c379a0000000000000000000000000000000000000000000000000000000008152600401610fd790613bce565b60405180910390fd5b60006001610fec61136e565b610ff69190613eaf565b905060006005600083815260200190815260200160002060010180548060200260200160405190810160405280929190818152602001828054801561109057602002820191906000526020600020905b8160009054906101000a900473ffffffffffffffffffffffffffffffffffffffff1673ffffffffffffffffffffffffffffffffffffffff1681526020019060010190808311611046575b505050505090506000815167ffffffffffffffff8111156110da577f4e487b7100000000000000000000000000000000000000000000000000000000600052604160045260246000fd5b60405190808252806020026020018201604052801561111357816020015b61110061300e565b8152602001906001900390816110f85790505b50905060005b825181101561130657600360008581526020019081526020016000206000848381518110611170577f4e487b7100000000000000000000000000000000000000000000000000000000600052603260045260246000fd5b602002602001015173ffffffffffffffffffffffffffffffffffffffff1673ffffffffffffffffffffffffffffffffffffffff1681526020019081526020016000206040518060600160405290816000820180546111cd90613f92565b80601f01602080910402602001604051908101604052809291908181526020018280546111f990613f92565b80156112465780601f1061121b57610100808354040283529160200191611246565b820191906000526020600020905b81548152906001019060200180831161122957829003601f168201915b50505050508152602001600182015481526020016002820160009054906101000a900473ffffffffffffffffffffffffffffffffffffffff1673ffffffffffffffffffffffffffffffffffffffff1673ffffffffffffffffffffffffffffffffffffffff16815250508282815181106112e8577f4e487b7100000000000000000000000000000000000000000000000000000000600052603260045260246000fd5b602002602001018190525080806112fe90613ff5565b915050611119565b508181945094505050509091565b60008061131f61136e565b905080600260008573ffffffffffffffffffffffffffffffffffffffff1673ffffffffffffffffffffffffffffffffffffffff1681526020019081526020016000206001015414915050919050565b6000806001544261137f9190613eaf565b905060016224ea00826113929190613e24565b61139c9190613dce565b91505090565b60015481565b6000600260003373ffffffffffffffffffffffffffffffffffffffff1673ffffffffffffffffffffffffffffffffffffffff16815260200190815260200160002060000154141561142e576040517f08c379a000000000000000000000000000000000000000000000000000000000815260040161142590613c2e565b60405180910390fd5b80600260003373ffffffffffffffffffffffffffffffffffffffff1673ffffffffffffffffffffffffffffffffffffffff1681526020019081526020016000206000015410156114b3576040517f08c379a00000000000000000000000000000000000000000000000000000000081526004016114aa90613c4e565b60405180910390fd5b6001808111156114ec577f4e487b7100000000000000000000000000000000000000000000000000000000600052602160045260246000fd5b6114f46105a5565b600181111561152c577f4e487b7100000000000000000000000000000000000000000000000000000000600052602160045260246000fd5b1461156c576040517f08c379a000000000000000000000000000000000000000000000000000000000815260040161156390613c0e565b60405180910390fd5b61157533611314565b6115b4576040517f08c379a00000000000000000000000000000000000000000000000000000000081526004016115ab90613b4e565b60405180910390fd5b600073ffffffffffffffffffffffffffffffffffffffff16600360006115d861136e565b815260200190815260200160002060008473ffffffffffffffffffffffffffffffffffffffff1673ffffffffffffffffffffffffffffffffffffffff16815260200190815260200160002060020160009054906101000a900473ffffffffffffffffffffffffffffffffffffffff1673ffffffffffffffffffffffffffffffffffffffff16141561169e576040517f08c379a000000000000000000000000000000000000000000000000000000000815260040161169590613b6e565b60405180910390fd5b80600260003373ffffffffffffffffffffffffffffffffffffffff1673ffffffffffffffffffffffffffffffffffffffff16815260200190815260200160002060000160008282546116f09190613eaf565b92505081905550600260003373ffffffffffffffffffffffffffffffffffffffff1673ffffffffffffffffffffffffffffffffffffffff168152602001908152602001600020600201829080600181540180825580915050600190039060005260206000200160009091909190916101000a81548173ffffffffffffffffffffffffffffffffffffffff021916908373ffffffffffffffffffffffffffffffffffffffff16021790555080600360006117a761136e565b815260200190815260200160002060008473ffffffffffffffffffffffffffffffffffffffff1673ffffffffffffffffffffffffffffffffffffffff16815260200190815260200160002060010160008282546118049190613dce565b925050819055505050565b60006001811115611849577f4e487b7100000000000000000000000000000000000000000000000000000000600052602160045260246000fd5b6118516105a5565b6001811115611889577f4e487b7100000000000000000000000000000000000000000000000000000000600052602160045260246000fd5b146118c9576040517f08c379a00000000000000000000000000000000000000000000000000000000081526004016118c090613aae565b60405180910390fd5b6118d233611314565b611911576040517f08c379a000000000000000000000000000000000000000000000000000000000815260040161190890613b4e565b60405180910390fd5b600061191b61136e565b9050600073ffffffffffffffffffffffffffffffffffffffff166003600083815260200190815260200160002060008473ffffffffffffffffffffffffffffffffffffffff1673ffffffffffffffffffffffffffffffffffffffff16815260200190815260200160002060020160009054906101000a900473ffffffffffffffffffffffffffffffffffffffff1673ffffffffffffffffffffffffffffffffffffffff16146119ff576040517f08c379a00000000000000000000000000000000000000000000000000000000081526004016119f690613ace565b60405180910390fd5b611a0761300e565b83816000018190525033816040019073ffffffffffffffffffffffffffffffffffffffff16908173ffffffffffffffffffffffffffffffffffffffff1681525050806003600084815260200190815260200160002060008573ffffffffffffffffffffffffffffffffffffffff1673ffffffffffffffffffffffffffffffffffffffff1681526020019081526020016000206000820151816000019080519060200190611ab5929190613045565b506020820151816001015560408201518160020160006101000a81548173ffffffffffffffffffffffffffffffffffffffff021916908373ffffffffffffffffffffffffffffffffffffffff16021790555090505060046000838152602001908152602001600020839080600181540180825580915050600190039060005260206000200160009091909190916101000a81548173ffffffffffffffffffffffffffffffffffffffff021916908373ffffffffffffffffffffffffffffffffffffffff16021790555050505050565b60065481565b6000611bb87f0000000000000000000000000000000000000000000000000000000000000000333085612c82565b6000611bc261136e565b905082600560008381526020019081526020016000206002016000828254611bea9190613dce565b925050819055508260066000828254611c039190613dce565b9250508190555060006001811115611c44577f4e487b7100000000000000000000000000000000000000000000000000000000600052602160045260246000fd5b611c4c6105a5565b6001811115611c84577f4e487b7100000000000000000000000000000000000000000000000000000000600052602160045260246000fd5b148015611cb157507f00000000000000000000000000000000000000000000000000000000000000008310155b15611e7a57611cbf33611314565b611dab576001600860003373ffffffffffffffffffffffffffffffffffffffff1673ffffffffffffffffffffffffffffffffffffffff16815260200190815260200160002060006101000a81548160ff02191690831515021790555080600260003373ffffffffffffffffffffffffffffffffffffffff1673ffffffffffffffffffffffffffffffffffffffff168152602001908152602001600020600101819055506000600260003373ffffffffffffffffffffffffffffffffffffffff1673ffffffffffffffffffffffffffffffffffffffff168152602001908152602001600020600001819055505b7f000000000000000000000000000000000000000000000000000000000000000083611dd79190613e24565b600260003373ffffffffffffffffffffffffffffffffffffffff1673ffffffffffffffffffffffffffffffffffffffff1681526020019081526020016000206000016000828254611e289190613dce565b92505081905550600260003373ffffffffffffffffffffffffffffffffffffffff1673ffffffffffffffffffffffffffffffffffffffff16815260200190815260200160002060000154915050611e98565b60096000815480929190611e8d90613ff5565b919050555060009150505b919050565b6060806000611eaa61136e565b9050600060046000838152602001908152602001600020805480602002602001604051908101604052809291908181526020018280548015611f4157602002820191906000526020600020905b8160009054906101000a900473ffffffffffffffffffffffffffffffffffffffff1673ffffffffffffffffffffffffffffffffffffffff1681526020019060010190808311611ef7575b505050505090506000815167ffffffffffffffff811115611f8b577f4e487b7100000000000000000000000000000000000000000000000000000000600052604160045260246000fd5b604051908082528060200260200182016040528015611fc457816020015b611fb161300e565b815260200190600190039081611fa95790505b50905060005b82518110156121b757600360008581526020019081526020016000206000848381518110612021577f4e487b7100000000000000000000000000000000000000000000000000000000600052603260045260246000fd5b602002602001015173ffffffffffffffffffffffffffffffffffffffff1673ffffffffffffffffffffffffffffffffffffffff16815260200190815260200160002060405180606001604052908160008201805461207e90613f92565b80601f01602080910402602001604051908101604052809291908181526020018280546120aa90613f92565b80156120f75780601f106120cc576101008083540402835291602001916120f7565b820191906000526020600020905b8154815290600101906020018083116120da57829003601f168201915b50505050508152602001600182015481526020016002820160009054906101000a900473ffffffffffffffffffffffffffffffffffffffff1673ffffffffffffffffffffffffffffffffffffffff1673ffffffffffffffffffffffffffffffffffffffff1681525050828281518110612199577f4e487b7100000000000000000000000000000000000000000000000000000000600052603260045260246000fd5b602002602001018190525080806121af90613ff5565b915050611fca565b508181945094505050509091565b7f000000000000000000000000000000000000000000000000000000000000000081565b6060600080600080600090505b6004600087815260200190815260200160002080549050811015612354576000600460008881526020019081526020016000208281548110612261577f4e487b7100000000000000000000000000000000000000000000000000000000600052603260045260246000fd5b9060005260206000200160009054906101000a900473ffffffffffffffffffffffffffffffffffffffff16905060006003600089815260200190815260200160002060008373ffffffffffffffffffffffffffffffffffffffff1673ffffffffffffffffffffffffffffffffffffffff1681526020019081526020016000206001015490508581141580156122f65750848114155b80156123025750838114155b1561233f578581111561231d5784935085945080955061233e565b848111156123305784935080945061233d565b8381111561233c578093505b5b5b5b5050808061234c90613ff5565b9150506121f6565b506000600a67ffffffffffffffff811115612398577f4e487b7100000000000000000000000000000000000000000000000000000000600052604160045260246000fd5b6040519080825280602002602001820160405280156123c65781602001602082028036833780820191505090505b5090506000600a67ffffffffffffffff81111561240c577f4e487b7100000000000000000000000000000000000000000000000000000000600052604160045260246000fd5b60405190808252806020026020018201604052801561243a5781602001602082028036833780820191505090505b5090506000600a67ffffffffffffffff811115612480577f4e487b7100000000000000000000000000000000000000000000000000000000600052604160045260246000fd5b6040519080825280602002602001820160405280156124ae5781602001602082028036833780820191505090505b50905060005b600460008a815260200190815260200160002080549050811015612636576000600460008b8152602001908152602001600020828154811061251f577f4e487b7100000000000000000000000000000000000000000000000000000000600052603260045260246000fd5b9060005260206000200160009054906101000a900473ffffffffffffffffffffffffffffffffffffffff1690506000600360008c815260200190815260200160002060008373ffffffffffffffffffffffffffffffffffffffff1673ffffffffffffffffffffffffffffffffffffffff1681526020019081526020016000206001015490508881141561262157818684815181106125e6577f4e487b7100000000000000000000000000000000000000000000000000000000600052603260045260246000fd5b602002602001019073ffffffffffffffffffffffffffffffffffffffff16908173ffffffffffffffffffffffffffffffffffffffff16815250505b5050808061262e90613ff5565b9150506124b4565b5060005b600460008a8152602001908152602001600020805490508110156127bc576000600460008b815260200190815260200160002082815481106126a5577f4e487b7100000000000000000000000000000000000000000000000000000000600052603260045260246000fd5b9060005260206000200160009054906101000a900473ffffffffffffffffffffffffffffffffffffffff1690506000600360008c815260200190815260200160002060008373ffffffffffffffffffffffffffffffffffffffff1673ffffffffffffffffffffffffffffffffffffffff168152602001908152602001600020600101549050878114156127a7578185848151811061276c577f4e487b7100000000000000000000000000000000000000000000000000000000600052603260045260246000fd5b602002602001019073ffffffffffffffffffffffffffffffffffffffff16908173ffffffffffffffffffffffffffffffffffffffff16815250505b505080806127b490613ff5565b91505061263a565b5060005b600460008a815260200190815260200160002080549050811015612952576000600460008b8152602001908152602001600020828154811061282b577f4e487b7100000000000000000000000000000000000000000000000000000000600052603260045260246000fd5b9060005260206000200160009054906101000a900473ffffffffffffffffffffffffffffffffffffffff1690506000600360008c815260200190815260200160002060008373ffffffffffffffffffffffffffffffffffffffff1673ffffffffffffffffffffffffffffffffffffffff16815260200190815260200160002060010154905060008114156128c0575050612952565b8681141561293d5781848481518110612902577f4e487b7100000000000000000000000000000000000000000000000000000000600052603260045260246000fd5b602002602001019073ffffffffffffffffffffffffffffffffffffffff16908173ffffffffffffffffffffffffffffffffffffffff16815250505b5050808061294a90613ff5565b9150506127c0565b506000601e67ffffffffffffffff811115612996577f4e487b7100000000000000000000000000000000000000000000000000000000600052604160045260246000fd5b6040519080825280602002602001820160405280156129c45781602001602082028036833780820191505090505b509050600080600090505b600a811015612aad57858181518110612a11577f4e487b7100000000000000000000000000000000000000000000000000000000600052603260045260246000fd5b6020026020010151838381518110612a52577f4e487b7100000000000000000000000000000000000000000000000000000000600052603260045260246000fd5b602002602001019073ffffffffffffffffffffffffffffffffffffffff16908173ffffffffffffffffffffffffffffffffffffffff16815250508180612a9790613ff5565b9250508080612aa590613ff5565b9150506129cf565b5060005b600a811015612b8f57848181518110612af3577f4e487b7100000000000000000000000000000000000000000000000000000000600052603260045260246000fd5b6020026020010151838381518110612b34577f4e487b7100000000000000000000000000000000000000000000000000000000600052603260045260246000fd5b602002602001019073ffffffffffffffffffffffffffffffffffffffff16908173ffffffffffffffffffffffffffffffffffffffff16815250508180612b7990613ff5565b9250508080612b8790613ff5565b915050612ab1565b5060005b600a811015612c7157838181518110612bd5577f4e487b7100000000000000000000000000000000000000000000000000000000600052603260045260246000fd5b6020026020010151838381518110612c16577f4e487b7100000000000000000000000000000000000000000000000000000000600052603260045260246000fd5b602002602001019073ffffffffffffffffffffffffffffffffffffffff16908173ffffffffffffffffffffffffffffffffffffffff16815250508180612c5b90613ff5565b9250508080612c6990613ff5565b915050612b93565b508198505050505050505050919050565b612d05846323b872dd60e01b858585604051602401612ca3939291906138c6565b604051602081830303815290604052907bffffffffffffffffffffffffffffffffffffffffffffffffffffffff19166020820180517bffffffffffffffffffffffffffffffffffffffffffffffffffffffff8381831617835250505050612d91565b50505050565b612d8c8363a9059cbb60e01b8484604051602401612d2a9291906138fd565b604051602081830303815290604052907bffffffffffffffffffffffffffffffffffffffffffffffffffffffff19166020820180517bffffffffffffffffffffffffffffffffffffffffffffffffffffffff8381831617835250505050612d91565b505050565b6000612df3826040518060400160405280602081526020017f5361666545524332303a206c6f772d6c6576656c2063616c6c206661696c65648152508573ffffffffffffffffffffffffffffffffffffffff16612e589092919063ffffffff16565b9050600081511115612e535780806020019051810190612e139190613253565b612e52576040517f08c379a0000000000000000000000000000000000000000000000000000000008152600401612e4990613bee565b60405180910390fd5b5b505050565b6060612e678484600085612e70565b90509392505050565b606082471015612eb5576040517f08c379a0000000000000000000000000000000000000000000000000000000008152600401612eac90613b0e565b60405180910390fd5b612ebe85612f84565b612efd576040517f08c379a0000000000000000000000000000000000000000000000000000000008152600401612ef490613bae565b60405180910390fd5b6000808673ffffffffffffffffffffffffffffffffffffffff168587604051612f269190613894565b60006040518083038185875af1925050503d8060008114612f63576040519150601f19603f3d011682016040523d82523d6000602084013e612f68565b606091505b5091509150612f78828286612fa7565b92505050949350505050565b6000808273ffffffffffffffffffffffffffffffffffffffff163b119050919050565b60608315612fb757829050613007565b600083511115612fca5782518084602001fd5b816040517f08c379a0000000000000000000000000000000000000000000000000000000008152600401612ffe9190613a0e565b60405180910390fd5b9392505050565b60405180606001604052806060815260200160008152602001600073ffffffffffffffffffffffffffffffffffffffff1681525090565b82805461305190613f92565b90600052602060002090601f01602090048101928261307357600085556130ba565b82601f1061308c57805160ff19168380011785556130ba565b828001600101855582156130ba579182015b828111156130b957825182559160200191906001019061309e565b5b5090506130c791906130cb565b5090565b5b808211156130e45760008160009055506001016130cc565b5090565b60006130fb6130f684613cd7565b613cb2565b90508281526020810184848401111561311357600080fd5b61311e848285613f50565b509392505050565b6000813590506131358161458b565b92915050565b60008151905061314a816145a2565b92915050565b60008083601f84011261316257600080fd5b8235905067ffffffffffffffff81111561317b57600080fd5b60208301915083600182028301111561319357600080fd5b9250929050565b600082601f8301126131ab57600080fd5b81356131bb8482602086016130e8565b91505092915050565b6000813590506131d3816145b9565b92915050565b6000815190506131e8816145b9565b92915050565b60006020828403121561320057600080fd5b600061320e84828501613126565b91505092915050565b6000806040838503121561322a57600080fd5b600061323885828601613126565b9250506020613249858286016131c4565b9150509250929050565b60006020828403121561326557600080fd5b60006132738482850161313b565b91505092915050565b6000806020838503121561328f57600080fd5b600083013567ffffffffffffffff8111156132a957600080fd5b6132b585828601613150565b92509250509250929050565b600080604083850312156132d457600080fd5b600083013567ffffffffffffffff8111156132ee57600080fd5b6132fa8582860161319a565b925050602061330b85828601613126565b9150509250929050565b60006020828403121561332757600080fd5b6000613335848285016131c4565b91505092915050565b60006020828403121561335057600080fd5b600061335e848285016131d9565b91505092915050565b6000806040838503121561337a57600080fd5b6000613388858286016131c4565b925050602061339985828601613126565b9150509250929050565b600080604083850312156133b657600080fd5b60006133c4858286016131c4565b92505060206133d5858286016131c4565b9150509250929050565b60006133eb838361340b565b60208301905092915050565b60006134038383613826565b905092915050565b61341481613ee3565b82525050565b61342381613ee3565b82525050565b600061343482613d28565b61343e8185613d6e565b935061344983613d08565b8060005b8381101561347a57815161346188826133df565b975061346c83613d54565b92505060018101905061344d565b5085935050505092915050565b600061349282613d33565b61349c8185613d7f565b9350836020820285016134ae85613d18565b8060005b858110156134ea57848403895281516134cb85826133f7565b94506134d683613d61565b925060208a019950506001810190506134b2565b50829750879550505050505092915050565b61350581613ef5565b82525050565b600061351682613d3e565b6135208185613d90565b9350613530818560208601613f5f565b6135398161415a565b840191505092915050565b600061354f82613d3e565b6135598185613da1565b9350613569818560208601613f5f565b80840191505092915050565b61357e81613f3e565b82525050565b600061358f82613d49565b6135998185613dac565b93506135a9818560208601613f5f565b6135b28161415a565b840191505092915050565b60006135c882613d49565b6135d28185613dbd565b93506135e2818560208601613f5f565b6135eb8161415a565b840191505092915050565b6000613603602e83613dbd565b915061360e8261416b565b604082019050919050565b6000613626601b83613dbd565b9150613631826141ba565b602082019050919050565b6000613649602383613dbd565b9150613654826141e3565b604082019050919050565b600061366c602783613dbd565b915061367782614232565b604082019050919050565b600061368f602f83613dbd565b915061369a82614281565b604082019050919050565b60006136b2602683613dbd565b91506136bd826142d0565b604082019050919050565b60006136d5601e83613dbd565b91506136e08261431f565b602082019050919050565b60006136f8601783613dbd565b915061370382614348565b602082019050919050565b600061371b602d83613dbd565b915061372682614371565b604082019050919050565b600061373e602c83613dbd565b9150613749826143c0565b604082019050919050565b6000613761601d83613dbd565b915061376c8261440f565b602082019050919050565b6000613784601d83613dbd565b915061378f82614438565b602082019050919050565b60006137a7602a83613dbd565b91506137b282614461565b604082019050919050565b60006137ca601f83613dbd565b91506137d5826144b0565b602082019050919050565b60006137ed602383613dbd565b91506137f8826144d9565b604082019050919050565b6000613810603283613dbd565b915061381b82614528565b604082019050919050565b600060608301600083015184820360008601526138438282613584565b91505060208301516138586020860182613876565b50604083015161386b604086018261340b565b508091505092915050565b61387f81613f34565b82525050565b61388e81613f34565b82525050565b60006138a08284613544565b915081905092915050565b60006020820190506138c0600083018461341a565b92915050565b60006060820190506138db600083018661341a565b6138e8602083018561341a565b6138f56040830184613885565b949350505050565b6000604082019050613912600083018561341a565b61391f6020830184613885565b9392505050565b600060208201905081810360008301526139408184613429565b905092915050565b600060408201905081810360008301526139628185613429565b905081810360208301526139768184613487565b90509392505050565b600060208201905061399460008301846134fc565b92915050565b60006040820190506139af60008301856134fc565b81810360208301526139c1818461350b565b90509392505050565b60006040820190506139df60008301856134fc565b6139ec6020830184613885565b9392505050565b6000602082019050613a086000830184613575565b92915050565b60006020820190508181036000830152613a2881846135bd565b905092915050565b60006060820190508181036000830152613a4a81866135bd565b9050613a596020830185613885565b613a66604083018461341a565b949350505050565b60006020820190508181036000830152613a87816135f6565b9050919050565b60006020820190508181036000830152613aa781613619565b9050919050565b60006020820190508181036000830152613ac78161363c565b9050919050565b60006020820190508181036000830152613ae78161365f565b9050919050565b60006020820190508181036000830152613b0781613682565b9050919050565b60006020820190508181036000830152613b27816136a5565b9050919050565b60006020820190508181036000830152613b47816136c8565b9050919050565b60006020820190508181036000830152613b67816136eb565b9050919050565b60006020820190508181036000830152613b878161370e565b9050919050565b60006020820190508181036000830152613ba781613731565b9050919050565b60006020820190508181036000830152613bc781613754565b9050919050565b60006020820190508181036000830152613be781613777565b9050919050565b60006020820190508181036000830152613c078161379a565b9050919050565b60006020820190508181036000830152613c27816137bd565b9050919050565b60006020820190508181036000830152613c47816137e0565b9050919050565b60006020820190508181036000830152613c6781613803565b9050919050565b6000602082019050613c836000830184613885565b92915050565b6000604082019050613c9e6000830185613885565b613cab6020830184613885565b9392505050565b6000613cbc613ccd565b9050613cc88282613fc4565b919050565b6000604051905090565b600067ffffffffffffffff821115613cf257613cf161412b565b5b613cfb8261415a565b9050602081019050919050565b6000819050602082019050919050565b6000819050602082019050919050565b600081519050919050565b600081519050919050565b600081519050919050565b600081519050919050565b6000602082019050919050565b6000602082019050919050565b600082825260208201905092915050565b600082825260208201905092915050565b600082825260208201905092915050565b600081905092915050565b600082825260208201905092915050565b600082825260208201905092915050565b6000613dd982613f34565b9150613de483613f34565b9250827fffffffffffffffffffffffffffffffffffffffffffffffffffffffffffffffff03821115613e1957613e1861406f565b5b828201905092915050565b6000613e2f82613f34565b9150613e3a83613f34565b925082613e4a57613e4961409e565b5b828204905092915050565b6000613e6082613f34565b9150613e6b83613f34565b9250817fffffffffffffffffffffffffffffffffffffffffffffffffffffffffffffffff0483118215151615613ea457613ea361406f565b5b828202905092915050565b6000613eba82613f34565b9150613ec583613f34565b925082821015613ed857613ed761406f565b5b828203905092915050565b6000613eee82613f14565b9050919050565b60008115159050919050565b6000819050613f0f82614577565b919050565b600073ffffffffffffffffffffffffffffffffffffffff82169050919050565b6000819050919050565b6000613f4982613f01565b9050919050565b82818337600083830152505050565b60005b83811015613f7d578082015181840152602081019050613f62565b83811115613f8c576000848401525b50505050565b60006002820490506001821680613faa57607f821691505b60208210811415613fbe57613fbd6140fc565b5b50919050565b613fcd8261415a565b810181811067ffffffffffffffff82111715613fec57613feb61412b565b5b80604052505050565b600061400082613f34565b91507fffffffffffffffffffffffffffffffffffffffffffffffffffffffffffffffff8214156140335761403261406f565b5b600182019050919050565b600061404982613f34565b915061405483613f34565b9250826140645761406361409e565b5b828206905092915050565b7f4e487b7100000000000000000000000000000000000000000000000000000000600052601160045260246000fd5b7f4e487b7100000000000000000000000000000000000000000000000000000000600052601260045260246000fd5b7f4e487b7100000000000000000000000000000000000000000000000000000000600052602160045260246000fd5b7f4e487b7100000000000000000000000000000000000000000000000000000000600052602260045260246000fd5b7f4e487b7100000000000000000000000000000000000000000000000000000000600052604160045260246000fd5b6000601f19601f8301169050919050565b7f546865726520617265206e6f2070726f6a6563747320746f206469737472696260008201527f757465207468697320726f756e64000000000000000000000000000000000000602082015250565b7f596f752063616e206e6f742070756c6c207468617420746f6b656e0000000000600082015250565b7f50726f706f73616c732061726520636c6f73656420666f72207468697320726f60008201527f756e640000000000000000000000000000000000000000000000000000000000602082015250565b7f546869732070726f6a6563742068617320616c7265616479206265656e20737560008201527f626d697474656400000000000000000000000000000000000000000000000000602082015250565b7f446f6e6174696f6e7320666f72207468697320726f756e64206861766520616c60008201527f7265616479206265656e2073656e740000000000000000000000000000000000602082015250565b7f416464726573733a20696e73756666696369656e742062616c616e636520666f60008201527f722063616c6c0000000000000000000000000000000000000000000000000000602082015250565b7f5468697320726f756e64206973206e6f742066696e6973686564207965740000600082015250565b7f41646472657373206973206e6f742061206d656d626572000000000000000000600082015250565b7f546869732070726f6a656374206973206e6f742070617274206f66207468652060008201527f63757272656e7420726f756e6400000000000000000000000000000000000000602082015250565b7f596f7520617265206e6f7420617574686f72697a656420746f2063616c6c207460008201527f6869732066756e6374696f6e0000000000000000000000000000000000000000602082015250565b7f416464726573733a2063616c6c20746f206e6f6e2d636f6e7472616374000000600082015250565b7f54686520666972737420726f756e6420686173206e6f7420656e646564000000600082015250565b7f5361666545524332303a204552433230206f7065726174696f6e20646964206e60008201527f6f74207375636365656400000000000000000000000000000000000000000000602082015250565b7f566f74696e67207068617365206973206e6f7420796574207374617274656400600082015250565b7f596f7520617265206f7574206f6620766f74657320666f72207468697320726f60008201527f756e640000000000000000000000000000000000000000000000000000000000602082015250565b7f596f7520646f206e6f74206861766520656e6f75676820766f7465732c20747260008201527f7920766f74696e672077697468206c6573730000000000000000000000000000602082015250565b60028110614588576145876140cd565b5b50565b61459481613ee3565b811461459f57600080fd5b50565b6145ab81613ef5565b81146145b657600080fd5b50565b6145c281613f34565b81146145cd57600080fd5b5056fea2646970667358221220ee8f5cbd02c66c8ca33e4f4e2f11cd8a08cfc8b7df02fbd4eccafc4fefbd311b64736f6c63430008040033",
  "linkReferences": {},
  "deployedLinkReferences": {}
}