{
  "_format": "hh-sol-artifact-1",
  "contractName": "GreenDAO",
  "sourceName": "contracts/GreenDAO.sol",
  "abi": [
    {
      "inputs": [
        {
          "internalType": "address",
          "name": "_token",
          "type": "address"
        },
        {
          "internalType": "uint256",
          "name": "_pricePerVote",
          "type": "uint256"
        },
        {
          "internalType": "uint256",
          "name": "_start",
          "type": "uint256"
        }
      ],
      "stateMutability": "nonpayable",
      "type": "constructor"
    },
    {
      "inputs": [
        {
          "internalType": "address",
          "name": "",
          "type": "address"
        }
      ],
      "name": "DAOMembers",
      "outputs": [
        {
          "internalType": "bool",
          "name": "",
          "type": "bool"
        }
      ],
      "stateMutability": "view",
      "type": "function"
    },
    {
      "inputs": [],
      "name": "PROPOSAL_DURATION",
      "outputs": [
        {
          "internalType": "uint256",
          "name": "",
          "type": "uint256"
        }
      ],
      "stateMutability": "view",
      "type": "function"
    },
    {
      "inputs": [],
      "name": "ROUND_DURATION",
      "outputs": [
        {
          "internalType": "uint256",
          "name": "",
          "type": "uint256"
        }
      ],
      "stateMutability": "view",
      "type": "function"
    },
    {
      "inputs": [
        {
          "internalType": "string",
          "name": "_data",
          "type": "string"
        },
        {
          "internalType": "address",
          "name": "_proposedRecipient",
          "type": "address"
        }
      ],
      "name": "addProject",
      "outputs": [],
      "stateMutability": "nonpayable",
      "type": "function"
    },
    {
      "inputs": [],
      "name": "anonymousDonations",
      "outputs": [
        {
          "internalType": "uint256",
          "name": "",
          "type": "uint256"
        }
      ],
      "stateMutability": "view",
      "type": "function"
    },
    {
      "inputs": [
        {
          "internalType": "bytes",
          "name": "checkData",
          "type": "bytes"
        }
      ],
      "name": "checkUpkeep",
      "outputs": [
        {
          "internalType": "bool",
          "name": "upkeepNeeded",
          "type": "bool"
        },
        {
          "internalType": "bytes",
          "name": "performData",
          "type": "bytes"
        }
      ],
      "stateMutability": "nonpayable",
      "type": "function"
    },
    {
      "inputs": [],
      "name": "distribute2Projects",
      "outputs": [],
      "stateMutability": "nonpayable",
      "type": "function"
    },
    {
      "inputs": [
        {
          "internalType": "uint256",
          "name": "roundId",
          "type": "uint256"
        }
      ],
      "name": "distributeToProjects",
      "outputs": [],
      "stateMutability": "nonpayable",
      "type": "function"
    },
    {
      "inputs": [
        {
          "internalType": "uint256",
          "name": "amount",
          "type": "uint256"
        }
      ],
      "name": "donate",
      "outputs": [
        {
          "internalType": "uint256",
          "name": "",
          "type": "uint256"
        }
      ],
      "stateMutability": "nonpayable",
      "type": "function"
    },
    {
      "inputs": [],
      "name": "getCurrentProjects",
      "outputs": [
        {
          "internalType": "address[]",
          "name": "",
          "type": "address[]"
        },
        {
          "components": [
            {
              "internalType": "string",
              "name": "data",
              "type": "string"
            },
            {
              "internalType": "uint256",
              "name": "votes",
              "type": "uint256"
            },
            {
              "internalType": "address",
              "name": "proposedBy",
              "type": "address"
            }
          ],
          "internalType": "struct GreenDAO.Project[]",
          "name": "",
          "type": "tuple[]"
        }
      ],
      "stateMutability": "view",
      "type": "function"
    },
    {
      "inputs": [],
      "name": "getCurrentRound",
      "outputs": [
        {
          "internalType": "uint256",
          "name": "",
          "type": "uint256"
        }
      ],
      "stateMutability": "view",
      "type": "function"
    },
    {
      "inputs": [],
      "name": "getCurrentRoundStatus",
      "outputs": [
        {
          "internalType": "enum GreenDAO.RoundStatus",
          "name": "",
          "type": "uint8"
        }
      ],
      "stateMutability": "view",
      "type": "function"
    },
    {
      "inputs": [],
      "name": "getLastWinners",
      "outputs": [
        {
          "internalType": "address[]",
          "name": "",
          "type": "address[]"
        },
        {
          "components": [
            {
              "internalType": "string",
              "name": "data",
              "type": "string"
            },
            {
              "internalType": "uint256",
              "name": "votes",
              "type": "uint256"
            },
            {
              "internalType": "address",
              "name": "proposedBy",
              "type": "address"
            }
          ],
          "internalType": "struct GreenDAO.Project[]",
          "name": "",
          "type": "tuple[]"
        }
      ],
      "stateMutability": "view",
      "type": "function"
    },
    {
      "inputs": [
        {
          "internalType": "address",
          "name": "user",
          "type": "address"
        }
      ],
      "name": "getProjectsMemberVotedFor",
      "outputs": [
        {
          "internalType": "address[]",
          "name": "",
          "type": "address[]"
        }
      ],
      "stateMutability": "view",
      "type": "function"
    },
    {
      "inputs": [
        {
          "internalType": "address",
          "name": "user",
          "type": "address"
        }
      ],
      "name": "isMember",
      "outputs": [
        {
          "internalType": "bool",
          "name": "",
          "type": "bool"
        }
      ],
      "stateMutability": "view",
      "type": "function"
    },
    {
      "inputs": [
        {
          "internalType": "address",
          "name": "",
          "type": "address"
        }
      ],
      "name": "members",
      "outputs": [
        {
          "internalType": "uint256",
          "name": "votes",
          "type": "uint256"
        },
        {
          "internalType": "uint256",
          "name": "lastRoundPaid",
          "type": "uint256"
        }
      ],
      "stateMutability": "view",
      "type": "function"
    },
    {
      "inputs": [
        {
          "internalType": "bytes",
          "name": "performData",
          "type": "bytes"
        }
      ],
      "name": "performUpkeep",
      "outputs": [],
      "stateMutability": "nonpayable",
      "type": "function"
    },
    {
      "inputs": [],
      "name": "pricePerVote",
      "outputs": [
        {
          "internalType": "uint256",
          "name": "",
          "type": "uint256"
        }
      ],
      "stateMutability": "view",
      "type": "function"
    },
    {
      "inputs": [
        {
          "internalType": "uint256",
          "name": "",
          "type": "uint256"
        },
        {
          "internalType": "address",
          "name": "",
          "type": "address"
        }
      ],
      "name": "projects",
      "outputs": [
        {
          "internalType": "string",
          "name": "data",
          "type": "string"
        },
        {
          "internalType": "uint256",
          "name": "votes",
          "type": "uint256"
        },
        {
          "internalType": "address",
          "name": "proposedBy",
          "type": "address"
        }
      ],
      "stateMutability": "view",
      "type": "function"
    },
    {
      "inputs": [
        {
          "internalType": "uint256",
          "name": "",
          "type": "uint256"
        },
        {
          "internalType": "uint256",
          "name": "",
          "type": "uint256"
        }
      ],
      "name": "projectsPerRound",
      "outputs": [
        {
          "internalType": "address",
          "name": "",
          "type": "address"
        }
      ],
      "stateMutability": "view",
      "type": "function"
    },
    {
      "inputs": [
        {
          "internalType": "address",
          "name": "_tokenAddress",
          "type": "address"
        }
      ],
      "name": "pullTokens",
      "outputs": [],
      "stateMutability": "nonpayable",
      "type": "function"
    },
    {
      "inputs": [
        {
          "internalType": "uint256",
          "name": "",
          "type": "uint256"
        }
      ],
      "name": "rounds",
      "outputs": [
        {
          "internalType": "bool",
          "name": "hasBeenPaid",
          "type": "bool"
        },
        {
          "internalType": "uint256",
          "name": "balance",
          "type": "uint256"
        }
      ],
      "stateMutability": "view",
      "type": "function"
    },
    {
      "inputs": [],
      "name": "start",
      "outputs": [
        {
          "internalType": "uint256",
          "name": "",
          "type": "uint256"
        }
      ],
      "stateMutability": "view",
      "type": "function"
    },
    {
      "inputs": [],
      "name": "token",
      "outputs": [
        {
          "internalType": "address",
          "name": "",
          "type": "address"
        }
      ],
      "stateMutability": "view",
      "type": "function"
    },
    {
      "inputs": [],
      "name": "totalCollected",
      "outputs": [
        {
          "internalType": "uint256",
          "name": "",
          "type": "uint256"
        }
      ],
      "stateMutability": "view",
      "type": "function"
    },
    {
      "inputs": [],
      "name": "totalMembers",
      "outputs": [
        {
          "internalType": "uint256",
          "name": "",
          "type": "uint256"
        }
      ],
      "stateMutability": "view",
      "type": "function"
    },
    {
      "inputs": [],
      "name": "totalPaidProjects",
      "outputs": [
        {
          "internalType": "uint256",
          "name": "",
          "type": "uint256"
        }
      ],
      "stateMutability": "view",
      "type": "function"
    },
    {
      "inputs": [
        {
          "internalType": "address",
          "name": "projectAddress",
          "type": "address"
        },
        {
          "internalType": "uint256",
          "name": "nbOfVote",
          "type": "uint256"
        }
      ],
      "name": "voteForProject",
      "outputs": [],
      "stateMutability": "nonpayable",
      "type": "function"
    }
  ],
  "bytecode": "0x60c06040523480156200001157600080fd5b5060405162004c4438038062004c448339818101604052810190620000379190620001df565b336000806101000a81548173ffffffffffffffffffffffffffffffffffffffff021916908373ffffffffffffffffffffffffffffffffffffffff160217905550806001819055508273ffffffffffffffffffffffffffffffffffffffff1660808173ffffffffffffffffffffffffffffffffffffffff1660601b815250508273ffffffffffffffffffffffffffffffffffffffff1663313ce5676040518163ffffffff1660e01b815260040160206040518083038186803b158015620000fc57600080fd5b505afa15801562000111573d6000803e3d6000fd5b505050506040513d601f19601f8201168201806040525081019062000137919062000235565b600a62000145919062000316565b821162000189576040517f08c379a0000000000000000000000000000000000000000000000000000000008152600401620001809062000288565b60405180910390fd5b8160a0818152505050505062000551565b600081519050620001ab8162000503565b92915050565b600081519050620001c2816200051d565b92915050565b600081519050620001d98162000537565b92915050565b600080600060608486031215620001f557600080fd5b600062000205868287016200019a565b93505060206200021886828701620001b1565b92505060406200022b86828701620001b1565b9150509250925092565b6000602082840312156200024857600080fd5b60006200025884828501620001c8565b91505092915050565b600062000270601683620002aa565b91506200027d82620004da565b602082019050919050565b60006020820190508181036000830152620002a38162000261565b9050919050565b600082825260208201905092915050565b6000808291508390505b60018511156200030d57808604811115620002e557620002e46200049e565b5b6001851615620002f55780820291505b80810290506200030585620004cd565b9450620002c5565b94509492505050565b6000620003238262000487565b9150620003308362000491565b92506200035f7fffffffffffffffffffffffffffffffffffffffffffffffffffffffffffffffff848462000367565b905092915050565b6000826200037957600190506200044c565b816200038957600090506200044c565b8160018114620003a25760028114620003ad57620003e3565b60019150506200044c565b60ff841115620003c257620003c16200049e565b5b8360020a915084821115620003dc57620003db6200049e565b5b506200044c565b5060208310610133831016604e8410600b84101617156200041d5782820a9050838111156200041757620004166200049e565b5b6200044c565b6200042c8484846001620002bb565b925090508184048111156200044657620004456200049e565b5b81810290505b9392505050565b6000620004608262000467565b9050919050565b600073ffffffffffffffffffffffffffffffffffffffff82169050919050565b6000819050919050565b600060ff82169050919050565b7f4e487b7100000000000000000000000000000000000000000000000000000000600052601160045260246000fd5b60008160011c9050919050565b7f50726963652070657220766f746520746f6f206c6f7700000000000000000000600082015250565b6200050e8162000453565b81146200051a57600080fd5b50565b620005288162000487565b81146200053457600080fd5b50565b620005428162000491565b81146200054e57600080fd5b50565b60805160601c60a0516146a76200059d6000396000818161061d01528181611cc50152611e4e015260008181610a0401528181610b2501528181611bc8015261226801526146a76000f3fe608060405234801561001057600080fd5b50600436106101c45760003560e01c80637f097010116100f9578063be9a655511610097578063e29eb83611610071578063e29eb83614610511578063f14faf6f1461052f578063f2645e371461055f578063fc0c546a1461057e576101c4565b8063be9a6555146104bb578063bf65a9df146104d9578063cc90e725146104f5576101c4565b80638de16615116100d35780638de166151461041e578063956909361461044e578063a230c5241461046d578063a32bf5971461049d576101c4565b80637f097010146103b1578063871e5d73146103cf5780638c65c81f146103ed576101c4565b80634585e33b1161016657806368ef87901161014057806368ef8790146103145780636da1a9f8146103325780636e04ff0d1461036257806376e9255914610393576101c4565b80634585e33b146102a8578063534797a0146102c45780636641ea08146102f6576101c4565b806315df7700116101a257806315df77001461022257806329a8b19f14610240578063330b4ab21461025c57806342e9c6ce1461028c576101c4565b80630667cfcf146101c957806308ae4b0c146101d35780630d31d83514610204575b600080fd5b6101d161059c565b005b6101ed60048036038101906101e8919061328f565b6105ba565b6040516101fb929190613d2a565b60405180910390f35b61020c6105de565b6040516102199190613a94565b60405180910390f35b61022a61061b565b6040516102379190613d0f565b60405180910390f35b61025a600480360381019061025591906133b6565b61063f565b005b61027660048036038101906102719190613444565b610a47565b604051610283919061394c565b60405180910390f35b6102a660048036038101906102a1919061328f565b610a95565b005b6102c260048036038101906102bd919061331d565b610c6e565b005b6102de60048036038101906102d99190613408565b610d14565b6040516102ed93929190613ad1565b60405180910390f35b6102fe610df3565b60405161030b9190613d0f565b60405180910390f35b61031c610df9565b6040516103299190613d0f565b60405180910390f35b61034c6004803603810190610347919061328f565b610dff565b6040516103599190613a20565b60405180910390f35b61037c6004803603810190610377919061331d565b610e1f565b60405161038a929190613a3b565b60405180910390f35b61039b610e6a565b6040516103a89190613d0f565b60405180910390f35b6103b9610e70565b6040516103c69190613d0f565b60405180910390f35b6103d7610e76565b6040516103e49190613d0f565b60405180910390f35b610407600480360381019061040291906133b6565b610e7c565b604051610415929190613a6b565b60405180910390f35b6104386004803603810190610433919061328f565b610ead565b60405161044591906139c7565b60405180910390f35b610456610fcb565b6040516104649291906139e9565b60405180910390f35b6104876004803603810190610482919061328f565b61134c565b6040516104949190613a20565b60405180910390f35b6104a56113a6565b6040516104b29190613d0f565b60405180910390f35b6104c36113d9565b6040516104d09190613d0f565b60405180910390f35b6104f360048036038101906104ee91906132b8565b6113df565b005b61050f600480360381019061050a9190613362565b611846565b005b610519611bbb565b6040516105269190613d0f565b60405180910390f35b610549600480360381019061054491906133b6565b611bc1565b6040516105569190613d0f565b60405180910390f35b610567611f3e565b6040516105759291906139e9565b60405180910390f35b610586612266565b604051610593919061394c565b60405180910390f35b6105b860016105a96113a6565b6105b39190613f50565b61063f565b565b60026020528060005260406000206000915090508060000154908060010154905082565b600080600154426105ef9190613f50565b905061546061a8c08261060291906140df565b1015610612576000915050610618565b60019150505b90565b7f000000000000000000000000000000000000000000000000000000000000000081565b6005600082815260200190815260200160002060000160009054906101000a900460ff16156106a3576040517f08c379a000000000000000000000000000000000000000000000000000000000815260040161069a90613b8f565b60405180910390fd5b6106ab6113a6565b81141580156106bb575060008114155b6106fa576040517f08c379a00000000000000000000000000000000000000000000000000000000081526004016106f190613bcf565b60405180910390fd5b600060046000838152602001908152602001600020805490501415610754576040517f08c379a000000000000000000000000000000000000000000000000000000000815260040161074b90613b0f565b60405180910390fd5b60016005600083815260200190815260200160002060000160006101000a81548160ff021916908315150217905550600061078e8261228a565b9050600080600090505b82518110156108615760008382815181106107dc577f4e487b7100000000000000000000000000000000000000000000000000000000600052603260045260246000fd5b6020026020010151905060006003600087815260200190815260200160002060008373ffffffffffffffffffffffffffffffffffffffff1673ffffffffffffffffffffffffffffffffffffffff168152602001908152602001600020600101549050808461084a9190613e6f565b93505050808061085990614096565b915050610798565b5060005b8251811015610a415760008382815181106108a9577f4e487b7100000000000000000000000000000000000000000000000000000000600052603260045260246000fd5b60200260200101519050600073ffffffffffffffffffffffffffffffffffffffff168173ffffffffffffffffffffffffffffffffffffffff1614610a2d57600760008154809291906108fa90614096565b919050555060056000868152602001908152602001600020600101819080600181540180825580915050600190039060005260206000200160009091909190916101000a81548173ffffffffffffffffffffffffffffffffffffffff021916908373ffffffffffffffffffffffffffffffffffffffff16021790555060006003600087815260200190815260200160002060008373ffffffffffffffffffffffffffffffffffffffff1673ffffffffffffffffffffffffffffffffffffffff16815260200190815260200160002060010154905060008482600560008a8152602001908152602001600020600201546109f39190613ef6565b6109fd9190613ec5565b9050610a2a7f00000000000000000000000000000000000000000000000000000000000000008483612d23565b50505b508080610a3990614096565b915050610865565b50505050565b60046020528160005260406000208181548110610a6357600080fd5b906000526020600020016000915091509054906101000a900473ffffffffffffffffffffffffffffffffffffffff1681565b60008054906101000a900473ffffffffffffffffffffffffffffffffffffffff1673ffffffffffffffffffffffffffffffffffffffff163373ffffffffffffffffffffffffffffffffffffffff1614610b23576040517f08c379a0000000000000000000000000000000000000000000000000000000008152600401610b1a90613c2f565b60405180910390fd5b7f000000000000000000000000000000000000000000000000000000000000000073ffffffffffffffffffffffffffffffffffffffff168173ffffffffffffffffffffffffffffffffffffffff161415610bb2576040517f08c379a0000000000000000000000000000000000000000000000000000000008152600401610ba990613b2f565b60405180910390fd5b60008173ffffffffffffffffffffffffffffffffffffffff166370a08231306040518263ffffffff1660e01b8152600401610bed919061394c565b60206040518083038186803b158015610c0557600080fd5b505afa158015610c19573d6000803e3d6000fd5b505050506040513d601f19601f82011682018060405250810190610c3d91906133df565b9050610c6a8260008054906101000a900473ffffffffffffffffffffffffffffffffffffffff1683612d23565b5050565b60006001610c7a6113a6565b610c849190613f50565b90506005600082815260200190815260200160002060000160009054906101000a900460ff16610d0f573073ffffffffffffffffffffffffffffffffffffffff16630667cfcf6040518163ffffffff1660e01b8152600401600060405180830381600087803b158015610cf657600080fd5b505af1158015610d0a573d6000803e3d6000fd5b505050505b505050565b600360205281600052604060002060205280600052604060002060009150915050806000018054610d4490614033565b80601f0160208091040260200160405190810160405280929190818152602001828054610d7090614033565b8015610dbd5780601f10610d9257610100808354040283529160200191610dbd565b820191906000526020600020905b815481529060010190602001808311610da057829003601f168201915b5050505050908060010154908060020160009054906101000a900473ffffffffffffffffffffffffffffffffffffffff16905083565b61a8c081565b600a5481565b60086020528060005260406000206000915054906101000a900460ff1681565b6000606060006001610e2f6113a6565b610e399190613f50565b90506005600082815260200190815260200160002060000160009054906101000a900460ff16159250509250929050565b60095481565b61546081565b60075481565b60056020528060005260406000206000915090508060000160009054906101000a900460ff16908060020154905082565b6060610eb88261134c565b610ef7576040517f08c379a0000000000000000000000000000000000000000000000000000000008152600401610eee90613bef565b60405180910390fd5b6000600260008473ffffffffffffffffffffffffffffffffffffffff1673ffffffffffffffffffffffffffffffffffffffff168152602001908152602001600020600201805480602002602001604051908101604052809291908181526020018280548015610fbb57602002820191906000526020600020905b8160009054906101000a900473ffffffffffffffffffffffffffffffffffffffff1673ffffffffffffffffffffffffffffffffffffffff1681526020019060010190808311610f71575b5050505050905080915050919050565b6060806001610fd86113a6565b11611018576040517f08c379a000000000000000000000000000000000000000000000000000000000815260040161100f90613c6f565b60405180910390fd5b600060016110246113a6565b61102e9190613f50565b90506000600560008381526020019081526020016000206001018054806020026020016040519081016040528092919081815260200182805480156110c857602002820191906000526020600020905b8160009054906101000a900473ffffffffffffffffffffffffffffffffffffffff1673ffffffffffffffffffffffffffffffffffffffff168152602001906001019080831161107e575b505050505090506000815167ffffffffffffffff811115611112577f4e487b7100000000000000000000000000000000000000000000000000000000600052604160045260246000fd5b60405190808252806020026020018201604052801561114b57816020015b6111386130af565b8152602001906001900390816111305790505b50905060005b825181101561133e576003600085815260200190815260200160002060008483815181106111a8577f4e487b7100000000000000000000000000000000000000000000000000000000600052603260045260246000fd5b602002602001015173ffffffffffffffffffffffffffffffffffffffff1673ffffffffffffffffffffffffffffffffffffffff16815260200190815260200160002060405180606001604052908160008201805461120590614033565b80601f016020809104026020016040519081016040528092919081815260200182805461123190614033565b801561127e5780601f106112535761010080835404028352916020019161127e565b820191906000526020600020905b81548152906001019060200180831161126157829003601f168201915b50505050508152602001600182015481526020016002820160009054906101000a900473ffffffffffffffffffffffffffffffffffffffff1673ffffffffffffffffffffffffffffffffffffffff1673ffffffffffffffffffffffffffffffffffffffff1681525050828281518110611320577f4e487b7100000000000000000000000000000000000000000000000000000000600052603260045260246000fd5b6020026020010181905250808061133690614096565b915050611151565b508181945094505050509091565b6000806113576113a6565b905080600260008573ffffffffffffffffffffffffffffffffffffffff1673ffffffffffffffffffffffffffffffffffffffff1681526020019081526020016000206001015414915050919050565b600080600154426113b79190613f50565b9050600161a8c0826113c99190613ec5565b6113d39190613e6f565b91505090565b60015481565b6000600260003373ffffffffffffffffffffffffffffffffffffffff1673ffffffffffffffffffffffffffffffffffffffff168152602001908152602001600020600001541415611465576040517f08c379a000000000000000000000000000000000000000000000000000000000815260040161145c90613ccf565b60405180910390fd5b80600260003373ffffffffffffffffffffffffffffffffffffffff1673ffffffffffffffffffffffffffffffffffffffff1681526020019081526020016000206000015410156114ea576040517f08c379a00000000000000000000000000000000000000000000000000000000081526004016114e190613cef565b60405180910390fd5b600180811115611523577f4e487b7100000000000000000000000000000000000000000000000000000000600052602160045260246000fd5b61152b6105de565b6001811115611563577f4e487b7100000000000000000000000000000000000000000000000000000000600052602160045260246000fd5b146115a3576040517f08c379a000000000000000000000000000000000000000000000000000000000815260040161159a90613caf565b60405180910390fd5b6115ac3361134c565b6115eb576040517f08c379a00000000000000000000000000000000000000000000000000000000081526004016115e290613bef565b60405180910390fd5b600073ffffffffffffffffffffffffffffffffffffffff166003600061160f6113a6565b815260200190815260200160002060008473ffffffffffffffffffffffffffffffffffffffff1673ffffffffffffffffffffffffffffffffffffffff16815260200190815260200160002060020160009054906101000a900473ffffffffffffffffffffffffffffffffffffffff1673ffffffffffffffffffffffffffffffffffffffff1614156116d5576040517f08c379a00000000000000000000000000000000000000000000000000000000081526004016116cc90613c0f565b60405180910390fd5b80600260003373ffffffffffffffffffffffffffffffffffffffff1673ffffffffffffffffffffffffffffffffffffffff16815260200190815260200160002060000160008282546117279190613f50565b92505081905550600260003373ffffffffffffffffffffffffffffffffffffffff1673ffffffffffffffffffffffffffffffffffffffff168152602001908152602001600020600201829080600181540180825580915050600190039060005260206000200160009091909190916101000a81548173ffffffffffffffffffffffffffffffffffffffff021916908373ffffffffffffffffffffffffffffffffffffffff16021790555080600360006117de6113a6565b815260200190815260200160002060008473ffffffffffffffffffffffffffffffffffffffff1673ffffffffffffffffffffffffffffffffffffffff168152602001908152602001600020600101600082825461183b9190613e6f565b925050819055505050565b60006001811115611880577f4e487b7100000000000000000000000000000000000000000000000000000000600052602160045260246000fd5b6118886105de565b60018111156118c0577f4e487b7100000000000000000000000000000000000000000000000000000000600052602160045260246000fd5b14611900576040517f08c379a00000000000000000000000000000000000000000000000000000000081526004016118f790613b4f565b60405180910390fd5b6119093361134c565b611948576040517f08c379a000000000000000000000000000000000000000000000000000000000815260040161193f90613bef565b60405180910390fd5b60006119526113a6565b9050600073ffffffffffffffffffffffffffffffffffffffff166003600083815260200190815260200160002060008473ffffffffffffffffffffffffffffffffffffffff1673ffffffffffffffffffffffffffffffffffffffff16815260200190815260200160002060020160009054906101000a900473ffffffffffffffffffffffffffffffffffffffff1673ffffffffffffffffffffffffffffffffffffffff1614611a36576040517f08c379a0000000000000000000000000000000000000000000000000000000008152600401611a2d90613b6f565b60405180910390fd5b611a3e6130af565b83816000018190525033816040019073ffffffffffffffffffffffffffffffffffffffff16908173ffffffffffffffffffffffffffffffffffffffff1681525050806003600084815260200190815260200160002060008573ffffffffffffffffffffffffffffffffffffffff1673ffffffffffffffffffffffffffffffffffffffff1681526020019081526020016000206000820151816000019080519060200190611aec9291906130e6565b506020820151816001015560408201518160020160006101000a81548173ffffffffffffffffffffffffffffffffffffffff021916908373ffffffffffffffffffffffffffffffffffffffff16021790555090505060046000838152602001908152602001600020839080600181540180825580915050600190039060005260206000200160009091909190916101000a81548173ffffffffffffffffffffffffffffffffffffffff021916908373ffffffffffffffffffffffffffffffffffffffff16021790555050505050565b60065481565b6000611bef7f0000000000000000000000000000000000000000000000000000000000000000333085612da9565b6000611bf96113a6565b905082600560008381526020019081526020016000206002016000828254611c219190613e6f565b925050819055508260066000828254611c3a9190613e6f565b9250508190555060006001811115611c7b577f4e487b7100000000000000000000000000000000000000000000000000000000600052602160045260246000fd5b611c836105de565b6001811115611cbb577f4e487b7100000000000000000000000000000000000000000000000000000000600052602160045260246000fd5b148015611ce857507f00000000000000000000000000000000000000000000000000000000000000008310155b15611f1b57611cf63361134c565b611e4c57600860003373ffffffffffffffffffffffffffffffffffffffff1673ffffffffffffffffffffffffffffffffffffffff16815260200190815260200160002060009054906101000a900460ff16611d645760096000815480929190611d5e90614096565b91905055505b6001600860003373ffffffffffffffffffffffffffffffffffffffff1673ffffffffffffffffffffffffffffffffffffffff16815260200190815260200160002060006101000a81548160ff02191690831515021790555080600260003373ffffffffffffffffffffffffffffffffffffffff1673ffffffffffffffffffffffffffffffffffffffff168152602001908152602001600020600101819055506000600260003373ffffffffffffffffffffffffffffffffffffffff1673ffffffffffffffffffffffffffffffffffffffff168152602001908152602001600020600001819055505b7f000000000000000000000000000000000000000000000000000000000000000083611e789190613ec5565b600260003373ffffffffffffffffffffffffffffffffffffffff1673ffffffffffffffffffffffffffffffffffffffff1681526020019081526020016000206000016000828254611ec99190613e6f565b92505081905550600260003373ffffffffffffffffffffffffffffffffffffffff1673ffffffffffffffffffffffffffffffffffffffff16815260200190815260200160002060000154915050611f39565b600a6000815480929190611f2e90614096565b919050555060009150505b919050565b6060806000611f4b6113a6565b9050600060046000838152602001908152602001600020805480602002602001604051908101604052809291908181526020018280548015611fe257602002820191906000526020600020905b8160009054906101000a900473ffffffffffffffffffffffffffffffffffffffff1673ffffffffffffffffffffffffffffffffffffffff1681526020019060010190808311611f98575b505050505090506000815167ffffffffffffffff81111561202c577f4e487b7100000000000000000000000000000000000000000000000000000000600052604160045260246000fd5b60405190808252806020026020018201604052801561206557816020015b6120526130af565b81526020019060019003908161204a5790505b50905060005b8251811015612258576003600085815260200190815260200160002060008483815181106120c2577f4e487b7100000000000000000000000000000000000000000000000000000000600052603260045260246000fd5b602002602001015173ffffffffffffffffffffffffffffffffffffffff1673ffffffffffffffffffffffffffffffffffffffff16815260200190815260200160002060405180606001604052908160008201805461211f90614033565b80601f016020809104026020016040519081016040528092919081815260200182805461214b90614033565b80156121985780601f1061216d57610100808354040283529160200191612198565b820191906000526020600020905b81548152906001019060200180831161217b57829003601f168201915b50505050508152602001600182015481526020016002820160009054906101000a900473ffffffffffffffffffffffffffffffffffffffff1673ffffffffffffffffffffffffffffffffffffffff1673ffffffffffffffffffffffffffffffffffffffff168152505082828151811061223a577f4e487b7100000000000000000000000000000000000000000000000000000000600052603260045260246000fd5b6020026020010181905250808061225090614096565b91505061206b565b508181945094505050509091565b7f000000000000000000000000000000000000000000000000000000000000000081565b6060600080600080600090505b60046000878152602001908152602001600020805490508110156123f5576000600460008881526020019081526020016000208281548110612302577f4e487b7100000000000000000000000000000000000000000000000000000000600052603260045260246000fd5b9060005260206000200160009054906101000a900473ffffffffffffffffffffffffffffffffffffffff16905060006003600089815260200190815260200160002060008373ffffffffffffffffffffffffffffffffffffffff1673ffffffffffffffffffffffffffffffffffffffff1681526020019081526020016000206001015490508581141580156123975750848114155b80156123a35750838114155b156123e057858111156123be578493508594508095506123df565b848111156123d1578493508094506123de565b838111156123dd578093505b5b5b5b505080806123ed90614096565b915050612297565b506000600a67ffffffffffffffff811115612439577f4e487b7100000000000000000000000000000000000000000000000000000000600052604160045260246000fd5b6040519080825280602002602001820160405280156124675781602001602082028036833780820191505090505b5090506000600a67ffffffffffffffff8111156124ad577f4e487b7100000000000000000000000000000000000000000000000000000000600052604160045260246000fd5b6040519080825280602002602001820160405280156124db5781602001602082028036833780820191505090505b5090506000600a67ffffffffffffffff811115612521577f4e487b7100000000000000000000000000000000000000000000000000000000600052604160045260246000fd5b60405190808252806020026020018201604052801561254f5781602001602082028036833780820191505090505b50905060005b600460008a8152602001908152602001600020805490508110156126d7576000600460008b815260200190815260200160002082815481106125c0577f4e487b7100000000000000000000000000000000000000000000000000000000600052603260045260246000fd5b9060005260206000200160009054906101000a900473ffffffffffffffffffffffffffffffffffffffff1690506000600360008c815260200190815260200160002060008373ffffffffffffffffffffffffffffffffffffffff1673ffffffffffffffffffffffffffffffffffffffff168152602001908152602001600020600101549050888114156126c25781868481518110612687577f4e487b7100000000000000000000000000000000000000000000000000000000600052603260045260246000fd5b602002602001019073ffffffffffffffffffffffffffffffffffffffff16908173ffffffffffffffffffffffffffffffffffffffff16815250505b505080806126cf90614096565b915050612555565b5060005b600460008a81526020019081526020016000208054905081101561285d576000600460008b81526020019081526020016000208281548110612746577f4e487b7100000000000000000000000000000000000000000000000000000000600052603260045260246000fd5b9060005260206000200160009054906101000a900473ffffffffffffffffffffffffffffffffffffffff1690506000600360008c815260200190815260200160002060008373ffffffffffffffffffffffffffffffffffffffff1673ffffffffffffffffffffffffffffffffffffffff16815260200190815260200160002060010154905087811415612848578185848151811061280d577f4e487b7100000000000000000000000000000000000000000000000000000000600052603260045260246000fd5b602002602001019073ffffffffffffffffffffffffffffffffffffffff16908173ffffffffffffffffffffffffffffffffffffffff16815250505b5050808061285590614096565b9150506126db565b5060005b600460008a8152602001908152602001600020805490508110156129f3576000600460008b815260200190815260200160002082815481106128cc577f4e487b7100000000000000000000000000000000000000000000000000000000600052603260045260246000fd5b9060005260206000200160009054906101000a900473ffffffffffffffffffffffffffffffffffffffff1690506000600360008c815260200190815260200160002060008373ffffffffffffffffffffffffffffffffffffffff1673ffffffffffffffffffffffffffffffffffffffff16815260200190815260200160002060010154905060008114156129615750506129f3565b868114156129de57818484815181106129a3577f4e487b7100000000000000000000000000000000000000000000000000000000600052603260045260246000fd5b602002602001019073ffffffffffffffffffffffffffffffffffffffff16908173ffffffffffffffffffffffffffffffffffffffff16815250505b505080806129eb90614096565b915050612861565b506000601e67ffffffffffffffff811115612a37577f4e487b7100000000000000000000000000000000000000000000000000000000600052604160045260246000fd5b604051908082528060200260200182016040528015612a655781602001602082028036833780820191505090505b509050600080600090505b600a811015612b4e57858181518110612ab2577f4e487b7100000000000000000000000000000000000000000000000000000000600052603260045260246000fd5b6020026020010151838381518110612af3577f4e487b7100000000000000000000000000000000000000000000000000000000600052603260045260246000fd5b602002602001019073ffffffffffffffffffffffffffffffffffffffff16908173ffffffffffffffffffffffffffffffffffffffff16815250508180612b3890614096565b9250508080612b4690614096565b915050612a70565b5060005b600a811015612c3057848181518110612b94577f4e487b7100000000000000000000000000000000000000000000000000000000600052603260045260246000fd5b6020026020010151838381518110612bd5577f4e487b7100000000000000000000000000000000000000000000000000000000600052603260045260246000fd5b602002602001019073ffffffffffffffffffffffffffffffffffffffff16908173ffffffffffffffffffffffffffffffffffffffff16815250508180612c1a90614096565b9250508080612c2890614096565b915050612b52565b5060005b600a811015612d1257838181518110612c76577f4e487b7100000000000000000000000000000000000000000000000000000000600052603260045260246000fd5b6020026020010151838381518110612cb7577f4e487b7100000000000000000000000000000000000000000000000000000000600052603260045260246000fd5b602002602001019073ffffffffffffffffffffffffffffffffffffffff16908173ffffffffffffffffffffffffffffffffffffffff16815250508180612cfc90614096565b9250508080612d0a90614096565b915050612c34565b508198505050505050505050919050565b612da48363a9059cbb60e01b8484604051602401612d4292919061399e565b604051602081830303815290604052907bffffffffffffffffffffffffffffffffffffffffffffffffffffffff19166020820180517bffffffffffffffffffffffffffffffffffffffffffffffffffffffff8381831617835250505050612e32565b505050565b612e2c846323b872dd60e01b858585604051602401612dca93929190613967565b604051602081830303815290604052907bffffffffffffffffffffffffffffffffffffffffffffffffffffffff19166020820180517bffffffffffffffffffffffffffffffffffffffffffffffffffffffff8381831617835250505050612e32565b50505050565b6000612e94826040518060400160405280602081526020017f5361666545524332303a206c6f772d6c6576656c2063616c6c206661696c65648152508573ffffffffffffffffffffffffffffffffffffffff16612ef99092919063ffffffff16565b9050600081511115612ef45780806020019051810190612eb491906132f4565b612ef3576040517f08c379a0000000000000000000000000000000000000000000000000000000008152600401612eea90613c8f565b60405180910390fd5b5b505050565b6060612f088484600085612f11565b90509392505050565b606082471015612f56576040517f08c379a0000000000000000000000000000000000000000000000000000000008152600401612f4d90613baf565b60405180910390fd5b612f5f85613025565b612f9e576040517f08c379a0000000000000000000000000000000000000000000000000000000008152600401612f9590613c4f565b60405180910390fd5b6000808673ffffffffffffffffffffffffffffffffffffffff168587604051612fc79190613935565b60006040518083038185875af1925050503d8060008114613004576040519150601f19603f3d011682016040523d82523d6000602084013e613009565b606091505b5091509150613019828286613048565b92505050949350505050565b6000808273ffffffffffffffffffffffffffffffffffffffff163b119050919050565b60608315613058578290506130a8565b60008351111561306b5782518084602001fd5b816040517f08c379a000000000000000000000000000000000000000000000000000000000815260040161309f9190613aaf565b60405180910390fd5b9392505050565b60405180606001604052806060815260200160008152602001600073ffffffffffffffffffffffffffffffffffffffff1681525090565b8280546130f290614033565b90600052602060002090601f016020900481019282613114576000855561315b565b82601f1061312d57805160ff191683800117855561315b565b8280016001018555821561315b579182015b8281111561315a57825182559160200191906001019061313f565b5b509050613168919061316c565b5090565b5b8082111561318557600081600090555060010161316d565b5090565b600061319c61319784613d78565b613d53565b9050828152602081018484840111156131b457600080fd5b6131bf848285613ff1565b509392505050565b6000813590506131d68161462c565b92915050565b6000815190506131eb81614643565b92915050565b60008083601f84011261320357600080fd5b8235905067ffffffffffffffff81111561321c57600080fd5b60208301915083600182028301111561323457600080fd5b9250929050565b600082601f83011261324c57600080fd5b813561325c848260208601613189565b91505092915050565b6000813590506132748161465a565b92915050565b6000815190506132898161465a565b92915050565b6000602082840312156132a157600080fd5b60006132af848285016131c7565b91505092915050565b600080604083850312156132cb57600080fd5b60006132d9858286016131c7565b92505060206132ea85828601613265565b9150509250929050565b60006020828403121561330657600080fd5b6000613314848285016131dc565b91505092915050565b6000806020838503121561333057600080fd5b600083013567ffffffffffffffff81111561334a57600080fd5b613356858286016131f1565b92509250509250929050565b6000806040838503121561337557600080fd5b600083013567ffffffffffffffff81111561338f57600080fd5b61339b8582860161323b565b92505060206133ac858286016131c7565b9150509250929050565b6000602082840312156133c857600080fd5b60006133d684828501613265565b91505092915050565b6000602082840312156133f157600080fd5b60006133ff8482850161327a565b91505092915050565b6000806040838503121561341b57600080fd5b600061342985828601613265565b925050602061343a858286016131c7565b9150509250929050565b6000806040838503121561345757600080fd5b600061346585828601613265565b925050602061347685828601613265565b9150509250929050565b600061348c83836134ac565b60208301905092915050565b60006134a483836138c7565b905092915050565b6134b581613f84565b82525050565b6134c481613f84565b82525050565b60006134d582613dc9565b6134df8185613e0f565b93506134ea83613da9565b8060005b8381101561351b5781516135028882613480565b975061350d83613df5565b9250506001810190506134ee565b5085935050505092915050565b600061353382613dd4565b61353d8185613e20565b93508360208202850161354f85613db9565b8060005b8581101561358b578484038952815161356c8582613498565b945061357783613e02565b925060208a01995050600181019050613553565b50829750879550505050505092915050565b6135a681613f96565b82525050565b60006135b782613ddf565b6135c18185613e31565b93506135d1818560208601614000565b6135da816141fb565b840191505092915050565b60006135f082613ddf565b6135fa8185613e42565b935061360a818560208601614000565b80840191505092915050565b61361f81613fdf565b82525050565b600061363082613dea565b61363a8185613e4d565b935061364a818560208601614000565b613653816141fb565b840191505092915050565b600061366982613dea565b6136738185613e5e565b9350613683818560208601614000565b61368c816141fb565b840191505092915050565b60006136a4602e83613e5e565b91506136af8261420c565b604082019050919050565b60006136c7601b83613e5e565b91506136d28261425b565b602082019050919050565b60006136ea602383613e5e565b91506136f582614284565b604082019050919050565b600061370d602783613e5e565b9150613718826142d3565b604082019050919050565b6000613730602f83613e5e565b915061373b82614322565b604082019050919050565b6000613753602683613e5e565b915061375e82614371565b604082019050919050565b6000613776601e83613e5e565b9150613781826143c0565b602082019050919050565b6000613799601783613e5e565b91506137a4826143e9565b602082019050919050565b60006137bc602d83613e5e565b91506137c782614412565b604082019050919050565b60006137df602c83613e5e565b91506137ea82614461565b604082019050919050565b6000613802601d83613e5e565b915061380d826144b0565b602082019050919050565b6000613825601d83613e5e565b9150613830826144d9565b602082019050919050565b6000613848602a83613e5e565b915061385382614502565b604082019050919050565b600061386b601f83613e5e565b915061387682614551565b602082019050919050565b600061388e602383613e5e565b91506138998261457a565b604082019050919050565b60006138b1603283613e5e565b91506138bc826145c9565b604082019050919050565b600060608301600083015184820360008601526138e48282613625565b91505060208301516138f96020860182613917565b50604083015161390c60408601826134ac565b508091505092915050565b61392081613fd5565b82525050565b61392f81613fd5565b82525050565b600061394182846135e5565b915081905092915050565b600060208201905061396160008301846134bb565b92915050565b600060608201905061397c60008301866134bb565b61398960208301856134bb565b6139966040830184613926565b949350505050565b60006040820190506139b360008301856134bb565b6139c06020830184613926565b9392505050565b600060208201905081810360008301526139e181846134ca565b905092915050565b60006040820190508181036000830152613a0381856134ca565b90508181036020830152613a178184613528565b90509392505050565b6000602082019050613a35600083018461359d565b92915050565b6000604082019050613a50600083018561359d565b8181036020830152613a6281846135ac565b90509392505050565b6000604082019050613a80600083018561359d565b613a8d6020830184613926565b9392505050565b6000602082019050613aa96000830184613616565b92915050565b60006020820190508181036000830152613ac9818461365e565b905092915050565b60006060820190508181036000830152613aeb818661365e565b9050613afa6020830185613926565b613b0760408301846134bb565b949350505050565b60006020820190508181036000830152613b2881613697565b9050919050565b60006020820190508181036000830152613b48816136ba565b9050919050565b60006020820190508181036000830152613b68816136dd565b9050919050565b60006020820190508181036000830152613b8881613700565b9050919050565b60006020820190508181036000830152613ba881613723565b9050919050565b60006020820190508181036000830152613bc881613746565b9050919050565b60006020820190508181036000830152613be881613769565b9050919050565b60006020820190508181036000830152613c088161378c565b9050919050565b60006020820190508181036000830152613c28816137af565b9050919050565b60006020820190508181036000830152613c48816137d2565b9050919050565b60006020820190508181036000830152613c68816137f5565b9050919050565b60006020820190508181036000830152613c8881613818565b9050919050565b60006020820190508181036000830152613ca88161383b565b9050919050565b60006020820190508181036000830152613cc88161385e565b9050919050565b60006020820190508181036000830152613ce881613881565b9050919050565b60006020820190508181036000830152613d08816138a4565b9050919050565b6000602082019050613d246000830184613926565b92915050565b6000604082019050613d3f6000830185613926565b613d4c6020830184613926565b9392505050565b6000613d5d613d6e565b9050613d698282614065565b919050565b6000604051905090565b600067ffffffffffffffff821115613d9357613d926141cc565b5b613d9c826141fb565b9050602081019050919050565b6000819050602082019050919050565b6000819050602082019050919050565b600081519050919050565b600081519050919050565b600081519050919050565b600081519050919050565b6000602082019050919050565b6000602082019050919050565b600082825260208201905092915050565b600082825260208201905092915050565b600082825260208201905092915050565b600081905092915050565b600082825260208201905092915050565b600082825260208201905092915050565b6000613e7a82613fd5565b9150613e8583613fd5565b9250827fffffffffffffffffffffffffffffffffffffffffffffffffffffffffffffffff03821115613eba57613eb9614110565b5b828201905092915050565b6000613ed082613fd5565b9150613edb83613fd5565b925082613eeb57613eea61413f565b5b828204905092915050565b6000613f0182613fd5565b9150613f0c83613fd5565b9250817fffffffffffffffffffffffffffffffffffffffffffffffffffffffffffffffff0483118215151615613f4557613f44614110565b5b828202905092915050565b6000613f5b82613fd5565b9150613f6683613fd5565b925082821015613f7957613f78614110565b5b828203905092915050565b6000613f8f82613fb5565b9050919050565b60008115159050919050565b6000819050613fb082614618565b919050565b600073ffffffffffffffffffffffffffffffffffffffff82169050919050565b6000819050919050565b6000613fea82613fa2565b9050919050565b82818337600083830152505050565b60005b8381101561401e578082015181840152602081019050614003565b8381111561402d576000848401525b50505050565b6000600282049050600182168061404b57607f821691505b6020821081141561405f5761405e61419d565b5b50919050565b61406e826141fb565b810181811067ffffffffffffffff8211171561408d5761408c6141cc565b5b80604052505050565b60006140a182613fd5565b91507fffffffffffffffffffffffffffffffffffffffffffffffffffffffffffffffff8214156140d4576140d3614110565b5b600182019050919050565b60006140ea82613fd5565b91506140f583613fd5565b9250826141055761410461413f565b5b828206905092915050565b7f4e487b7100000000000000000000000000000000000000000000000000000000600052601160045260246000fd5b7f4e487b7100000000000000000000000000000000000000000000000000000000600052601260045260246000fd5b7f4e487b7100000000000000000000000000000000000000000000000000000000600052602160045260246000fd5b7f4e487b7100000000000000000000000000000000000000000000000000000000600052602260045260246000fd5b7f4e487b7100000000000000000000000000000000000000000000000000000000600052604160045260246000fd5b6000601f19601f8301169050919050565b7f546865726520617265206e6f2070726f6a6563747320746f206469737472696260008201527f757465207468697320726f756e64000000000000000000000000000000000000602082015250565b7f596f752063616e206e6f742070756c6c207468617420746f6b656e0000000000600082015250565b7f50726f706f73616c732061726520636c6f73656420666f72207468697320726f60008201527f756e640000000000000000000000000000000000000000000000000000000000602082015250565b7f546869732070726f6a6563742068617320616c7265616479206265656e20737560008201527f626d697474656400000000000000000000000000000000000000000000000000602082015250565b7f446f6e6174696f6e7320666f72207468697320726f756e64206861766520616c60008201527f7265616479206265656e2073656e740000000000000000000000000000000000602082015250565b7f416464726573733a20696e73756666696369656e742062616c616e636520666f60008201527f722063616c6c0000000000000000000000000000000000000000000000000000602082015250565b7f5468697320726f756e64206973206e6f742066696e6973686564207965740000600082015250565b7f41646472657373206973206e6f742061206d656d626572000000000000000000600082015250565b7f546869732070726f6a656374206973206e6f742070617274206f66207468652060008201527f63757272656e7420726f756e6400000000000000000000000000000000000000602082015250565b7f596f7520617265206e6f7420617574686f72697a656420746f2063616c6c207460008201527f6869732066756e6374696f6e0000000000000000000000000000000000000000602082015250565b7f416464726573733a2063616c6c20746f206e6f6e2d636f6e7472616374000000600082015250565b7f54686520666972737420726f756e6420686173206e6f7420656e646564000000600082015250565b7f5361666545524332303a204552433230206f7065726174696f6e20646964206e60008201527f6f74207375636365656400000000000000000000000000000000000000000000602082015250565b7f566f74696e67207068617365206973206e6f7420796574207374617274656400600082015250565b7f596f7520617265206f7574206f6620766f74657320666f72207468697320726f60008201527f756e640000000000000000000000000000000000000000000000000000000000602082015250565b7f596f7520646f206e6f74206861766520656e6f75676820766f7465732c20747260008201527f7920766f74696e672077697468206c6573730000000000000000000000000000602082015250565b600281106146295761462861416e565b5b50565b61463581613f84565b811461464057600080fd5b50565b61464c81613f96565b811461465757600080fd5b50565b61466381613fd5565b811461466e57600080fd5b5056fea26469706673582212203c3761fc439f4e20712c8b99abdc9b550060a18c93074af5a3c3fb443cb1e74364736f6c63430008040033",
  "linkReferences": {},
  "deployedLinkReferences": {}
}